S0130000536D61724B6F5F325F7632302E733337CC
S21400B00000000220ADB10000D9B10000D9B10000A7
S21400B010D9B10000D9B10000D9B10000D9B1000003
S21400B020D9B10000D9B10000D9B10000D9B10000F3
S21400B030D9B10000D9B10000D9B1000061E200002A
S21400B040257F010001BC0000D9B10000D9B1000085
S21400B050D9B10000D9B10000D9B10000D9B10000C3
S21400B060D9B10000D9B10000D9B1000029BC000058
S21400B070D9B10000D9B10000D9B10000D9B10000A3
S21400B080D9B10000D9B10000D9B10000D9B1000093
S21400B090D9B10000D9B10000D9B10000D9B1000083
S21400B0A0D9B10000D9B10000D9B10000D9B1000073
S21400B0B0D9B10000D9B1000005C70000D9B1000021
S21400B0C0D9B10000D9B10000D9B10000D9B1000053
S21400B0D0D9B10000D9B10000D9B1000010B5054CB7
S21400B0E0237833B9044B13B10448AFF3008001232F
S21400B0F0237010BD000B0020000000000472020048
S21400B100084B10B51BB108480849AFF30080084843
S21400B110036803B910BD074B002BFBD0BDE81040F9
S21400B120184700BF0000000004720200040B002055
S21400B130100A002000000000154B002B08BF134B20
S21400B1409D46A3F5803A00218B460F461348144AC5
S21400B150121A1AF0A2FB0F4B002B00D098470E4B8A
S21400B160002B00D098470020002104000D000D4859
S21400B170002802D00C48AFF300801AF05DFB2000D8
S21400B18029000FF0CDFE1AF043FB00BF00000800B8
S21400B190000002200000000000000000000B00205D
S21400B1A0EC53002000000000000000000648804726
S21400B1B00649074A074B9A42BEBF51F8040B42F8AD
S21400B1C0040BF8E7FFF7B8FF85B3000084730200AE
S21400B1D000000020140A0020FEE700BF80B400AF85
S21400B1E0044BDB6C1B0EDBB21846BD465DF8047BD9
S21400B1F0704700BFB081E00F80B582B000AF00F0AE
S21400B2001FF87860074B5B6803F00F031A467B68ED
S21400B210D3407B60044A7B6813607B681846083717
S21400B220BD4680BD00800C400800002080B400AF02
S21400B230024B1846BD465DF8047B7047006CDC0286
S21400B24080B582B000AF334BDB6A03F47053B3F5BE
S21400B250805F0AD0B3F5005F03D0B3F5006F08D067
S21400B2600BE02D4B1B687B6047E04FF400437B6090
S21400B27043E02A4B1B687B603FE0264BDB6803F409
S21400B280E063B3F5007F1BD0B3F5007F05D8002B35
S21400B29024D0B3F5807F16D02BE0B3F5806F09D0AD
S21400B2A0B3F5A06F03D0B3F5407F06D021E01C4B6A
S21400B2B07B6021E01B4B7B601EE01B4B7B601BE032
S21400B2C01A4B7B6018E0FFF789FF0346122B02D962
S21400B2D0174B7B6010E0174B7B600DE0FFF77EFF9F
S21400B2E00346122B02D9144B7B6005E0134B7B60A0
S21400B2F002E000237B6000BF00BF064B1B6803F420
S21400B300E0339B0B01337A68B2FBF3F31846083739
S21400B310BD4680BD00800C400400002000000020D8
S21400B320003FAB01406F4001809FD500C0D8A7000A
S21400B33040B56400C0CF6A00804F120040420F0044
S21400B34080B400AF034B1B681846BD465DF8047B0F
S21400B350704700BF0000002080B582B000AF786064
S21400B360064A7B681360064BDB6A03F40063002B17
S21400B37001D0FFF741FF0837BD4680BD0000002022
S21400B38000800C4080B400AF034B044A9A60BD4670
S21400B3905DF8047B704700BF00ED00E000B00000E1
S21400B3A080B400AF4FF400431846BD465DF8047BFA
S21400B3B0704700BF80B400AF4FF47A731846BD469E
S21400B3C05DF8047B704700BF80B400AF034B1B687A
S21400B3D01846BD465DF8047B704700BF0400002099
S21400B3E080B483B000AF03463960FB7197F907302D
S21400B3F0002B0ADB0D4997F907303A68D2B25201A2
S21400B400D2B20B4483F800230AE00949FB7903F023
S21400B4100F03043B3A68D2B25201D2B20B441A76FA
S21400B4200C37BD465DF8047B704700BF00E100E0C6
S21400B43000ED00E080B584B000AF78603960254B41
S21400B4401B7883F00103DBB2002B01D0224B3DE0DA
S21400B4507B68002B01D1214B38E00CF049FCB8602A
S21400B4600023FB602BE01E49FA6813469B0013443A
S21400B4709B000B4410331B7883F00103DBB2002BD8
S21400B4801AD0FA687B681A601549FA6813469B005A
S21400B49013449B000B44103301221A701049FA68BB
S21400B4A013469B0013449B000B4400221A60B868A6
S21400B4B00CF02EFC002309E0FB680133FB60FB6800
S21400B4C00B2BD0DDB8680CF023FC064B1846103763
S21400B4D0BD4680BD1C0B0020028000F0018000F0FD
S21400B4E0200B0020048000F080B584B000AF0CF084
S21400B4F0FFFBB860194B1B78002B04D0B8680CF023
S21400B50007FC174B25E0154B01221A70B8680CF0A3
S21400B510FFFB0023FB600CE01249FA6813469B0011
S21400B52013449B000B44103300221A70FB6801334F
S21400B530FB60FB680B2BEFDD00200421FFF750FFBC
S21400B54000233B70084B7B603B4618460CF05AFEC7
S21400B550002318461037BD4680BD00BF1C0B0020D8
S21400B560038000F0200B00200040002080B58CB047
S21400B57008AFF860B9607A603B607B6800933B6810
S21400B5800193002302933B7E0393FB69049397F891
S21400B590203005937B6A0693BB6A07930020002140
S21400B5A0FA68BB6800F044F9034618461037BD46F3
S21400B5B080BD00BF80B58CB008AFF860B9607A6017
S21400B5C03B607B6800933B680193002302933B7EBD
S21400B5D00393FB69049397F8203005937B6A0693E0
S21400B5E0BB6A079300200121FA68BB6800F020F9C7
S21400B5F0034618461037BD4680BD00BF80B582B0F2
S21400B60000AF7860134B1B7883F00103DBB2002B8E
S21400B61001D0114B19E07B680B2B01D90F4B14E0BE
S21400B6200F497A6813469B0013449B000B44103363
S21400B6301B7883F00103DBB2002B01D0094B04E03A
S21400B640786800210CF0C2FD002318460837BD4676
S21400B65080BD00BF1C0B0020028000F0018000F0BF
S21400B660200B0020078000F080B582B000AF786025
S21400B670134B1B7883F00103DBB2002B01D0114B78
S21400B68019E07B680B2B01D90F4B14E00F497A6841
S21400B69013469B0013449B000B4410331B7883F027
S21400B6A00103DBB2002B01D0094B04E078680121CE
S21400B6B00CF08CFD002318460837BD4680BD00BF41
S21400B6C01C0B0020028000F0018000F0200B002000
S21400B6D0078000F080B582B000AF78603960194B03
S21400B6E01B7883F00103DBB2002B01D0164B25E05C
S21400B6F07B680B2B02D83B68002B01D1134B1DE057
S21400B70013497A6813469B0013449B000B4410337E
S21400B7101B7883F00103DBB2002B01D00D4B0DE04C
S21400B72078680CF03BFD0346002B03D03B680122F3
S21400B7301A7002E03B6800221A7000231846083789
S21400B740BD4680BD1C0B0020028000F0018000F08A
S21400B750200B0020078000F080B586B000AFF860B0
S21400B7600B467A60FB72FA6813469B0013449B00F4
S21400B7700B4A13447B617B691B68002B0CD07B69EA
S21400B7809B685A1C7B699A607B691B687A6991681A
S21400B7907A695268F86898471837BD4680BD00BF7A
S21400B7A0200B002080B58AB004AFF8600B467A60A4
S21400B7B0FB720123FB75FA6813469B0013449B003B
S21400B7C01A4A13443B613B691B68002B1AD03B693D
S21400B7D09B685A1C3B699A603B691B683A6991688A
S21400B7E03A695268F86898470346002B14BF01234D
S21400B7F00023DBB283F00103DBB2FB75FB7D03F0B5
S21400B8000103FB753B69DB68013B1946FA7A0023A6
S21400B81000930191FB7D0293002011460022002335
S21400B8200CF01AFD1837BD4680BD00BF200B002067
S21400B83080B58EB004AFBA607B600346FB730B46E0
S21400B840BB73864B1B7883F00103DBB2002B01D061
S21400B850834BFEE0BB680B2B0FD83B6B002B0CD04A
S21400B8607B6B002B09D03B6CB3F5806F05DCFB7B54
S21400B870012B04D1BB6B002B01D17A4BE9E0BA68EF
S21400B88013469B0013449B00774A13447B627B6AF3
S21400B8901B7C83F00103DBB2002B01D0734BD8E096
S21400B8A0FB7B002B09D17249BA6813465B00134430
S21400B8B09B000B446F4A1A6008E06D49BA6813464D
S21400B8C05B0013449B000B446B4A1A606849BA68D5
S21400B8D013465B0013449B000B4400225A6000236F
S21400B8E03B76BB6C002B02D1FB7B012B02D10123E4
S21400B8F07B7601E000237B767B68FB61BA681346A3
S21400B9005B0013449B005A4A13443B6207F118033A
S21400B910B86819460CF0C2FBBB7B002B19D197F810
S21400B9203C30002B10D097F84430002B02D1002377
S21400B9307B740BE097F84430012B02D101237B7413
S21400B94004E002237B7401E003237B7403233B742F
S21400B95018E097F83C30002B10D097F84430002BB6
S21400B96002D100233B740BE097F84430012B02D140
S21400B97001233B7404E002233B7401E003233B7481
S21400B98003237B7497F84430BB740023FB740023B6
S21400B9903B7507F11003B86801211A460CF0C6FB88
S21400B9A0FB7B012B06D107F11003B86800211A466D
S21400B9B00CF0BCFB7B6ABA6C1A607B6AFA6C5A6045
S21400B9C07B6A00229A607B6A3A6CDA602B4ABB6814
S21400B9D0012101FA03F3194602F580530833196072
S21400B9E0FB7B002B0CD13B6C013B1A467B6B009318
S21400B9F00192B868012100223B6B0CF0FFFA27E0A9
S21400BA00BB7B002B12D13B6C013B19463B6C013BC8
S21400BA101A4600913B6B0193BB6B02930392B86886
S21400BA2000213A6B7B6B0CF00BFB11E03B6C013B8F
S21400BA3019463B6C013B1A4600917B6B0193BB6B2E
S21400BA4002930392B86800213A6BBB6B0CF0F8FACD
S21400BA50002318462837BD4680BD00BF1C0B0020BB
S21400BA60028000F0018000F0200B0020078000F02C
S21400BA70100C002059B70000A5B7000000200C40AD
S21400BA8080B483B000AF0346FB7197F90730002BF4
S21400BA900BDB084997F907305B09FA7902F01F02B9
S21400BAA0012000FA02F241F823200C37BD465DF86B
S21400BAB0047B704700E100E080B483B000AF03462B
S21400BAC0FB7197F90730002B0CDB094997F9073013
S21400BAD05B09FA7902F01F02012000FA02F26033D5
S21400BAE041F823200C37BD465DF8047B704700BF45
S21400BAF000E100E080B483B000AF7860044A7B6861
S21400BB00C2F81C310C37BD465DF8047B704700BF99
S21400BB100060004080B483B000AF074BD3F810310C
S21400BB207B60054BD3F814217B68134018460C370E
S21400BB30BD465DF8047B70470060004080B485B069
S21400BB4000AF78607B68FB60FB6893FAA3F3BB608A
S21400BB50BB68B3FA83F3DBB218461437BD465DF80C
S21400BB60047B704780B500AF0B20FFF7A5FF0B20C6
S21400BB70FFF786FF0120FFF79FFF0120FFF780FFFA
S21400BB8080BD00BF80B584B000AF03463960FB714E
S21400BB900CF0AEF8F860FB7904493A6841F82320C7
S21400BBA0F8680CF0B5F81037BD4680BDA00C002034
S21400BBB080B584B000AF786019E07868FFF7BEFF04
S21400BBC0F860FB68012202FA03F3DB431A467B683F
S21400BBD013407B60094AFB6852F82330BB60BB68A1
S21400BBE0002B04D0FB68DAB2BB68104698477B6827
S21400BBF0002BE2D11037BD4680BD00BFA00C002050
S21400BC0080B582B000AFFFF785FF024645F2555378
S21400BC1013407B607868FFF76DFF7868FFF7C8FF12
S21400BC200837BD4680BD00BF80B582B000AFFFF7C5
S21400BC3071FF02464AF6AA2313407B607868FFF736
S21400BC4059FF7868FFF7B4FF0837BD4680BD00BFD0
S21400BC5090B585B000AF1D4B1B78002B01D000239C
S21400BC602EE01B4801210BF021FD002001210B22B4
S21400BC7001230CF0ABFC002000210B2201230CF06A
S21400BC80A5FC144B3C460FCB84E80F0001233B7009
S21400BC9001237B70104BBB6000233B733B460F4871
S21400BCA019460CF01FFE0D4A0C4B9B6B43F003032A
S21400BCB09363064B01221A70094B00221A70002368
S21400BCC05BB218461437BD4690BD00BFE10C00209D
S21400BCD000B2040060620200801A060000A0004065
S21400BCE0E20C002080B58AB000AFB9607A603B6095
S21400BCF00346FB73214B1B78002B01D0012338E051
S21400BD001F4B1B7883F00103DBB2002B01D09D2371
S21400BD102FE01C4B00221A70184B01221A70FB7B76
S21400BD209BB23B8204237B82BB687B617B689BB2B1
S21400BD303B833B68FB613B6B002B02D101233B84BA
S21400BD4002E03B6B9BB23B8407F110030E4819469A
S21400BD500DF02EF80C480CF0FFFD034687F8273050
S21400BD6097F92730012BF5D0044B00221A7097F86C
S21400BD7027305BB218462837BD4680BDE20C00204F
S21400BD80E10C0020E00C002000A0004080B485B04C
S21400BD9000AF7860164B5B6903F00803002B1ED0DB
S21400BDA07B685A1C7A601B78FB737B685A1C7A6027
S21400BDB01B78BB737B685A1C7A601B787B737B6826
S21400BDC05A1C7A601B783B733B7B1A067B7B1B04F2
S21400BDD01A43BB7B1B021A43FB7B134301E07B68C1
S21400BDE01B6818461437BD465DF8047B704700BFD5
S21400BDF000ED00E080B483B000AF0346FB7197F916
S21400BE000730B3F1FF3F07D0002B03D013F1040F28
S21400BE1004D005E0002304E0054B02E0054B00E0FB
S21400BE20054B18460C37BD465DF8047B704700BFCF
S21400BE30012000F0022000F0072000F080B500AFDF
S21400BE400DF0D6F880BD00BF80B500AF0DF02CF920
S21400BE5080BD00BF80B487B000AFF860B9601346FD
S21400BE60FB80BB687B610CE0FB681A787B691A7004
S21400BE707B6901337B61FB680133FB60FB88013B18
S21400BE80FB80FB88002BEFD11C37BD465DF8047B9A
S21400BE90704700BF80B588B000AFF860B960134641
S21400BEA0FB800023FB77BB68BB61FB68DBB203F05B
S21400BEB00303FB75FB7D002B49D0B868FFF766FFD0
S21400BEC003463B613A69FB7DDB0002FA03F33B6104
S21400BED0FA7D13465B079B1ADB0020331A464FF0A9
S21400BEE0FF3323FA02F23B6913433B61FA88FB7D7A
S21400BEF0C3F104039A420CD2FA7DFB881344DB009C
S21400BF004FF0FF329A403B6913433B610023FB80AE
S21400BF1006E0FB7D9AB2FB8813449BB2043BFB8091
S21400BF20FB7D5B42FA681344FB6007F11003F86878
S21400BF30194604221AF084F90346FB77FB7DC3F109
S21400BF400403BA691344BB61FB680433FB6016E064
S21400BF50B869FFF71BFF03463B6107F11003F8685B
S21400BF60194604221AF06CF90346FB77FB68043383
S21400BF70FB60BB690433BB61FB88043BFB80FB882A
S21400BF80032B03D997F91F30002BE1D0FB88002B39
S21400BF9019D097F91F30002B15D1B869FFF7F6FEB8
S21400BFA003463B61FB88DB004FF0FF329A403B695B
S21400BFB013433B6107F11003F868194604221AF090
S21400BFC03FF90346FB7797F91F301846FFF712FF35
S21400BFD0034618462037BD4680BD00BF80B582B0F8
S21400BFE000AF786078681AF033F903461846FFF712
S21400BFF001FF034618460837BD4680BD80B487B0AB
S21400C00000AFF860B9601346FB80BB687B61FB68D5
S21400C0101B887B8229E07B8A1B0A9BB29AB27B8AAA
S21400C0201B029BB213439BB27B827B695A1C7A61CC
S21400C0301B789AB27B8A53407B827B8A03F0F0039C
S21400C0401B119AB27B8A53409BB27B827B8A1B036E
S21400C0509AB27B8A53409BB27B827B8ADBB25B01BF
S21400C0609AB27B8A53409BB27B82FB885A1EFA8028
S21400C070002BD0D1FB687A8A1A801C37BD465DF843
S21400C080047B704780B483B000AF0346FB7197F91A
S21400C0900730002B0BDB084997F907305B09FA7964
S21400C0A002F01F02012000FA02F241F823200C37AA
S21400C0B0BD465DF8047B704700E100E080B483B0C5
S21400C0C000AF0346FB7197F90730002B0CDB0949DC
S21400C0D097F907305B09FA7902F01F02012000FA8F
S21400C0E002F2603341F823200C37BD465DF8047B2E
S21400C0F0704700BF00E100E080B400AF034B5B6810
S21400C1001846BD465DF8047B704700BF0000084037
S21400C11080B483B000AF7860034A7B6893610C37C5
S21400C120BD465DF8047B70470000084080B483B0CD
S21400C13000AF78600549054BDA697B68DB4313403E
S21400C140CB610C37BD465DF8047B704700000840A5
S21400C15080B483B000AF78600549054BDA697B6828
S21400C1601343CB610C37BD465DF8047B704700BFB8
S21400C1700000084080B483B000AF064BDB697B60EC
S21400C180044B1A697B68134018460C37BD465DF8A9
S21400C190047B70470000084080B586B000AF78602A
S21400C1A000237B6100233B610BF0A2FDF86002E0F8
S21400C1B07B6901337B617B69032B0ADC16497A694C
S21400C1C013469B001344DB000B4418339B79002B6B
S21400C1D0EED17B69042B02D1104B3B6114E07B68E7
S21400C1E0002B0FD00C497A6913469B001344DB00E2
S21400C1F00B44183301229A717A697B681A6000230F
S21400C2003B6101E0064B3B61F8680BF081FD3B6942
S21400C21018461837BD4680BDE80C0020011000F017
S21400C220041000F080B584B000AF786079680846E6
S21400C2304FF00001CB0343EA5043C20312F57A6283
S21400C24043F10003104619464FF4FA524FF000032C
S21400C25016F05AFA02460B46C7E902230CE00F48CE
S21400C26000F0FEFBD7E902230D484FF0FF3112180D
S21400C27043EB0103C7E90223D7E9022307484FF03F
S21400C2800001994208BF9042E9D3BB68184600F007
S21400C290E7FB002318461037BD4680BD9BFFFF0016
S21400C2A0650000FF80B500AF1D4B1B78002B01D04A
S21400C2B0002332E01A4B01221A701A4801210BF0B3
S21400C2C0F5F9194802210BF09BFB184808210BF0E2
S21400C2D0F9F8164801210BF0E9F915480CF0E4FFCF
S21400C2E00720FFF723FF0720FFF712FF0DF004F8E3
S21400C2F01E20FFF7E3FE1E20FFF7C4FE0D480021B8
S21400C300A02219F0CAFA0C4B00221A700B4B00221E
S21400C3101A700B4B00221A600023184680BD00BF1F
S21400C320920D00200043020002001E00801612003C
S21400C33070620200E80C0020900D0020910D002095
S21400C3408C0D0020B0B58EB000AFF8607A603B6010
S21400C3500B46FB720023FB62FB68032B01D98D4B57
S21400C3608BE10BF0C5FCB8628B49FA6813469B005C
S21400C3701344DB000B4418339B7983F00103DBB2D4
S21400C380002B04D0B86A0BF0C3FC844B75E17B68C5
S21400C390002B0BD13B68002B03D03B68F868B96CC8
S21400C3A09847B86A0BF0B4FC002366E1FFF7A4FEDA
S21400C3B038637949FA6813469B001344DB000B4444
S21400C3C018333A681A607B681A464FF00003DD039C
S21400C3D045EA5245D40314F57A6245F10003104647
S21400C3E019464FF4FA524FF0000316F08DF9024644
S21400C3F00B4610461946684CFA6813469B001344D1
S21400C400DB0023440833C3E90001FB7A012B27D164
S21400C4107B684FF47A7202FB03F15F48FA681346B2
S21400C4209B001344DB0003440833D3E90023F423C2
S21400C43003FB02F3CB1A18465749FA6813469B00CB
S21400C4401344DB000B44103318605349FA68134654
S21400C4509B001344DB000B4410337A225A6017E02B
S21400C4604D49FA6813469B001344DB000B4408331F
S21400C470D3E9002312F1FF3043F1FF31464CFA684E
S21400C48013469B001344DB0023440833C3E9000132
S21400C4904149FA6813469B001344DB000B440833FB
S21400C4A0D3E90023501C43F100013B4CFA681346C5
S21400C4B09B001344DB002344C3E900013649FA68B5
S21400C4C013469B001344DB000B44183301221A71F9
S21400C4D03149FA6813469B001344DB000B441833BB
S21400C4E0FA7ADA712C49FA6813469B001344DB008B
S21400C4F00B442033BA6C1A60294B1B78002B04D0EF
S21400C500B86A0BF005FC0023B7E0264B1B68B3F1B6
S21400C510FF3F04D0234B1B680133224A1360224B93
S21400C5201B7883F00103DBB2002B43D03B6B23F078
S21400C5307F431E4A13600220FFF7EAFD1649FA6899
S21400C54013469B001344DB000B44D3E90023C7E9E2
S21400C5500823174BFB61FB6918464FF00001D7E92B
S21400C56008238B4208BF824201D210461946034672
S21400C570BB613A6BBB69134423F07F430020194626
S21400C5800CF064FE0220FFF7E3FD074B01221A7051
S21400C59066E000BF021000F0E80C0020031000F078
S21400C5A0900D00208C0D0020910D0020880D00209D
S21400C5B09BFFFF00334B1B68012B51D13249FA68B1
S21400C5C013469B001344DB000B44183300221A71F9
S21400C5D00220FFF7ABFD3B6B1A022C4B1B681B02BD
S21400C5E0D31A1B0A7B637B6B6FF07F42934201D1A9
S21400C5F000237B63786B00F0DFF800F04BFAFB6AF1
S21400C600002B09D12049FA6813469B001344DB002F
S21400C6100B44183301221A71FB6A0133FB62386B34
S21400C62000F06AFAFFF768FD38633B6B1A02174B97
S21400C6301B681B02D31A1B0A7B6300200CF0E8FD64
S21400C64003461A02114B1B681B02D31A1B0A7B6196
S21400C6500F4B1B78002B03D07A6B7B699A42B7D8B6
S21400C660084B1B68002B04D0064B1B68013B054A91
S21400C6701360B86A0BF04CFB002318463837BD46EB
S21400C680B0BD00BF8C0D0020E80C0020880D0020F7
S21400C690910D002080B584B000AF78607B68032BD6
S21400C6A001D9154B23E00BF023FBF86013497A6899
S21400C6B013469B001344DB000B4418339B7983F02E
S21400C6C00103DBB2002B04D0F8680BF021FB0C4B07
S21400C6D00DE00A497A6813469B001344DB000B44BE
S21400C6E0183300221A71F8680BF012FB0023184664
S21400C6F01037BD4680BD00BF021000F0E80C0020D9
S21400C700031000F080B586B000AF0BF0F1FA386188
S21400C710FFF730FDF860FB6823F003031846FFF7C9
S21400C720F7FCFB6803F00203002B39D01F4B0122F5
S21400C7301A70FFF7E1FC78610220FFF7F7FC7B69CF
S21400C7401A021B4B1B681B02D31A1B0ABB60B86875
S21400C75000F032F800F09EF9786900F0CDF9FFF7A6
S21400C760CBFC78617B691A02114B1B681B02D31A3B
S21400C7701B0ABB6000200CF04BFD03461A020C4B54
S21400C7801B681B02D31A1B0A7B600A4B1B78002B04
S21400C79003D0BA687B689A42CED8044B00221A703F
S21400C7A038690BF0B5FA1837BD4680BD900D0020ED
S21400C7B0880D0020910D002090B484B000AF786002
S21400C7C00023FB6041E1A549FA6813469B00134429
S21400C7D0DB000B44183300225A71A049FA6813464E
S21400C7E09B001344DB000B4418331B79002B00F02E
S21400C7F029819A49FA6813469B001344DB000B44D0
S21400C800D3E90023796808464FF00001994208BF33
S21400C810904219D29149FA6813469B001344DB00F4
S21400C8200B44D3E900017B681A464FF00003801AD8
S21400C83061EB0301894CFA6813469B001344DB0046
S21400C8402344C3E90001FDE08449FA6813469B00CF
S21400C8501344DB000B441833DB79002B0AD17F49E5
S21400C860FA6813469B001344DB000B44183300227F
S21400C8701A71D2E07949FA6813469B001344DB002C
S21400C8800B440833D3E900017B681A464FF00003D7
S21400C890801A61EB0301714CFA6813469B0013443F
S21400C8A0DB002344D3E90023801841EB03016B4CE3
S21400C8B0FA6813469B001344DB002344C3E90001D7
S21400C8C06649FA6813469B001344DB000B4410339A
S21400C8D01B68002B50DD6149FA6813469B00134421
S21400C8E0DB000B44103359685C48FA6813469B001B
S21400C8F01344DB00034410331B6819445748FA6896
S21400C90013469B001344DB0003441033596053491D
S21400C910FA6813469B001344DB000B4410335B6835
S21400C920F32B7AD94D49FA6813469B001344DB0073
S21400C9300B44D3E90023501C43F10001474CFA682E
S21400C94013469B001344DB002344C3E9000143491C
S21400C950FA6813469B001344DB000B4410335B68F5
S21400C960A3F1F4013D48FA6813469B001344DB002C
S21400C97003441033596050E03849FA6813469B0068
S21400C9801344DB000B44103359683448FA681346E6
S21400C9909B001344DB00034410331B68C91A2F485E
S21400C9A0FA6813469B001344DB00034410335960B7
S21400C9B02A49FA6813469B001344DB000B441033E5
S21400C9C05B68F32B29D92549FA6813469B00134464
S21400C9D0DB000B44D3E9002312F1FF3043F1FF31B3
S21400C9E01E4CFA6813469B001344DB002344C3E93D
S21400C9F000011A49FA6813469B001344DB000B44F7
S21400CA0010335B68A3F1F4011448FA6813469B00E0
S21400CA101344DB000344103359601049FA68134688
S21400CA209B001344DB000B4418331B68002B09D013
S21400CA300A49FA6813469B001344DB000B4418337C
S21400CA4001225A71FB680133FB60FB68032B7FF7FA
S21400CA50BAAE1037BD4690BC704700BFE80C002049
S21400CA6080B584B000AF78607B68002B0FD0FFF7EE
S21400CA7043FBF860FFF740FB0346BB60BB681A0247
S21400CA80FB681B02D31A1A0A7B689A42F2D3103745
S21400CA90BD4680BD90B583B000AF00237B6022E02A
S21400CAA014497A6813469B001344DB000B44183382
S21400CAB05B79002B14D00F497A6813469B00134409
S21400CAC0DB000B4418331C6878680A497A681346FA
S21400CAD09B001344DB000B4420331B681946A04719
S21400CAE07B6801337B607B68032BD9DD0C37BD4642
S21400CAF090BD00BFE80C002080B58AB000AF78601B
S21400CB004FF0FF324FF0FF33C7E9062300237B6266
S21400CB1027E037497A6A13469B001344DB000B4430
S21400CB2018331B79002B19D031497A6A13469B00BB
S21400CB301344DB000B44D3E90001D7E906239942EE
S21400CB4008BF90420AD22A497A6A13469B001344C9
S21400CB50DB000B44D3E90023C7E906237B6A0133D5
S21400CB607B627B6A032BD4DD224B00221A70D7E946
S21400CB700623B3F1FF3F08BFB2F1FF3F35D0D7E938
S21400CB800623C7E904231C4BFB60FB681A464FF0DC
S21400CB900003D7E90401994208BF904201D2024639
S21400CBA00B46C7E90623154B1B7883F00103DBB25F
S21400CBB0002B05D07B6823F07F43114A136002E008
S21400CBC00F4A7B6813600220FFF7A2FABA697B68F7
S21400CBD0134423F07F43002019460CF037FB054B27
S21400CBE001221A700220FFF7B3FA2837BD4680BD2F
S21400CBF0E80C0020910D00209BFFFF00900D002008
S21400CC00880D002080B483B000AF786039607B6800
S21400CC103A689A640C37BD465DF8047B704700BFDF
S21400CC2080B485B000AF786039607B6803F1047328
S21400CC30DA003B6813449B00FB60FB681B681846E1
S21400CC401437BD465DF8047B704700BF80B582B0E0
S21400CC5000AF03463960FB71FB79002B0DD0FB79E2
S21400CC60012B0AD0FB79022B07D0FB79032B04D0CB
S21400CC70FB79042B01D0FB79052BFA791346DB00F0
S21400CC8013449B001C3303F1804303F5C04318464E
S21400CC903968FFF7C5FF034618460837BD4680BD0E
S21400CCA080B483B000AF03463960FB71FB79002B7C
S21400CCB00DD0FB79012B0AD0FB79022B07D0FB792C
S21400CCC0032B04D0FB79042B01D0FB79052B0949F3
S21400CCD0FA793B68012000FA03F318461346DB0096
S21400CCE013449B000B44103358600C37BD465DF868
S21400CCF0047B70470060004080B483B000AF0346FA
S21400CD003960FB71FB79002B0DD0FB79012B0AD023
S21400CD10FB79022B07D0FB79032B04D0FB79042B7D
S21400CD2001D0FB79052B0949FA793B68012000FA06
S21400CD3003F318461346DB0013449B000B441033E2
S21400CD4018600C37BD465DF8047B704700600040F5
S21400CD5090B585B002AF396011461A460346FB719E
S21400CD600B46BB7113467B71FA79BC797B790093CD
S21400CD703B7E0193104639683A6823460BF0BEFBAB
S21400CD800C37BD4690BD00BF80B485B000AF78605C
S21400CD900023FB6010E00D4AFB6852F823305B7FEF
S21400CDA01A467B689A4204D1084AFB6852F8233038
S21400CDB006E0FB680133FB60FB68032BEBD900231E
S21400CDC018461437BD465DF8047B7047940D002066
S21400CDD080B582B000AF78607B6893F83130022B64
S21400CDE00AD17B685A7E7B685B7F10461946FFF740
S21400CDF02DFF0346DBB200E0002318460837BD4689
S21400CE0080BD00BF80B586B000AF0346FB71FB79DE
S21400CE101846FFF7B9FF78617B69002B3ED07B6927
S21400CE2093F83130022B39D17869FFF7D1FF0346EA
S21400CE301A467B691A757B695B7D022B2ED17B694E
S21400CE4093F82E30DBB2002B28D10023FB737B69CE
S21400CE505A6807F10F0310461946FEF73BFC386187
S21400CE607B691B7D002B04D07B6993F82F30002B49
S21400CE7009D07B69002283F82F207B695B681846FF
S21400CE80FEF7F2FB0AE03B69002B07D1FB7B002B89
S21400CE9004D07B695B681846FEF7B0FB1837BD46C2
S21400CEA080BD00BF80B584B000AF78607B6893F823
S21400CEB03130022B2FD17B685B7D002B08D17B683D
S21400CEC09A7E7B689B7F10461946FFF7E9FE4AE08C
S21400CED07B685B7D012B08D17B689A7E7B689B7F95
S21400CEE010461946FFF708FF3DE07B681B7D002BC8
S21400CEF008D17B689A7E7B689B7F10461946FFF7B1
S21400CF00CFFE30E07B689A7E7B689B7F1046194692
S21400CF10FFF7F2FE27E07B6893F83130012B22D131
S21400CF207B681B7D002B0FD11123FB73786801F003
S21400CF3023F807F10F0378681946012200F094FFE2
S21400CF40786801F0A9F80EE01323FB73786801F007
S21400CF5013F807F10F0378681946012200F084FFE2
S21400CF60786801F099F8002318461037BD4680BD52
S21400CF7080B586B000AFF860B9607A600AF0B8FE97
S21400CF807861FB689B889AB2FB68DB889A4207D375
S21400CF907B6800221A6078690AF0BAFE1D4B35E0FD
S21400CFA0FB681B889BB21A4613469B0013449B00E3
S21400CFB00833FA6813441846B968142218F062FC5D
S21400CFC0FB681B889BB21A4613469B0013449B00C3
S21400CFD00833FA681A447B681A60FB681B889BB2A1
S21400CFE00133FA68D28893FBF2F102FB01F29B1A36
S21400CFF09AB2FB681A80FB689B889BB201339AB290
S21400D000FB689A8078690AF083FE00231846183772
S21400D010BD4680BD0A7000F080B584B000AF786071
S21400D02039600AF065FEF8607B689B889BB2002B2F
S21400D03007D13B6800221A60F8680AF069FE164BB2
S21400D04025E07B685B889BB21A4613469B00134418
S21400D0509B0008337A681A443B681A607B685B88D2
S21400D0609BB201337A68D28893FBF2F102FB01F29D
S21400D0709B1A9AB27B685A807B689B889BB2013B5E
S21400D0809AB27B689A80F8680AF042FE0023184637
S21400D0901037BD4680BD00BF0B7000F080B584B071
S21400D0A000AF786039600AF023FEF8607B689B88E2
S21400D0B09BB2002B07D13B6800221A60F8680AF082
S21400D0C027FE0B4B10E07B685B889BB21A46134624
S21400D0D09B0013449B0008337A681A443B681A6026
S21400D0E0F8680AF015FE002318461037BD4680BDC6
S21400D0F00B7000F080B483B000AF78607B6893F864
S21400D1003230002B14D17B681B680422DA6000BF23
S21400D1107B681B681B6903F00203002BF8D07B6852
S21400D1201B687A681268526D42F002025A6520E067
S21400D1307B6893F83230012B1BD100BF7B681B68DD
S21400D1405B6C03F00203002BF8D17B681B6804229B
S21400D1505A6000BF7B681B689B6803F00203002BC5
S21400D160F8D07B681B687A681268526D42F002023B
S21400D1705A650C37BD465DF8047B704780B483B0B3
S21400D18000AF78607B6893F83230002B0CD17B6858
S21400D1901B687A681268526D22F002025A657B6834
S21400D1A01B680822DA6018E07B6893F83230012B9F
S21400D1B013D100BF7B681B685B6C03F00203002B77
S21400D1C0F8D17B681B687A681268526D22F00202FA
S21400D1D05A657B681B6808225A600C37BD465DF8A6
S21400D1E0047B704780B483B000AF78607B6893F8A8
S21400D1F03230002B14D17B681B680122DA6000BF36
S21400D2007B681B681B6903F00103002BF8D07B6862
S21400D2101B687A681268526D42F001025A6520E077
S21400D2207B6893F83230012B1BD100BF7B681B68EC
S21400D2305B6C03F00203002BF8D17B681B680122AD
S21400D2405A6000BF7B681B689B6803F00103002BD5
S21400D250F8D07B681B687A681268526D42F001024B
S21400D2605A650C37BD465DF8047B704780B483B0C2
S21400D27000AF78607B6893F83230002B0CD17B6867
S21400D2801B687A681268526D22F001025A657B6844
S21400D2901B680222DA6018E07B6893F83230012BB4
S21400D2A013D100BF7B681B685B6C03F00203002B86
S21400D2B0F8D17B681B687A681268526D22F001020A
S21400D2C05A657B681B6802225A600C37BD465DF8BB
S21400D2D0047B704790B58BB006AF7860396000234A
S21400D2E0FB607B68012283F82C207B6893F8323041
S21400D2F0002B04D17B681B681C33FB600EE07B6848
S21400D30093F83230012B04D17B681B681C33FB601A
S21400D31004E07B68002283F82C2014E07B68986881
S21400D3207B6819693B681A683B685B681C46012382
S21400D3300093019400230293044B03937B680493A9
S21400D340FB68FEF737F91437BD4690BDD5D300000D
S21400D35090B58BB006AF786039600023FB607B68C1
S21400D360012283F82D207B6893F83230002B04D1FD
S21400D3707B681B683433FB600EE07B6893F83230C2
S21400D380012B04D17B681B682833FB6004E07B68B4
S21400D390002283F82D2017E07B6859687B68DA68DE
S21400D3A03B681C683B685B68184601230093019045
S21400D3B000230293064B03937B68049308461146AA
S21400D3C0FA682346FEF7D2F81437BD4690BD00BF74
S21400D3D05DD50000B0B588B000AFF860B9607A607F
S21400D3E07B68FB61FB695A6A07F11403104619460D
S21400D3F0FFF754FEFB6993F83230002B12D1FB691D
S21400D4001B681B6C03F40073002B0BD07B69514A1E
S21400D4101A617B6900229A60FB691B684FF40072F0
S21400D4209A644BE0FB6993F83230012B11D1FB690B
S21400D4301B68DB6A03F08003002B0AD07B69454A31
S21400D4401A617B6900229A60FB691B6880225A6316
S21400D45034E0FB6993F83230002B12D1FB691B686D
S21400D4601B6C03F48073002B0BD07B693A4A1A615D
S21400D4707B6900229A60FB691B684FF480729A648D
S21400D4801CE0FB6993F83230012B11D1FB691B6855
S21400D490DB6A03F04003002B0AD07B692E4A1A6130
S21400D4A07B6900229A60FB691B6840225A6305E08C
S21400D4B07B6900221A617B6900229A600AF018FCD8
S21400D4C0B8617B69DB68002B0DD07B69DC687B6903
S21400D4D019697B691D687B695A687B699B68D31AE2
S21400D4E0F8692A46A047FB695A6A07F114031046F2
S21400D4F01946FFF791FDFB695B6A9B889BB2002B80
S21400D5000DD0FB695A6A07F1140310461946FFF757
S21400D510C5FD7B69F8691946FFF7DCFE11E0FB697B
S21400D52001221A75F869FFF7BDFCFB69002283F833
S21400D5302C20FB6993F83130032B02D0F869FFF7F3
S21400D54095FEB8690AF0E4FB012318462037BD466D
S21400D550B0BD00BF0D7000F00C7000F090B589B043
S21400D56000AFF860B9607A607B68FB61FB699A6A15
S21400D57007F1140310461946FFF790FD7B69002259
S21400D5801A617B6900229A600AF0B2FBB8617B6977
S21400D590DB68002B08D07B69DC687B691A687B69CE
S21400D5A05B68F8690021A047FB699A6A07F11403D3
S21400D5B010461946FFF730FDFB699B6A9B889BB2B5
S21400D5C0002B0DD0FB699A6A07F114031046194622
S21400D5D0FFF764FD7B69F8691946FFF7B9FE03E0BB
S21400D5E0FB69002283F82D20B8690AF091FB01231D
S21400D5F018462437BD4690BD80B485B000AFF860AD
S21400D600B9607A60FB68002B01D10A4B0CE0BB685E
S21400D610002B06D07B68002B03D07B68B3F5806FA9
S21400D62001D9054B00E0002318461437BD465DF8C7
S21400D630047B7047027000F0037000F080B483B083
S21400D64000AF786039607B681B689B4A934240F065
S21400D6509D803B681B7A002B1FD03B681B7A012BF2
S21400D66019D03B681B7A022B13D03B681B7A032B1E
S21400D6700DD03B681B7A042B07D03B681B7A052B22
S21400D68001D102230AE0FF2308E0012306E0042379
S21400D69004E0022302E0042300E004237A68D37542
S21400D6A03B681B7A002B1FD03B681B7A012B19D0D6
S21400D6B03B681B7A022B13D03B681B7A032B0DD0DA
S21400D6C03B681B7A042B07D03B681B7A052B01D1DD
S21400D6D002230AE0FF2308E0012306E0042304E017
S21400D6E0022302E0042300E004237A6813763B68F2
S21400D6F01B7A002B1FD03B681B7A012B19D03B6886
S21400D7001B7A022B13D03B681B7A032B0DD03B6889
S21400D7101B7A042B07D03B681B7A052B01D100230C
S21400D7200AE0FF2308E0072306E00D2304E00B23AE
S21400D73002E0072300E00A237A68D3763B681B7A68
S21400D740002B1FD03B681B7A012B19D03B681B7A35
S21400D750022B13D03B681B7A032B0DD03B681B7A39
S21400D760042B07D03B681B7A052B01D101230AE066
S21400D770FF2308E0082306E00C2304E00A2302E067
S21400D780062300E00B237A681377A3E07B681B6808
S21400D7904A4A934254D13B681B7A002B0DD03B6813
S21400D7A01B7A012B07D03B681B7A022B01D103237F
S21400D7B004E0FF2302E0032300E002237A68D37527
S21400D7C03B681B7A002B0DD03B681B7A012B07D0D9
S21400D7D03B681B7A022B01D1032304E0FF2302E0FF
S21400D7E0032300E002237A6813763B681B7A002B3B
S21400D7F00DD03B681B7A012B07D03B681B7A022BA7
S21400D80001D1072304E0FF2302E0002300E0002309
S21400D8107A68D3763B681B7A002B0DD03B681B7A60
S21400D820012B07D03B681B7A022B01D1062304E0AC
S21400D830FF2302E0012300E001237A68137749E022
S21400D8407B681B681E4A934242D13B681B7A002BBA
S21400D85007D03B681B7A012B01D1012302E0FF238E
S21400D86000E002237A68D3753B681B7A002B07D04A
S21400D8703B681B7A012B01D1012302E0FF2300E065
S21400D88002237A6813763B681B7A002B07D03B6826
S21400D8901B7A012B01D1032302E0FF2300E00223C1
S21400D8A07A68D3763B681B7A002B0DD03B681B7AD0
S21400D8B0012B07D1042308E000C0004000C400404C
S21400D8C000C80040FF2300E003237A68137701E0D6
S21400D8D00C4B10E03B685A7C7B685A763B689A7C17
S21400D8E07B685A773B68DA7C7B689A763B681A7D59
S21400D8F07B689A77002318460C37BD465DF8047B94
S21400D900704700BF037000F080B584B002AF786047
S21400D9100B46FB70FB78002B53D07B68DA7D7B6868
S21400D920DB7E10461946042201230AF04FFE7B6870
S21400D9301A7E7B681B7F10461946022201230AF0D6
S21400D94045FE7B6893F83130022B20D17B685A7EE7
S21400D9507B685B7F10461946012200230AF036FEDC
S21400D9607B689A7E7B689B7F1046194604220023BC
S21400D9700AF02CFE7B685A7E7B685B7F1946012383
S21400D9800093104601220123FFF7E2F96CE07B6862
S21400D99093F83130032B67D17B685A7E7B685B7FB8
S21400D9A010461946012200230AF010FE7B689A7E74
S21400D9B07B689B7F10461946042200230AF006FE69
S21400D9C052E07B68DA7D7B68DB7E104619460022D3
S21400D9D000230AF0FBFD7B681A7E7B681B7F1046DF
S21400D9E01946002200230AF0F1FD7B6893F83130D7
S21400D9F0022B20D17B685A7E7B685B7F10461946D7
S21400DA00002200230AF0E2FD7B689A7E7B689B7FFB
S21400DA1010461946002200230AF0D8FD7B685A7E7D
S21400DA207B685B7F19460023009310460122012382
S21400DA30FFF78EF918E07B6893F83130032B13D18B
S21400DA407B685A7E7B685B7F10461946002200235F
S21400DA500AF0BCFD7B689A7E7B689B7F1046194661
S21400DA60002200230AF0B2FD002318460837BD4600
S21400DA7080BD00BF80B485B000AF7860234B1B78B4
S21400DA8083F00103DBB2002B10D00023BB6007E05D
S21400DA901F4ABB68002142F82310BB680133BB60F5
S21400DAA0BB68032BF4D9194B01221A700023FB73B1
S21400DAB00023BB6017E0164ABB6852F82330002BE1
S21400DAC006D0134ABB6852F823207B689A4207D1D7
S21400DAD00F49BB687A6841F823200123FB7305E0F1
S21400DAE0BB680133BB60BB68032BE4D9FB7B83F0C8
S21400DAF00103DBB2002B01D0064B00E000231846E2
S21400DB001437BD465DF8047B704700BF930D0020B8
S21400DB10940D0020027000F080B485B000AFF8606D
S21400DB20B9607A60FB68BA685A62FB685B6A002272
S21400DB301A80FB685B6A00225A80FB685B6A0022D8
S21400DB409A80FB68002283F82C20FB687A689A6229
S21400DB50FB689B6A00221A80FB689B6A00225A8038
S21400DB60FB689B6A00229A80FB68002283F82D20BF
S21400DB70FB68002283F82F201437BD465DF8047B2F
S21400DB80704700BF80B582B000AF7860FDF7EAFF4F
S21400DB907B685B7F18460949FDF7F4FF7B68002227
S21400DBA09A757B6800221A757B6802225A75786817
S21400DBB0FFF778F90837BD4680BD00BF05CE0000E8
S21400DBC080B582B000AF7860FDF78EFC7B680433CA
S21400DBD018460021FDF72EFC0346002B01D0094B0A
S21400DBE00BE07B68083318460021FDF723FC03464C
S21400DBF0002B01D0034B00E0002318460837BD4633
S21400DC0080BD00BF0E7000F0B0B58AB000AF78607F
S21400DC103960774B07F108041D460FCD0FC495E811
S21400DC20030084E803007B68002B01D1714BDBE026
S21400DC303B68002B01D1704BD6E078680021342277
S21400DC4017F02BFE7868FFF715FF78627B6A002BCB
S21400DC5001D07B6AC8E03B681A7C7B6883F8312079
S21400DC603B681A687B681A607B68002283F832205B
S21400DC703B681B68614A93420AD17B68604A1A6215
S21400DC807B68604ADA607B684FF440221A6121E0C4
S21400DC903B681B685C4A93420AD17B685B4A1A62FF
S21400DCA07B685B4ADA607B684FF450221A6111E0A9
S21400DCB03B681B68574A93420AD17B68564A1A62E9
S21400DCC07B68564ADA607B684FF460221A6101E08E
S21400DCD0494B89E03B689A693B68DB69786811467E
S21400DCE01A46FFF719FF3B685B683B613B685B8938
S21400DCF03B833B689B89FB823B689B7B3B753B6811
S21400DD00DB7BBB7605237B754548012109F0CEFCFD
S21400DD104448012109F0CAFC7B681B6A18460121A9
S21400DD2009F0C4FC00233B723B681A6807F108033D
S21400DD30104619460BF0BAFB3B681B683A68127A25
S21400DD40120242F003025A6578683968FFF776FCDB
S21400DD5078627B6A002B01D07B6A45E078680121F7
S21400DD60FFF7D2FD78627B6A002B01D07B6A3BE02E
S21400DD7009F0BEFF38623B681B7C032B01D11E4BAB
S21400DD8032E03B681B7C022B02D17868FFF7FAFE74
S21400DD903B681B6818464FF0FF31FEF733FF3B68C1
S21400DDA01B7C032B06D13B681B68184605210BF02D
S21400DDB051FB05E03B681B68184604210BF04AFB44
S21400DDC03B681B684FF44062DA60FDF78DFB7868AD
S21400DDD0FFF7F6FE7862386A09F09AFF7B6A002B36
S21400DDE001D07B6A00E0002318462837BD46B0BD48
S21400DDF074620200027000F0037000F000C0004081
S21400DE000002040001000C0000C4004000120400E0
S21400DE1001000D0000C800400022040001000E00B2
S21400DE204081040000D2040080B582B000AF786064
S21400DE300B46FB707B6893F83130032B01D1094BFE
S21400DE400CE07B68FA785A75FB78022B02D07B6868
S21400DE50FA781A757868FFF725F8034618460837E3
S21400DE60BD4680BD057000F080B586B000AFF86096
S21400DE70B9607A60F868B9687A68FFF7BDFB386100
S21400DE803B69002B01D03B6972E000BFFB689B6AD0
S21400DE909B889BB2002B05D0FB6893F82E30DBB234
S21400DEA0002BF3D0FB6893F83230002B06D1FB68CA
S21400DEB01B681B6903F002037B610DE0FB6893F8A7
S21400DEC03230012B06D1FB681B689B6803F0020307
S21400DED07B6101E000237B617B69002B02D1F8683F
S21400DEE0FFF708F9FB68012283F83020FB6893F8F7
S21400DEF03230002B18D109E0FB681968BB685A1C41
S21400DF00BA601B78084619460BF072FB7B685A1EEF
S21400DF107A60002BF0D100BFFB681B681B6903F01A
S21400DF202003002BF8D01CE0FB6893F83230012B5E
S21400DF3017D109E0FB681968BB685A1CBA601B78E1
S21400DF40084619460BF03CF87B685A1E7A60002B90
S21400DF50F0D100BFFB681B689B6803F00803002B2A
S21400DF60F8D07B69002B02D1F868FFF707F9002389
S21400DF7018461837BD4680BD80B584B000AF7860BF
S21400DF807B68002B01D11A4B2DE00023FB727B68C7
S21400DF905A6807F10B0310461946FDF79BFBF8601D
S21400DFA0FB68002B1ED1FB7A002B1BD07B6893F8F6
S21400DFB02E30DBB2002B0AD17868FEF709FF034645
S21400DFC0002B04D17B685B681846FDF717FB7B685F
S21400DFD093F82E30DBB20133DAB27B6883F82E205A
S21400DFE0002300E0034B18461037BD4680BD00BF37
S21400DFF0027000F0057000F080B58CB000AFF860DD
S21400E000B9607A603B60F868B9687A68FFF7F4FA36
S21400E010F862FB6A002B01D0FB6A37E0BB68BB6185
S21400E0207B68FB617B683B623B687B62194BBB622B
S21400E030FB68596A07F1180207F1140308461146EF
S21400E0401A46FEF795FFF862FB6A002B01D0FB6AC2
S21400E0501CE0FB6893F82C30DBB283F00103DBB2E4
S21400E060002B12D0F868FFF7BDF87B69F8681946F0
S21400E070FFF730F9FB6893F83130032B05D0FB68C7
S21400E08000221A75F868FEF70DFF00231846303791
S21400E090BD4680BD017000F080B584B000AF7860EA
S21400E0A07B68002B01D11D4B33E00023FB727B689D
S21400E0B05A6807F10B0310461946FDF70BFBF8608C
S21400E0C0FB68002B24D17B6893F82E30DBB2002B44
S21400E0D01ED0FB7A002B1BD07B6893F82E30DBB269
S21400E0E0012B0AD17868FEF773FE0346002B04D195
S21400E0F07B685B681846FDF7B7FA7B6893F82E30A6
S21400E100DBB2013BDAB27B6883F82E20002300E006
S21400E110034B18461037BD4680BD00BF027000F0A6
S21400E120057000F080B58CB000AFF860B9607A601A
S21400E1303B60F868B9687A68FFF75EFAF862FB6ACF
S21400E140002B01D0FB6A39E0BB687B617B68BB6152
S21400E1507B68FB613B683B621A4B7B62FB68996A93
S21400E16007F1140207F11003084611461A46FEF797
S21400E170FFFEF862FB6A002B01D0FB6A1EE0FB681C
S21400E18093F82D30DBB283F00103DBB2002B14D002
S21400E19009F0AEFDB862FB689B6A9B889BB2002BB9
S21400E1A008D03B69F8681946FFF7D2F8FB680122E9
S21400E1B083F83020B86A09F0ABFD002318463037E4
S21400E1C0BD4680BD017000F080B483B000AF03464A
S21400E1D03960FB7197F90730002B0ADB0D4997F978
S21400E1E007303A68D2B25201D2B20B4483F8002309
S21400E1F00AE00949FB7903F00F03043B3A68D2B200
S21400E2005201D2B20B441A760C37BD465DF8047B39
S21400E210704700BF00E100E000ED00E080B582B08E
S21400E22000AF78607B68013BB3F1807F01D30123A8
S21400E2300FE00A4A7B68013B53604FF0FF3007212E
S21400E240FFF7C2FF054B00229A60044B07221A60B4
S21400E250002318460837BD4680BD00BF10E000E02A
S21400E26080B500AF064BD3E90023013243F100032B
S21400E2700349C1E90023034B1B68984780BD00BFD4
S21400E28008420020A80D002080B582B000AF78605C
S21400E2900B4809F073FA02460A4BA3FB02239B09BC
S21400E2A01846FFF7BBFF0346002B00D0FEE7064AE2
S21400E2B07B681360054B01221A700837BD4680BD87
S21400E2C070000200D34D6210A80D0020A40D00209F
S21400E2D080B400AF044BD3E9002310461946BD4670
S21400E2E05DF8047B704700BF0842002080B485B00C
S21400E2F000AF7860124B1B7883F00103DBB2002B73
S21400E30000D017E00F4BD3E900231346FB6000BF95
S21400E3100C4BD3E90001FB681A464FF00003801A45
S21400E32061EB03017B681A464FF00003994208BF71
S21400E3309042EDD31437BD465DF8047B704700BFAE
S21400E340A40D00200842002080B582B000AF03462E
S21400E350FB71FB79034819460BF076F90837BD4682
S21400E36080BD00BF0080084080B500AF01480BF0BC
S21400E370A1F980BD0080084080B582B000AF78600B
S21400E380034879680BF0B8F90837BD4680BD00BF72
S21400E3900080084080B584B000AF114B00221A7090
S21400E3A000233B7100237B710123BB710123FB71AA
S21400E3B000233B7200237B720023BB720023FB7298
S21400E3C008233B733B1D1846FFF7D6FF054B00227C
S21400E3D01A70034B01221A701037BD4680BD00BF6D
S21400E3E0AC0D0020AD0D002080B500AF074B1B78AC
S21400E3F083F00103DBB2002B00D005E0044B0022C3
S21400E4001A700120FFF7A0FF80BD00BFAC0D0020F2
S21400E410AD0D002080B500AF074B1B7883F00103DD
S21400E420DBB2002B00D005E0044B00221A7000205F
S21400E430FFF78AFF80BD00BFAC0D0020AD0D0020A9
S21400E44080B500AF094B1B7883F00103DBB2002BCD
S21400E45000D00AE0054B1B78002B04D0044B1B7839
S21400E460002B00D001E0FFF77FFF80BDAC0D002041
S21400E470AD0D002080B500AF074B1B7883F001037D
S21400E480DBB2002B00D006E0044B01221A7041F2EA
S21400E4908830FFF72BFF80BDAC0D0020AD0D0020AF
S21400E4A080B483B000AF78607B68DB6818460C37B2
S21400E4B0BD465DF8047B704780B582B000AF03466A
S21400E4C0FB71FB79002B05D0064B1B68184611F034
S21400E4D0E9FD04E0044B1B68184601F0B3F9083761
S21400E4E0BD4680BDFC1C00207839002090B587B062
S21400E4F002AF634B1A683B1D1046194612F01AF914
S21400E500604B1B78042B00F2B08001A252F823F077
S21400E51025E500005DE600007FE500007FE50000E1
S21400E5205DE60000584B00221A70554B1A6807F13A
S21400E53008031046194611F00DFEBB68002B18D0D4
S21400E540504B02221A704E4B1A68504B1B68072B12
S21400E550CCBF01230023DBB2DBB25BB21046194608
S21400E56011F032FD494B00221A60474B01221A7007
S21400E5707BE0464B1B680133444A136075E0404B12
S21400E5801968434B1B6807F10E02009308461146B4
S21400E5900022404B12F000F80346002B5DD13D4BA5
S21400E5A01B6803F40043002B05D03A4B1B6823F48A
S21400E5B00043384A1360374B1A6844F2400313404E
S21400E5C0002B24D0334B1B6823F4804323F04003F6
S21400E5D0304A13602B4B03221A70FB891BB205339B
S21400E5E02D4A82FB03129210DB17D31A9AB22B4BDA
S21400E5F01A802B4B5B68184614F040F803469AB214
S21400E600284B1A80264B9B8A9AB2274B1A80214B9E
S21400E6101B6803F00103002B17D0244B1B681C4615
S21400E6202348FFF73DFF0346E31AB3F5804F05D3B3
S21400E630144B00221A700120FFF73EFF154B1B6893
S21400E64023F00103134A136007E01948FFF728FF79
S21400E65003461A46154B1A6007E006E0094B0022EF
S21400E6601A700120FFF728FF00BF064B1B78002B0F
S21400E67014BF01230023DBB218461437BD4690BDF5
S21400E680FC1C0020001D0020081D0020B40D0020EA
S21400E69058000020041D0020676666660A1D0020DC
S21400E6A08C3900200C1D00200E1D0020B00D00200F
S21400E6B00020084090B587B002AF564B1A683B1D45
S21400E6C01046194604F060FE534B1B78042B00F2EC
S21400E6D0958001A252F823F0EDE60000EFE7000077
S21400E6E023E7000023E70000EFE700004B4B002283
S21400E6F01A70484B1A6807F108031046194601F0CD
S21400E7000BF9BB68002B0BD0434B02221A70414B0F
S21400E7101B68184601F036F8404B01221A706DE06F
S21400E7206CE03C4B18683E4B1B6807F10E0107F186
S21400E7300C0200933B4B01F095FF0346002B55D18E
S21400E740384B1B6803F04003002B20D0354B1B686A
S21400E75023F04003334A13602F4B03221A70314BC9
S21400E7601B6803F48063002B11D12E4B1B6803F447
S21400E7700063002B0BD12B4B1B6803F48053002B3C
S21400E78005D1FA89284B1A80BA89284B1A80254B5E
S21400E7901B6803F00103002B05D1224B1B6803F412
S21400E7A08073002B1AD0224B1B681C462148FFF7AB
S21400E7B077FE0346E31AB3F5804F0ED3164B0022BE
S21400E7C01A700020FFF778FE164B1B6823F4807340
S21400E7D023F00103134A136008E007E01548FFF72B
S21400E7E05FFE03461A46124B1A6007E006E00A4B25
S21400E7F000221A700020FFF75FFE00BF064B1B7852
S21400E800002B14BF01230023DBB218461437BD4685
S21400E81090BD00BF783900207C3900208439002064
S21400E8205C000020803900208639002088390020CE
S21400E830141D00200020084080B582B000AF0346BB
S21400E8403960FB71FB79002B03D0386811F0D8FED5
S21400E85002E0386801F03EFF0837BD4680BD00BFC5
S21400E86080B584B000AF1848022109F0C9F81748EF
S21400E870012108F01BFF1548042108F023FE144868
S21400E880012108F013FF01233B7000237B70002357
S21400E890BB700023FB7000233B7100237B710023B9
S21400E8A0BB710023FB7100233B7200237B720023A5
S21400E8B0BB720023FB603B46064819460AF0E8FA9E
S21400E8C01037BD4680BD00BF02001E008026160021
S21400E8D0004302000020084080B582B000AF786098
S21400E8E0084611461A460346FB700B46BB70134695
S21400E8F07B70FFF7B5FFFB78002B32D02C4B2D4AF0
S21400E9001A60786800212A4A11F082FEBB78002B34
S21400E91002D0012B04D007E0274B284A1A6007E0F4
S21400E920254B274A1A6003E0234B244A1A6000BF8F
S21400E930214B224A1A601E4B1A681F4B1B68104652
S21400E940194611F09BFC1A4B1B68184639690022C1
S21400E95011F0F4FE1B4B00221A701B4B00221A808B
S21400E96023E01A4B1A4A1A60184B1A4A5A601A4B76
S21400E970164A1A6078680021174A04F0B1FC7B78C2
S21400E980002B03D1154B164A1A6003E0134B144AAA
S21400E9901A6000BF104B1A68104B1B6810461946C9
S21400E9A001F090F80F4B00221A700837BD4680BD64
S21400E9B0FC1C0020B80D0020F81C00200C000020D5
S21400E9C028000020101D00200C1D00206C3900209F
S21400E9D060230020181D002078390020743900209C
S21400E9E0440000208A39002080B582B000AF03467C
S21400E9F0FB71FB79002B03D0FFF778FD034602E09E
S21400EA00FFF758FE034618460837BD4680BD00BFD0
S21400EA1080B485B000AFB9607A603B600346FB7394
S21400EA20FB7B002B0CD00F4B1A78BB681A700E4B72
S21400EA301A887B681A800D4B1A883B681A800BE090
S21400EA400B4B1A78BB681A70074B1A887B681A80BB
S21400EA50064B1A883B681A801437BD465DF8047B5F
S21400EA60704700BF081D00200A1D002088390020BE
S21400EA708439002090B585B000AF0346FB71FB7962
S21400EA80002B08D0174B1A6807F1080310461946E2
S21400EA9011F050FE07E0144B1A6807F10803104601
S21400EAA0194604F071FCBC681048FFF7F9FC0346F1
S21400EAB09BB2DB439BB22046194600F06DFB034633
S21400EAC0FB81B7F90E30002B09D0FB79002B03D061
S21400EAD0074B01221A7002E0064B01221A70143707
S21400EAE0BD4690BDFC1C0020783900200020084060
S21400EAF0101D00208A39002080B582B000AF034682
S21400EB00FB71FB79002B03D0064B00221A7002E043
S21400EB10054B00221A70FB791846FFF7CDFC083724
S21400EB20BD4680BD001D00207C39002080B584B025
S21400EB3000AF7860FF23FB737868302100F0D4FACA
S21400EB400346FB7397F90F30012B02D100BF002359
S21400EB5008E097F90F30002B03DA97F90F309BB2D5
S21400EB6000E0E9E71BB218461037BD4680BD00BF7F
S21400EB7080B584B000AF78600023FB6000F0FEFC38
S21400EB8000F0FCFC00F0FAFC78680821002200F097
S21400EB9095FA0246FB681344FB6078680921002258
S21400EBA000F08CFA0246FB681344FB60786800F0BD
S21400EBB07FF903461A46FB681344FB607868082111
S21400EBC0002200F07BFA0246FB681344FB6078687C
S21400EBD00421002200F072FA0246FB681344FB6030
S21400EBE078680521002200F069FA0246FB681344A3
S21400EBF0FB6078680621002200F060FA0246FB6897
S21400EC001344FB6078680321002200F057FA02469E
S21400EC10FB681344FB6078682121FF2200F04EFA5F
S21400EC200246FB681344FB6078681821012200F056
S21400EC3045FA0246FB681344FB6000F09FFC7868C8
S21400EC400721172200F03AFA0246FB681344FB60DD
S21400EC50FB689BB21BB218461037BD4680BD00BF8E
S21400EC6080B584B000AF78600B46FB7078682021D2
S21400EC7000F03AFA0346FB81B7F90E30002B01DAB2
S21400EC80FB8958E07868FFF751FF03467B7397F9D6
S21400EC900D30002B03D097F90D309BB24BE0FB787C
S21400ECA0002B00D11AE07868202100F01DFA0346F8
S21400ECB07B7397F90D309BB2B7F90E201BB29A42C0
S21400ECC000D10BE097F90D30002B03DA97F90D30E1
S21400ECD09BB230E097F90D30FB81D3E7FB7878687C
S21400ECE018211A4600F0EAF903467B7397F90D30AF
S21400ECF0002B03D097F90D309BB21CE0FB78002B5D
S21400ED0000D117E07868202100F0EEF903467B7307
S21400ED1097F90D309BB2B7F90E201BB29A4200D07D
S21400ED2008E097F90D30002B03DA97F90D309BB207
S21400ED3001E0E3E700231BB218461037BD4680BD4E
S21400ED4080B582B000AF786078680521FFF788FF4D
S21400ED50034618460837BD4680BD00BF80B582B062
S21400ED6000AF786078680621FFF77AFF03461846FA
S21400ED700837BD4680BD00BF80B582B000AF786062
S21400ED8078680F21FFF76CFF034618460837BD4624
S21400ED9080BD00BF80B584B000AF78600B46FB70C6
S21400EDA0FB7803F01F03DBB2803BFB73FB7B7868CA
S21400EDB01946FFF755FF0346BB81B7F90C30002B09
S21400EDC001D0BB8906E078682E2100F08DF9034655
S21400EDD07B817B891BB218461037BD4680BD00BFBD
S21400EDE080B584B000AF78600B46FB701346BB70EE
S21400EDF07868FFF79BFE0346BB81B7F90C30002B03
S21400EE0001D0BB8941E07868202100F06DF9034607
S21400EE10FB810AE078681821002200F04FF9786834
S21400EE20202100F061F90346FB81B7F90E30002B74
S21400EE30F0DBBB783B72FB7803F01F03DBB2603B72
S21400EE40DBB27B7207F1080378681721022200F014
S21400EE505FF90346BB81B7F90C30002B01D0BB89A4
S21400EE6013E000BF7868202100F03EF90346BB811E
S21400EE70B7F90C20B7F90E309A42F3D0B7F90C3038
S21400EE80002B01DABB8900E000231BB218461037BE
S21400EE90BD4680BD80B582B000AF786078680B2133
S21400EEA0FFF7DEFE034618460837BD4680BD00BFA6
S21400EEB080B584B000AF78600023FB7305E0786807
S21400EEC0302100F011F90346FB73FB7B012BF6D1D2
S21400EED07868202100F008F90346FB73FB7B002BC3
S21400EEE004D100BF7868FFF7D5FF05E078681821E1
S21400EEF0002200F0E3F8EBE77868202100F0F4F851
S21400EF000346FB73FB7B002B0AD000BF78682021EA
S21400EF1000F0EAF80346FB73FB7B012B02D100E00E
S21400EF20EAE700E0D4E700231BB218461037BD46D8
S21400EF3080BD00BF80B485B000AF0346FB710023E0
S21400EF40FB8100237B73FB79072B01D800231CE091
S21400EF50FB791B097B73FB799BB203F00F039BB213
S21400EF6043F010039BB2FB817B7B032B06D9FA8907
S21400EF707B7B043B02FA03F39BB206E0FA897B7BB9
S21400EF80C3F1040342FA03F39BB218461437BD4696
S21400EF905DF8047B704700BF80B485B000AF786032
S21400EFA039607B6803F10473DA003B6813449B0006
S21400EFB0FB60FB681B6818461437BD465DF8047B8B
S21400EFC0704700BF80B483B000AF78600649064B38
S21400EFD0D3F810217B68DB431340C1F810310C379F
S21400EFE0BD465DF8047B70470060004080B483B087
S21400EFF000AF78600649064BD3F810217B681343B0
S21400F000C1F810310C37BD465DF8047B704700BF71
S21400F0100060004080B483B000AF7860044A7B682C
S21400F020C2F818310C37BD465DF8047B704700BF48
S21400F0300060004080B582B000AF03463960FB71C7
S21400F040FB79002B0DD0FB79012B0AD0FB79022B24
S21400F05007D0FB79032B04D0FB79042B01D0FB7976
S21400F060052BFA791346DB0013449B001C3303F18F
S21400F070804303F5C04318463968FFF78DFF034603
S21400F08018460837BD4680BD80B485B000AFF8602E
S21400F090B9607A60002318461437BD465DF8047BD5
S21400F0A0704700BF80B483B000AF7860396000233B
S21400F0B018460C37BD465DF8047B704780B582B0B5
S21400F0C000AF78600B46FB701346BB70FA78BB78CF
S21400F0D0786811461A46012300F058FA0346184687
S21400F0E00837BD4680BD00BF80B584B000AF7860ED
S21400F0F00B46FB70FA7807F10F03786811461A463C
S21400F100012300F07DFAFB7B18461037BD4680BD14
S21400F11080B586B002AFF8607B600B46FB72134684
S21400F120BB72F97ABA7A01230093F8687B6800F01C
S21400F130A7FA034618461037BD4680BD80B500AF17
S21400F140044B5B68012202FA03F31846FFF73AFF06
S21400F15080BD00BF443A002080B500AF0D4B9A78C2
S21400F1600C4B5B6810461946FFF764FF0346002BFE
S21400F17007D1084B5B68012202FA03F31846FFF733
S21400F18049FF044B5B68012202FA03F31846FFF7B7
S21400F1902DFF80BD443A002090B58FB002AF786056
S21400F1A00B467B80444B1B8801339AB2424B1A8035
S21400F1B007F1200400230093786821210D222346BE
S21400F1C000F0ACFA97F82030786821211A46002320
S21400F1D000F0DCF9384B1B883B817B887B81002361
S21400F1E03B7397F820307B7397F822301B029AB255
S21400F1F097F821309BB213439BB29BB2FB8197F8E2
S21400F20024301B029AB297F823309BB213439BB26A
S21400F2109BB23B8297F826301B029AB297F82530AD
S21400F2209BB213439BB29BB27B8297F828301B029B
S21400F2309AB297F827309BB213439BB29BB2BB821D
S21400F24097F82A301B029AB297F829309BB21343DC
S21400F2509BB29BB2FB8297F82C301B029AB297F8AF
S21400F2602B309BB213439BB29BB23B83134B1B7852
S21400F270002B0CD0124B1B887B83124B1B88BB8346
S21400F280114B1B88FB830D4B00221A7005E00023F0
S21400F2907B830023BB830023FB8307F10803786886
S21400F2A0194600F0A7F80346FB85B7F92E30184636
S21400F2B03437BD4690BD00BF4C3A0020BC3B002012
S21400F2C0BE3B0020C03B0020C23B002080B483B081
S21400F2D000AF7860094B01221A707B681A88084BC9
S21400F2E01A807B685A88074B1A807B689A88064B78
S21400F2F01A800C37BD465DF8047B7047BC3B002087
S21400F300BE3B0020C03B0020C23B002080B485B03E
S21400F31000AF7860124B1B88FB810023BB810DE099
S21400F320FB890133FB81BB899BB201339BB2BB8156
S21400F330FB89B3F5B47F01D10023FB81094B1B8801
S21400F340FA899A42ECD1B7F90C30074AA2FB03239C
S21400F3501B0918461437BD465DF8047B704700BF8E
S21400F360B83B0020BA3B0020ABAAAAAA80B584B05E
S21400F37000AF786039600023FB813B68BB60FFF715
S21400F380DDFE194B1A88194B1B889A4203D14FF69B
S21400F390FF73FB8120E00023BB811AE0BB89BA68BB
S21400F3A01344114A12881146114A525CD2B21A709E
S21400F3B00D4B1B8801339AB20B4B1A800A4B1B88E5
S21400F3C0B3F5B47F02D1084B00221A80BB89013303
S21400F3D0BB81BB89172BE1D9FFF7BEFEB7F90E300C
S21400F3E018461037BD4680BDB83B0020BA3B00200B
S21400F3F0503A002080B485B000AF786039603B6832
S21400F400BB600023FB8119E01F4B1B881946FB8954
S21400F410BA6813441A781D4B5A541B4B1B88013389
S21400F4209AB2194B1A80184B1B88B3F5B47F02D1D9
S21400F430154B00221A80FB890133FB81FB89172BB1
S21400F440E2D9134B1A88104B1B889A4214D1104BE2
S21400F4501B8818339AB20E4B1A800D4B1B88B3F5D7
S21400F460B47F06D30A4B1B88A3F5B4739AB2084B35
S21400F4701A804FF0FF3300E0002318461437BD46CD
S21400F4805DF8047B704700BFBA3B0020503A00206E
S21400F490B83B002080B483B000AF7860064B0022F3
S21400F4A01A80064B00221A80002318460C37BD46E9
S21400F4B05DF8047B704700BFB83B0020BA3B0020D5
S21400F4C080B586B000AFF8600B467A607B8100237B
S21400F4D0FB827B68204A1A60FB685B785B00DAB2C6
S21400F4E01D4B5A70FB681A781B4B1A70FB689A788B
S21400F4F0194B9A70FB685B68174A53607B681B68F9
S21400F50018460021FFF7F0FD03467B75124B5B782B
S21400F510C02B08D17B7D462B05D07B7D472B02D0A8
S21400F5204FF6FF73FB820C4B5B78B42B08D17B7DC8
S21400F530432B05D07B7D442B02D04FF6FF73FB8216
S21400F5407B681B681846FFF7A5FFB7F91630184604
S21400F5501837BD4680BD00BF443A002080B483B053
S21400F56000AF7860044BFF225A70002318460C3711
S21400F570BD465DF8047B7047443A002080B500AF76
S21400F5800A20FCF74FFE00BF80BD00BF90B587B0D5
S21400F59002AF7860084611461A460346FB700B46D3
S21400F5A0BB7013467B707B78002B01D0FFF7C6FD3F
S21400F5B0FB783B73BB787B73104B597807F10C02D2
S21400F5C007F1080401230093084611460222234649
S21400F5D0FCF788FB0346FB737B78002B01D0FFF714
S21400F5E0BBFD97F90F30002B02D097F90F3000E0E3
S21400F5F0002318461437BD4690BD00BF443A00208D
S21400F60080B588B002AFF8607A601A460B46FB7287
S21400F6101346BB72BB7A002B01D0FFF78FFDFB7A37
S21400F6203B75164B597807F11402012300930846E0
S21400F630114601227B68FCF755FB0346FB7597F9DC
S21400F6401730012B02D10120FEF750FE97F9173034
S21400F650012BE6D0BB7A002B01D0FFF77DFD97F992
S21400F6601730002B05D07B68FF221A7097F91730E9
S21400F67000E0012318461837BD4680BD443A0020F6
S21400F680B0B58CB002AFF8607B600B46FB721346D9
S21400F690BB7297F83830002B01D0FFF74FFDFB7A8E
S21400F6A03B7600237B620DE07B6A01337A6A7968D9
S21400F6B00A44127807F128010B4403F8102C7B6AE1
S21400F6C001337B62BA7A7B6A9A42EDDC124B597838
S21400F6D0BB7A01331D4607F1180207F11404012313
S21400F6E00093084611462A462346FCF7FBFA0346D3
S21400F6F087F8233097F83830002B01D0FFF72CFD21
S21400F70097F92330002B02D097F9233000E000232E
S21400F71018462837BD46B0BD443A002080B588B0AC
S21400F72002AFF8607B600B46FB721346BB7297F81D
S21400F7302030002B01D0FFF701FDFB7A3B75104B04
S21400F7405978BB7A07F11402009308461146012245
S21400F7507B68FCF7C7FA0346FB7597F82030002B4A
S21400F76001D0FFF7F9FC97F91730002B02D097F974
S21400F770173000E0002318461837BD4680BD00BF8E
S21400F780443A002080B586B000AF786000237B61E5
S21400F7900023BB817B683B613B69D3F81436012BA1
S21400F7A03AD007F10C037868194603F071FD03465A
S21400F7B0002B03D16FF003037B613EE0786800F016
S21400F7C07FF83B699B68002B0AD13B695A683B6906
S21400F7D09B89DBB2104608211A46FFF76FFC1BE038
S21400F7E03B699B89DBB21846FFF7A4FB0346FB8107
S21400F7F03B695A68FB891B0A9BB2DBB2104609219B
S21400F8001A46FFF75BFC3B695A68FB89DBB2104679
S21400F81008211A46FFF752FC3B699B891BB23869E0
S21400F820194600F085FD3B69D3F81436012B04D049
S21400F8303B695B681846FFF79FFA7B6918461837DE
S21400F840BD4680BD80B586B000AF786000237B6182
S21400F8507B683B610023FB8107F10E03786819463D
S21400F86003F016FD0346002B03D16FF003037B6104
S21400F87021E03B699B68002B07D13B695B68184613
S21400F88008210022FFF71AFC0DE03B695B6818466A
S21400F89009210022FFF712FC3B695B681846082125
S21400F8A00022FFF70BFC3B695B681846FFF700FB7E
S21400F8B0786800F01BF87B6918461837BD4680BD8F
S21400F8C080B584B000AF78600023FB607B68BB60C7
S21400F8D0BB685B68184604211D22FFF7EFFBF86043
S21400F8E0FB6818461037BD4680BD00BF80B584B0A3
S21400F8F000AF78600023FB607B68BB60BB685B681A
S21400F900184604210022FFF7D9FBF860FB6818466A
S21400F9101037BD4680BD00BF80B588B000AF7860A8
S21400F92039600023BB617B687B617B695B68184636
S21400F9300121FFF72FFA0346FB747B695B681846C4
S21400F94001211022FFF74CFA7B695B681846FFF727
S21400F95005FA7B695B6818462021FFF7C5FB03465E
S21400F9607B770EE07B695B68184618210022FFF75C
S21400F970A5FB7B695B6818462021FFF7B5FB0346AD
S21400F9807B777B7F5BB2002BECDB7B695B68184682
S21400F9902221FFF7A9FB0346DBB27B737B695B681A
S21400F9A018462321FFF7A0FB0346DBB23B733B7BE5
S21400F9B0DBB21B023B827B7BDBB29AB23B8A1343F1
S21400F9C03B827B695A68FB7C104601211A46FFF78A
S21400F9D007FA3B8A184600F063F80346012B4BD122
S21400F9E07B695B681846FFF7ABF97B695B6818466E
S21400F9F02021FFF779FB03467B770EE07B695B6887
S21400FA00184618210022FFF759FB7B695B681846E9
S21400FA102021FFF769FB03467B777B7F5BB2002BD9
S21400FA20ECDB7B695A687B6993F8D8355B00DBB200
S21400FA302633DBB210461946FFF756FB0346DBB209
S21400FA40FB737B695A687B6993F8D8355B00DBB239
S21400FA502733DBB210461946FFF746FB0346DBB2F8
S21400FA60BB73BB7BDBB21B02FB83FB7BDBB29AB2B6
S21400FA70FB8B1343FB8301E00023FB83FB8B40F2ED
S21400FA80DC52934203D93B6801221A6002E03B68CD
S21400FA9000221A60BB6918462037BD4680BD00BFED
S21400FAA080B483B000AF0346FB80FB88B3F5FA7FD3
S21400FAB001D9002300E0012318460C37BD465DF847
S21400FAC0047B7047F0B591B006AF786039600023CC
S21400FAD07B627B683B620023FB817B68002B03D143
S21400FAE06FF005037B626AE007F10E03786819463B
S21400FAF003F0CEFB0346002B03D16FF003037B62BB
S21400FB005DE03B685B8803F00F039BB23B833B687A
S21400FB105B881BB21B119BB203F00F039BB27B8367
S21400FB203B685B881BB21B129BB203F00F039BB2B1
S21400FB30BB833B68DB8903F00F039BB23B823B68C9
S21400FB40DB891BB21B119BB203F00F039BB27B82B7
S21400FB503B68DB891BB21B129BB203F00F039BB200
S21400FB60BB823B685B8A9AB23B6AA3F844263B6832
S21400FB701A883B689C883B68B3F806C03B68B3F8B5
S21400FB8008E03B685E893B689D893B68188A11B22D
S21400FB9007F1180224B20FFA8CF300930FFA8EF3D3
S21400FBA0019333B202932BB2039307F1100304932D
S21400FBB003B205937868234600F006F878627B6AFD
S21400FBC018462C37BD46F0BD80B588B000AFF8604B
S21400FBD07A601A460B467B8113463B810023BB6145
S21400FBE00023FB83FB687B6100237B8207F1120303
S21400FBF0F868194603F04CFB0346002B03D16FF060
S21400FC000303BB61E5E17B89DBB203F00F03DAB2E5
S21400FC107B6983F8D825B7F90A301B119BB2DBB293
S21400FC2003F00F03DAB27B6983F8D925B7F90A30F7
S21400FC301B129BB2DBB203F00F03DAB27B6983F8C8
S21400FC40DA253B8E1B039AB27B6804331B889BB273
S21400FC501B029BB213449AB27B6802331B889BB28A
S21400FC601B019BB213449AB27B681B889BB2134459
S21400FC709AB27B69A3F8FA257B69B3F8FA257B6903
S21400FC80A3F8FC257B69BA8D9A817B69D3F8143674
S21400FC90012B00F08F817B695B681846FEF768FFD2
S21400FCA003469AB2FB8B13449BB2FB837B68002B04
S21400FCB004D1BB237B770B233B770EE07B680233B4
S21400FCC01B88DBB21B01DAB27B681B88DBB21344ED
S21400FCD07B777B6804331B883B777B695A687B7F1E
S21400FCE010460F211A46FFF7E9F903469AB2FB8B36
S21400FCF013449BB2FB837B695A683B7F10461021F6
S21400FD001A46FFF7DBF903469AB2FB8B13449BB205
S21400FD10FB83B7F90830002B01DA37233B817B6978
S21400FD205A683B89DBB243F01003DBB2DBB2104605
S21400FD3001211A46FFF754F803469AB2FB8B134488
S21400FD409BB2FB83B7F92830002B02DA40F221433E
S21400FD503B857B695A683B8DDBB203F07703DBB2E9
S21400FD60104602211A46FFF73BF803469AB2FB8B71
S21400FD7013449BB2FB837B695A68B7F928301B1281
S21400FD809BB2DBB203F00703DBB2104603211A4630
S21400FD90FFF726F803469AB2FB8B13449BB2FB830D
S21400FDA07B695B68184603210122FFF787F9034643
S21400FDB09AB2FB8B13449BB2FB837B695B68184645
S21400FDC005210022FFF77AF903469AB2FB8B13440B
S21400FDD09BB2FB837B695B68184606210022FFF70F
S21400FDE06DF903469AB2FB8B13449BB2FB837B6987
S21400FDF05A683B8EDBB210460B211A46FEF7F0FF20
S21400FE0003469AB2FB8B13449BB2FB837B695A680A
S21400FE10BB8EDBB210460C211A46FEF7E1FF034606
S21400FE209AB2FB8B13449BB2FB837B695A68BB8FE9
S21400FE30DBB2104605211A46FEF7D2FF03469AB2F9
S21400FE40FB8B13449BB2FB837B695A68BB6B1B8896
S21400FE50DBB2104607211A46FEF7C2FF03469AB2E7
S21400FE60FB8B13449BB2FB837B695A68BB6B0233E4
S21400FE701B88DBB2104608211A46FEF7B1FF034680
S21400FE809AB2FB8B13449BB2FB837B695A68BB6BAD
S21400FE9004331B88DBB2104609211A46FEF7A0FF82
S21400FEA003469AB2FB8B13449BB2FB837B695B6869
S21400FEB0184612210022FEF793FF03469AB2FB8BE8
S21400FEC013449BB2FB837B695A683B8EDBB21046B9
S21400FED01E211A46FEF784FF03469AB2FB8B134494
S21400FEE09BB2FB837B695A68BB8EDBB203F02003B0
S21400FEF0DBB210461F211A46FEF772FF03469AB27F
S21400FF00FB8B13449BB2FB837B695A68BB6B1B88D5
S21400FF10DBB210460E211A46FEF762FF03469AB27F
S21400FF20FB8B13449BB2FB837B699B68002B1AD127
S21400FF307B695B68184608210022FFF7BFF8034676
S21400FF409AB2FB8B13449BB2FB837B695B681846B3
S21400FF5009210822FFF7B2F803469AB2FB8B134436
S21400FF609BB2FB8319E07B695B6818460921002277
S21400FF70FFF7A4F803469AB2FB8B13449BB2FB83AD
S21400FF807B695B68184608210022FFF797F803464E
S21400FF909AB2FB8B13449BB2FB837B695B68184663
S21400FFA00A210822FFF78AF803469AB2FB8B13440D
S21400FFB09BB2FB83B7F92C30F868194600F0B8F905
S21400FFC0B861BB6903EAE373BB61BB69002B00D071
S21400FFD000BFB7F91E3018462037BD4680BD00BFAB
S21400FFE080B586B000AF78600023FB607B68BB609E
S21400FFF000237B612FE0BA687B6910335B001344F3
S21401000000225A80BB681B68002B21D0BB681B6886
S2140100107A696C32002123F81210BB681A687B6972
S21401002003F29C535B00134400229A80BB681A6853
S2140100307B6903F541735B00134400225A80BB6859
S2140100401A687B6903F634035B0013440022DA80E6
S2140100507B6901337B617B69B3F5267FCBDD0023AA
S2140100607B617FE000233B6176E0B9687A691346DD
S2140100705B0013443A69134403F5AB73002241F85D
S2140100802320B9687A6913465B0013443A6913441E
S21401009003F5AF739B000B4400225A60B9687A6976
S2140100A013465B0013443A69134403F5B473002204
S2140100B041F82320BB681B68002B4AD0BB6819682F
S2140100C07A6913465B0013443A691344002241F8E7
S2140100D02320BB6819687A6913465B0013443A69A2
S2140100E0134408339B000B4400225A60BB6819680E
S2140100F07A6913465B0013443A69134412330022AB
S21401010041F82320BB6819687A6913465B001344DB
S2140101103A6913441A339B000B4400225A60BB68A9
S21401012019687A6913465B0013443A69134422330B
S2140101309B000B4400229A60BB6819687A691346D3
S2140101405B0013443A6913442C339B000B44002292
S2140101505A603B6901333B613B69022B85DD7B6954
S21401016001337B61BB681B8A1AB27B699A423FF7EF
S21401017079AF00237B6109E0BB687A6902F54072BA
S214010180002123F812107B6901337B617B69072B01
S214010190F2DDBB680022A3F8CA25BB680022A3F8DB
S2140101A0CC25BB680022A3F85425BB68012283F83E
S2140101B0FE25BB6893F8D8359B000F2202FA03F39D
S2140101C09AB2BB68A3F82C26BB681B68002B68D0C4
S2140101D0BB68B3F82C3699B2BB6893F8DA359B0046
S2140101E00F2202FA03F398B2BB6893F8D9359B0045
S2140101F00F2202FA03F39BB2024613439BB20A464E
S21401020013439BB29AB2BB68A3F82C2600237B61EA
S21401021014E0BB681A687B6903F52D635B00134421
S2140102200022DA80BB681A687B6903F6D8235B0074
S21401023013440022DA807B6901337B617B69072BDB
S214010240E7DDBB681B6803F5AD5300221A80BB6867
S2140102501B6803F5AD53043300221A80BB681B6884
S21401026003F5AE53063300221A80BB681B6803F5FC
S214010270AE53083300221A80BB681B6803F5AE53E1
S2140102800A3300221A80BB681B6803F5AE530C3391
S21401029000221A80BB681B6803F5AE530E3300229A
S2140102A01A80BB680022A3F81826BB680022A3F8B0
S2140102B01A26BB680022A3F82226BB680022A3F8F0
S2140102C02626BB680022A3F82826BB680022A3F8CE
S2140102D03026BB680022A3F83226BB680022A3F8AA
S2140102E02026BB680022C3F81C26BB68F82283F8C8
S2140102F03526BB680022A3F83626BB680022A3F881
S2140103004226BB680122A3F83826BB680022C3F840
S2140103103C26BB68D3F81436002B04D1BB685B6857
S2140103201846FFF7B7F8FB6818461837BD4680BD74
S21401033080B584B000AF78600B467B800023FB60FD
S2140103407B68BB60BB68012283F8FF25B7F90230E2
S214010350B32B0CDDB7F90230BC2B08DCBB680922D5
S21401036083F8FF25BB68854AC3F810260FE0B7F966
S2140103700230A32B0BDDB7F90230A82B07DCBB68D4
S214010380042283F8FF25BB687D4AC3F81026B7F917
S2140103900230843B382B00F2E78001A252F823F0AA
S2140103A08504010069050100690501006905010070
S2140103B0690501006905010069050100690501007B
S2140103C0690501006905010069050100690501006B
S2140103D0690501006905010069050100690501005B
S2140103E0690501006905010069050100690501004B
S2140103F0690501006905010069050100690501003B
S214010400690501006905010069050100690501002A
S21401041069050100690501008504010069050100FF
S21401042085040100850401006905010069050100D4
S21401043085040100690501006905010069050100DF
S21401044069050100690501006905010069050100EA
S21401045085040100690501006905010069050100BF
S21401046085040100690501006905010069050100AF
S214010470850401006905010069050100690501009F
S21401048085040100BB6840F2B632DA81BB680322FC
S2140104901A82BB683B4A5A6146F29C72BB685A8212
S2140104A000BFBB68DB891BB20533374A82FB0312E8
S2140104B09210DB17D31A9AB2BB681A83BB68DB8922
S2140104C01BB25A1D13461B019B1A9B002E4A82FB28
S2140104D003129210DB17D21A2D231BB292FBF3F3F1
S2140104E09BB2013B9BB29AB2BB685A83BB68DB895D
S2140104F01BB25A1D13461B019B1A9B00224A82FB04
S21401050003129210DB17D21AC8231BB292FBF3F325
S2140105109BB201339BB29AB2BB689A837868FFF7A5
S2140105205FFDBB684FF48072A3F8C425BB684FF427
S2140105308072A3F8C625BB684FF48072A3F8C8255D
S214010540BB6840F2DC52A3F8D225BB680F22A3F8A1
S214010550D625BB68B3F8D2359BB25B429BB29AB242
S214010560BB68A3F8D42503E06FF00103FB6000BF6E
S214010570FB6818461037BD4680BD00BF9C6202006E
S2140105801C630200600000206766666690B58DB049
S21401059002AFF860B9607A603B6000237B62FB685B
S2140105A03B62FB6B0A337B61FB6B0C33BB61FB6B02
S2140105B00E33FB61FB6B59883B6A93F8D8359B0079
S2140105C007F12802134453F8143C1A883B6A93F83F
S2140105D0DA359B0007F12800034453F8143C1C88C5
S2140105E03B6A93F8D9359B0007F12800034453F87A
S2140105F0143C1B880093BB6B0193F868234600F0FC
S214010600F5F878627B6A03EAE3737B627B6A002B08
S21401061000D021E0F868B9683A68BB6B01F09CFC31
S21401062078627B6A03EAE3737B627B6A002B00D005
S21401063012E03B6A1B68002B0ED0F86879683A68AE
S214010640BB6B02F031FA78627B6A03EAE3737B6282
S2140106507B6A002B00D000BF7B6A18462C37BD464C
S21401066090BD00BF80B58CB002AFF860B9607A600B
S2140106703B6000237B6207F11003F868194600F01F
S21401068095F878627B6A03EAE3737B627B6A002BE8
S21401069000D01AE03B6B009307F110030193F86852
S2140106A0B9687A683B68FFF771FF7862FB8A18467B
S2140106B0FFF7F6F90346002B07D13B681B6843F4A6
S2140106C0807343F001033A6813607B6A1846283743
S2140106D0BD4680BD80B582B000AF786078680449B9
S2140106E015F04CF9002318460837BD4680BD00BFFB
S2140106F04C63020080B584B000AF78603960002397
S214010700FB6000237B8107F10A037868194602F033
S214010710BFFD0346002B03D16FF00303FB603FE0F0
S2140107207B891BB2323B152B36D801A252F823F037
S2140107309107010099070100990701009907010037
S214010740990701009907010099070100990701001F
S214010750990701009907010099070100990701000F
S214010760990701009907010099070100890701000F
S214010770890701008907010091070100910701001F
S21401078091070100910701003B6800221A6007E00B
S2140107903B6801221A6003E06FF00303FB6000BFB1
S2140107A0FB6818461037BD4680BD00BF80B584B0D3
S2140107B000AF786039600023FB607B68BB60BB6874
S2140107C05B681846FEF7A2FD0346002B06DDBB68F4
S2140107D05B6818463968FEF7C9FD02E06FF0020350
S2140107E0FB60FB6818461037BD4680BD90B58DB0DE
S2140107F000AFF860084611461A4603467B810B4651
S2140108003B811346FB8000233B62FB68FB617B89CF
S2140108107B833B89FB853B893B83FB69B3F81A36AF
S2140108203B2B00F2A680FB69B3F81A3601339AB265
S214010830FB69A3F81A26FB69B3F818367A8B9A4235
S21401084018D9FB69B3F81A36022B13D9FB69D3F80A
S2140108501C267B8BF969B1F818165B1A1A44FB69DA
S214010860C3F81C26FB69B3F8203601339AB2FB693C
S214010870A3F82026FB69B3F82036032B79D9FB6948
S214010880B3F844361A46FB69B3F8203603FB02F286
S214010890FB69D3F81C36AE4981FB03018910DB17CF
S2140108A0CB1A92FBF3F39AB2FB69DA81FB69DB8917
S2140108B09BB2FA6992F8FF2592B202FB03F39BB250
S2140108C09AB2FB69DA81FB69DB891BB20533A04A60
S2140108D082FB03129210DB17D31A9AB2FB691A83B2
S2140108E0FB69DB891BB25A1D13461B019B1A9B0031
S2140108F0974A82FB03129210DB17D21A2D231BB2E2
S21401090092FBF3F39BB2013B9BB29AB2FB695A830B
S214010910FB69DB891BB25A1D13461B019B1A9B0000
S2140109208B4A82FB03129210DB17D21AC8231BB222
S21401093092FBF3F39BB201339BB29AB2FB699A83A3
S2140109404FF49672FB691A84FB695B8B1BB2FA69DA
S214010950128C12B202FB03F37E4A82FB031252117F
S214010960DB17D31A9AB2FB69DA83FB693C22A3F838
S2140109701A26FB69B3F81A363C2B3DD1FB69B3F84E
S21401098018367A8B9A4237D9FB6993F8FF35012BD3
S21401099032D1FB69B3F82836022B2DD0FB69B3F8A8
S2140109A02836042B28D0FB69B3F82836082B23D029
S2140109B0FB69DB891BB2462202FB03F1FB69B3F834
S2140109C044361A4613469B0013445B0018467B8B3D
S2140109D0FA69B2F818269B1A90FBF3F213461B012C
S2140109E09B1A5B000B445B4A82FB03125211DB1716
S2140109F0D31A9AB2FB69DA81FB697A8BA3F81826B7
S214010A00FB6993F8FE3503F00203002B00F0F48037
S214010A10FB69B3F83036312B00F2EE80FB69B3F890
S214010A20303601339AB2FB69A3F83026FB69B3F876
S214010A30CE353A8B9A4206D2FB69B3F8CE253B8B6C
S214010A40D31A9BB205E0FB69B3F8CE353A8BD31ABD
S214010A509BB2BB85FB69B3F8CE353F4AA2FB0323A5
S214010A601B099BB2BA8D9A4205D8FB69B3F830369A
S214010A70322B40F0C180FB69B3F8C4351A46FB69D6
S214010A80B3F8CE3503FB02F23B8B92FBF3F39AB23B
S214010A90FB69A3F8C425FB691B68002B1CD0FB6906
S214010AA093F8D825FB6993F8DA359A4206D1FB69A3
S214010AB0B3F8C425FB69A3F8C6250DE0FB6993F8D6
S214010AC0D825FB6993F8D9359A4205D1FB69B3F865
S214010AD0C425FB69A3F8C825FB6993F8FE3583F0A6
S214010AE00203DAB2FB6983F8FE25FB690022A3F84C
S214010AF030260023BB8518E0BA8DB98DFB6901F558
S214010B00407133F8113019463B8B03FB01F3F96949
S214010B10B1F8CE1593FBF1F399B2FB6902F5407279
S214010B2023F81210BB8D0133BB85BB8D072BE3D990
S214010B30FB691B68002B5FD0FB6993F8D825FB691E
S214010B4093F8DA359A422BD10023BB8524E000BF07
S214010B50676666661F85EB51CDCCCCCCFB691A68FF
S214010B60B98DFB691868BB8D03F52D635B000344E3
S214010B70DB8818463B8B03FB00F3F869B0F8CE051B
S214010B8093FBF0F398B201F52D635B001344024624
S214010B90DA80BB8D0133BB85BB8D072BDED92BE0FD
S214010BA0FB6993F8D825FB6993F8D9359A4223D186
S214010BB00023BB851DE0FB691A68B98DFB691868BF
S214010BC0BB8D03F6D8235B000344DB8818463B8BBA
S214010BD003FB00F3F869B0F8CE0593FBF0F398B287
S214010BE001F6D8235B0013440246DA80BB8D01333D
S214010BF0BB85BB8D072BDED9FB693A8BA3F8CE25C7
S214010C000023BB850FE0BA8DBB8D591CFB6901F52E
S214010C10407133F81110FB6902F5407223F8121087
S214010C20BB8D0133BB85BB8D062BECD9BA8DFB6919
S214010C3002F54072F98D23F81210FB691B68002B30
S214010C403FD00023BB8526E0FB691A68B98DFB6996
S214010C501868BB8D013303F52D635B000344D88808
S214010C6001F52D635B0013440246DA80FB691A68BE
S214010C70B98DFB691868BB8D013303F6D8235B0079
S214010C800344D88801F6D8235B0013440246DA8071
S214010C90BB8D0133BB85BB8D062BD5D9FB691A6885
S214010CA0BB8D03F52D635B001344FA88DA80FB697C
S214010CB01A68BB8D03F6D8235B001344B7F84020AF
S214010CC0DA8000233B8500F0FABD3B8D002B1ED158
S214010CD0FB6993F8FF35012B40F2A680FB69B3F858
S214010CE00636FB85FB691B68002B00F09D80FB69BF
S214010CF01B6803F5AD530C331B88FB80FB691B682F
S214010D0003F5AD531C331B88A7F840308CE0002355
S214010D107B6200237B851AE07A8DFB6902F54072BF
S214010D2033F812301846FB69D3F810263B8D013B89
S214010D30D9007B8D0B445B0013441B881BB203FB5D
S214010D4000F37A6A13447B627B8D01337B857B8D4E
S214010D50072BE1D97B6A002B03DB7B6ADB139BB293
S214010D6000E00023FB85FB691B68002B5CD0002399
S214010D707B6200237B851CE0FB691A687B8D03F58B
S214010D802D635B001344DB881846FB69D3F81026F5
S214010D903B8D013BD9007B8D0B445B0013441B88C4
S214010DA01BB203FB00F37A6A13447B627B8D01332B
S214010DB07B857B8D072BDFD97B6A002B03DB7B6A68
S214010DC0DB139BB200E00023FB8000237B62002341
S214010DD07B851CE0FB691A687B8D03F6D8235B00D4
S214010DE01344DB881846FB69D3F810263B8D013B7C
S214010DF0D9007B8D0B445B0013441B881BB203FB9D
S214010E0000F37A6A13447B627B8D01337B857B8D8D
S214010E10072BDFD97B6A002B03DB7B6ADB139BB2D4
S214010E2000E00023A7F84030FB8D3B83FB8DFA6979
S214010E30B2F8C42502FB03F31B12FB85F98DFB698F
S214010E40B3F854351BB210335B00FA6913449A1C8D
S214010E50FB6903F5AB63F86800F092FDFB691B685C
S214010E60002B6FD0FB88A3F58073FA69B2F8C6250C
S214010E7002FB03F31B12FB82B7F84030A3F5807325
S214010E80FA69B2F8C82502FB03F31B12BB82F98A82
S214010E90FB691A68FB691B6803F5AD531B881BB217
S214010EA06C335B001A44FB691B68F86800F068FD48
S214010EB0B98AFB691A68FB691B6803F5AD531B8881
S214010EC01BB203F541735B0013449A1CFB691B6854
S214010ED06C33F86800F054FDFB691A68FB691B68FF
S214010EE003F5AD531B881BB203F29C535B001344FE
S214010EF0FA8A9A80FB691A68FB691B6803F5AD5389
S214010F001B881BB203F634035B001344BA8ADA80EB
S214010F10FB691B6803F5AD52128892B2013292B298
S214010F2091B203F5AD52118003F5AD531B881BB288
S214010F3040F29922934205D1FB691B6803F5AD5334
S214010F4000221A80FB69B3F8223601339AB2FB6994
S214010F50A3F82226FB69B3F822364FF6FF729342B6
S214010F6007D1FB69B3F82236013B9AB2FB69A3F8B5
S214010F7022263B8B40F2DC5293428CBF0123002396
S214010F80DBB21A46FB69B3F8283603F002031343B3
S214010F90002B00F0F081FB69B3F82836002B08D14E
S214010FA0FB690022A3F82226FB690122A3F8282662
S214010FB0DCE1FB69B3F82836012B40F01981FB69A7
S214010FC0B3F826363A8B9A4206D9FB69B3F8263629
S214010FD03A8BD31A9BB205E0FB69B3F826263B8B06
S214010FE0D31A9BB2BB85BB8D132B00F2BF81FB6965
S214010FF0B3F822361946FB69DB891BB25B007B4AD4
S21401100082FB03025211DB17D31A994240F3AE81D9
S214011010FB6993F8FF35012B3FD9FB698422A3F8BE
S2140110203226FB6993F8FF25FB6983F83426FB69B2
S214011030012283F8FF25FB69D3F81436002B2CD147
S214011040FB699B68002B0BD1FB695A68FB69B3F8F7
S2140110503236DBB2104608211A46FEF72FF81CE09E
S214011060FB69B3F83236DBB21846FDF763FF034679
S2140110707B82FB695A687B8A1B0A9BB2DBB21046ED
S21401108009211A46FEF71AF8FB695A687B8ADBB211
S214011090104608211A46FEF711F8FB690222A3F84A
S2140110A028260023BB850AE0BB8DFA6903F53B734E
S2140110B05B00134400229A80BB8D0133BB85BB8D38
S2140110C00E2BF1D9FB69B3F82226FB69A3F8242677
S2140110D0FB690F22A3F82E26FB69B3F8FA25FB69F4
S2140110E0B3F82C36DB439BB213409AB2FB69A3F8E4
S2140110F02A26FB69B3F82A369AB2FB69B3F82E366C
S2140111001946FB6993F8D8359B0001FA03F39BB2A5
S21401111013439BB29AB2FB69A3F82A26FB691B68A4
S214011120002B32D0FB69B3F82A369AB2FB69B3F8C2
S2140111302E361946FB6993F8DA359B0001FA03F35C
S21401114099B2FB69B3F82E361846FB6993F8D93580
S2140111509B0000FA03F39BB20B439BB213439BB273
S2140111609AB2FB69A3F82A260023BB850AE0FB692D
S2140111701B68BA8D02F6E822002123F81210BB8DF7
S2140111800133BB85BB8D1D2BF1D9FB69D3F8143612
S214011190002B40F0EB80FB69B3F82C36DBB2002B5A
S2140111A00AD0FB695A68FB69B3F82A36DBB21046E7
S2140111B00F211A46FDF782FFFB69B3F82C3603F4BC
S2140111C07063002B00F0D280FB695A68FB69B3F8A4
S2140111D02A361B0A9BB2DBB203F00F03DBB21046C2
S2140111E010211A46FDF76AFFC0E000BF1F85EB51CC
S2140111F0FB69B3F82836022B40F0B880FB69B3F8D8
S21401120022361A46FB69B3F82436D31A012B40F36B
S214011210AD80FB69B3F82E36013BFA6903F53B73E3
S2140112205B0013443A8B9A80FB691B68002B16D02F
S214011230FB691B68FA69B2F82E26013A02F6E82223
S214011240F98823F81210FB691B68FA69B2F82E2692
S2140112500E3202F6E822B7F8401023F81210FB69A6
S214011260B3F82E36012B7DD9FB69B3F82E36013B38
S2140112709AB2FB69A3F82E26FB69B3F8FA25FB6937
S214011280B3F82C36DB439BB213409BB29AB2FB6990
S214011290B3F82E361946FB6993F8D8359B0001FA48
S2140112A003F39BB213439BB29AB2FB69A3F82A26B7
S2140112B0FB691B68002B21D0FB69B3F82A369AB26A
S2140112C0FB69B3F82E361946FB6993F8DA359B00AD
S2140112D001FA03F399B2FB69B3F82E361846FB6997
S2140112E093F8D9359B0000FA03F39BB20B439BB2EC
S2140112F013439BB29AB2FB69A3F82A26FB69D3F87B
S2140113001436002B27D1FB69B3F82C36DBB2002B41
S2140113100AD0FB695A68FB69B3F82A36DBB2104675
S2140113200F211A46FDF7CAFEFB69B3F82C3603F403
S2140113307063002B0FD0FB695A68FB69B3F82A3635
S2140113401B0A9BB2DBB203F00F03DBB2104610217F
S2140113501A46FDF7B3FEFB69B3F82226FB69A3F82C
S214011360242603E0FB690422A3F82826FB693A8BAE
S214011370A3F8262644E0FB690022A3F82626FB698B
S214011380B3F82836102B3BD1FB69B3F822360A2B6B
S21401139036D9FB69B3F8FC25FB69A3F8FA25FB6986
S2140113A0D3F81436002B27D1FB69B3F82C36DBB201
S2140113B0002B0AD0FB695A68FB69B3F8FA35DBB231
S2140113C010460F211A46FDF779FEFB69B3F82C3655
S2140113D003F47063002B0FD0FB695A68FB69B3F8FE
S2140113E0FA351B0A9BB2DBB203F00F03DBB21046E1
S2140113F010211A46FDF762FEFB690022A3F8282693
S214011400FB69B3F82836042B40F0E480FB6903F24D
S214011410DC53184600F064FA0346BB85FB69B3F853
S214011420FA25FB69B3F82C36DB439BB213409BB21B
S21401143099B2BB8D5A1CFB6993F8D8359B0002FA0A
S21401144003F39BB20A4613439BB29AB2FB69A3F815
S214011450FA25BB8DFA6903F53B735B0013449B8841
S2140114601A46A84B93FBF2F39AB2FB69A3F8C4257C
S214011470FB691B68002B78D0FB6993F8DA25FB69BA
S21401148093F8D8359A422DD0FB691B6803F5AE5305
S2140114901033184600F024FA0346BB85FB69B3F8FF
S2140114A0FA3599B2BB8D5A1CFB6993F8DA359B0065
S2140114B002FA03F39BB20A4613439BB29AB2FB6944
S2140114C0A3F8FA25FB691B68BA8D02F6E82233F801
S2140114D012301A468B4B93FBF2F39AB2FB69A3F8D0
S2140114E0C62505E0FB69B3F8C425FB69A3F8C62544
S2140114F0FB6993F8D925FB6993F8D8359A422ED023
S214011500FB691B6803F5AF530E33184600F0E8F984
S2140115100346BB85FB69B3F8FA3599B2BB8D5A1CF5
S214011520FB6993F8D9359B0002FA03F39BB20A468E
S21401153013439BB29AB2FB69A3F8FA25FB691B68B1
S214011540BA8D0F3202F6E82233F812301A466D4B86
S21401155093FBF2F39AB2FB69A3F8C82505E0FB6991
S214011560B3F8C425FB69A3F8C825FB69D3F814367C
S214011570002B27D1FB69B3F82C36DBB2002B0AD03F
S214011580FB695A68FB69B3F8FA35DBB210460F21DE
S2140115901A46FDF793FDFB69B3F82C3603F4706326
S2140115A0002B0FD0FB695A68FB69B3F8FA351B0AA2
S2140115B09BB2DBB203F00F03DBB2104610211A46D2
S2140115C0FDF77CFDFB690822A3F82826FB690022AB
S2140115D0A3F82226FB69B3F8CC359BB201339BB244
S2140115E09AB2FB69A3F8CC25FB69B3F8CC351BB2DC
S2140115F042F2107293420ADDFB69B3F8CC359BB216
S2140116009BB2013B9BB29AB2FB69A3F8CC25FB695E
S214011610B3F82836022B0AD0FB69B3F82836042B18
S21401162005D0FB69B3F82836082B40F0CA80FB6961
S214011630B3F82836082B40F0C380FB69B3F832367E
S2140116401BB2002B40F3B780FB69B3F82236032B9D
S21401165040F2B680FB690022A3F83226FB6993F8B4
S2140116603426FB6983F8FF2500237B851BE07A8DF2
S214011670FB69B3F8FA351946FB6993F8D8359B0030
S21401168041FA03F303F00F03013BF96903F53B73DA
S2140116905B000B449988FB6902F5407223F812102F
S2140116A07B8D01337B857B8D072BE0D9FB691B681E
S2140116B0002B4BD000237B851EE0FB691A687B8DCF
S2140116C0F9690968F869B0F8FA050446F86990F806
S2140116D0DA05800044FA00F000F00F00013800F649
S2140116E0E82031F8101003F52D635B0013440A4619
S2140116F0DA807B8D01337B857B8D072BDDD900233B
S2140117007B8520E000204E00FB691A687B8DF96915
S2140117100968F869B0F8FA050446F86990F8D90539
S214011720800044FA00F000F00F000E3000F6E820CA
S21401173031F8101003F6D8235B0013440A46DA800A
S2140117407B8D01337B857B8D072BDDD9FB69D3F838
S2140117501436002B2AD1FB699B68002B0AD1FB6942
S2140117605A68FB699B89DBB2104608211A46FDF7C9
S214011770A5FC1BE0FB699B89DBB21846FDF7DAFB8B
S21401178003467B82FB695A687B8A1B0A9BB2DBB2E3
S214011790104609211A46FDF791FCFB695A687B8AB7
S2140117A0DBB2104608211A46FDF788FCFB691022B9
S2140117B0A3F8282619E0FB691022A3F8282614E0CE
S2140117C013E0FB69B3F82836102B05D1FB69B3F893
S2140117D02236092B00D808E03B8B40F2DB529342BD
S2140117E003D8FB690022A3F8CC25FB69B3F8CA35F8
S2140117F09BB29BB201339BB29AB2FB69A3F8CA258E
S2140118007B6C002B42D0FB69DB891BB2FA6992F82C
S214011810FF2593FBF2F39AB27B6C1A80FB69DA8B95
S2140118207B6C5A80FB691B8B1BB2FA6992F8FF2509
S21401183093FBF2F39AB27B6C9A807B6C3A8BDA80DC
S2140118407B6CFA8D1A81FB6993F8FF257B6C83F814
S21401185024203B8D7A6C04335B0013443A8B5A8008
S214011860398DFB69B3F854351BB2FA6910335B0046
S214011870134458887A6C01F110035B001344024646
S214011880DA80FB69B3F8FA257B6C5A84FB69B3F8F6
S21401189054359BB201339BB29AB2FB69A3F8542527
S2140118A0FB69B3F854351BB240F29922934203D137
S2140118B0FB690022A3F854253B8D01333B85FB6968
S2140118C093F8FF359BB23A8D9A42FFF4FEA9FB6965
S2140118D0FA8DA3F8D0253B6A18463437BD4690BD2D
S2140118E080B485B000AF78600023BB810023FB8104
S2140118F010E0BB895B007A6813441A88FB895B0099
S21401190079680B441B889A4201D2FB89BB81FB890B
S2140119100133FB81FB890E2BEBD9BB895B007A680F
S21401192013441B8840F2DB52934206D8BB895B0006
S2140119307A68134440F2DC521A800023FB810CE0E3
S214011940FB895B007A6813441B8842F22832934273
S21401195000D906E0FB890133FB81FA89BB899A42EB
S214011960EED9FA89BB8901339A4201D1BB89FB8141
S214011970FB8918461437BD465DF8047B704700BFE7
S214011980B0B594B000AFF860B9607A603B6047F6D6
S214011990FF73FB830023FB6400233B630023BB61CF
S2140119A0FB687B617B6903F5AB623B689A4212D1A7
S2140119B041F27073BB85012387F82F307B6903F2F0
S2140119C036637B627B6903F242633B627B69B3F8F1
S2140119D0C4357B8550E07B691B68002B21D07B6971
S2140119E01B681A463B689A421BD17B691B68002B11
S2140119F016D0934B1B88BB85022387F82F307B6953
S214011A001B6803F5AE5306337B627B691B6803F5DF
S214011A10AE5308333B627B69B3F8C6357B852BE052
S214011A202AE07B691B68002B22D07B691B6803F1C7
S214011A306C023B689A421BD17B691B68002B16D04F
S214011A407F4B1B88BB85042387F82F307B691B6877
S214011A5003F5AE530A337B627B691B6803F5AE530D
S214011A600C333B627B69B3F8C8357B8504E003E041
S214011A706FF00503FB6469E2BA8DBB689A4211DD1B
S214011A807B6993F83536DAB297F82F30DB43DBB251
S214011A901340DBB2DAB27B6983F835267B6A002213
S214011AA01A80A9E07B6993F8352697F82F30134002
S214011AB0DBB2002B40F0A0807B6A1B8801339AB210
S214011AC07B6A1A803B6A1B881A46BB689A4207DA09
S214011AD0BB689AB23B6A1B88D31A9BB29BB206E0DC
S214011AE03B6A1A88BB689BB2D31A9BB29BB2A7F813
S214011AF04A30B7F94A107A8D13469B0013445B00AF
S214011B001B12994278DA7B6A1B8819467B69DB8946
S214011B101AB213469B0013445B004A4A82FB030237
S214011B205211DB17D31A994266DD7B6993F8352685
S214011B3097F82F301343DAB27B6983F835260023F2
S214011B40A7F84A303CE00023A7F848302DE0B7F963
S214011B504A20B7F94800396813465B00134403442A
S214011B60002241F82320B7F94A20B7F9480039681E
S214011B7013465B001344034408339B000B440022C6
S214011B805A60B7F94A20B7F94800396813465B002E
S214011B90134403441233002241F82320B7F8483097
S214011BA09BB201339BB2A7F84830B7F94830022BF5
S214011BB0CDDDB7F84A309BB201339BB2A7F84A3065
S214011BC07B691B8AB7F94A201BB29A42BBDB00230A
S214011BD0A7F848300CE0B7F948203B68B96843F8E5
S214011BE02210B7F848309BB201339BB2A7F84830B1
S214011BF0B7F94830022BEEDD7B6993F8352697F866
S214011C002F301340DBB2002B08D1BB689AB23B6A77
S214011C101A807B6800221A80FB6C98E17B695B69FD
S214011C20FB637B695B690C333B64BB687B640023A5
S214011C30A7F84A3075E10223A7F8483056E000BFFE
S214011C40AE0000201F85EB51B7F94A20B7F948408E
S214011C50B7F94A10B7F948305D1E38680B465B0085
S214011C600B442B4450F82300396813465B00134499
S214011C70234441F82300B7F94A20B7F94840B7F999
S214011C804A10B7F948305D1E38680B465B000B44B6
S214011C902B4408339B0003445968386813465B009D
S214011CA01344234408339B0003445960B7F94A2080
S214011CB0B7F94840B7F94A10B7F948305D1E386899
S214011CC00B465B000B442B44123350F82300396853
S214011CD013465B0013442344123341F82300B7F83C
S214011CE048309BB2013B9BB2A7F84830B7F9483061
S214011CF0002BA9DCB7F94A20396813465B00134468
S214011D009B000B447A6C1A600023BB6300237B6341
S214011D100023A7F848304CE0B7F94A20B7F9480045
S214011D20396813465B001344034451F823301846C0
S214011D3013F063FD0346B3F5804F19DAB7F948305F
S214011D409B00FA6B13441968B7F94A20B7F9484063
S214011D50386813465B001344234450F8233003FBD2
S214011D6001F31B1101335B10BA6B1344BB6319E01B
S214011D70B7F948309B00FA6B13441968B7F94A2043
S214011D80B7F94840386813465B001344234450F8BB
S214011D9023309B1003FB01F39B1001335B10BA6BDE
S214011DA01344BB63B7F848309BB201339BB2A7F824
S214011DB04830B7F94830022BAEDD0123A7F848308A
S214011DC069E0B7F94A20B7F94800396813465B005D
S214011DD01344034408339B000B445B68184613F016
S214011DE00CFD0346B3F5804F1BDAB7F948309B006C
S214011DF03A6C13441968B7F94A20B7F9484038686D
S214011E0013465B001344234408339B0003445B687A
S214011E1003FB01F31B1101335B10BA6BD31ABB63CF
S214011E201BE0B7F948309B003A6C13441968B7F9C0
S214011E304A20B7F94840386813465B0013442344E8
S214011E4008339B0003445B689B1003FB01F39B1064
S214011E5001335B10BA6BD31ABB63B7F948309B00EA
S214011E603A6C13441968B7F94A20B7F948403868FC
S214011E7013465B0013442344123350F8233003FB0C
S214011E8001F37A6BD31A7B63B7F848309BB2013300
S214011E909BB2A7F84830B7F94830022B91DDBB6BEF
S214011EA09B1201335B103B637B6BDB1501335B10CD
S214011EB03A6B13443B63BB6B9B1001335B10BB61F6
S214011EC07B6BDB1301335B10BA691344BB613B6B5D
S214011ED01B02BA69D31ABB613B6B7B64B7F94A2014
S214011EE0396813465B0013449B000B4420333A6B5E
S214011EF05A60B7F94A20396813465B0013449B00C1
S214011F000B444833BA691A60FB6B1833FB633B6CAE
S214011F1018333B64B7F84A309BB201339BB2A7F83B
S214011F204A307B691B8AB7F94A201BB29A42FFF6F0
S214011F3082AE7B695B8A1BB23A6B02FB03F2B7F98E
S214011F401E3092FBF3F39AB27B681A80FB6C18463C
S214011F505037BD46B0BD00BF90B595B000AFF86034
S214011F60B9607A603B6000233B620023A7F84430E7
S214011F700023A7F842300023BB634FF47A737B63D8
S214011F800823FB61FB68BB61BB695B8BA7F840302C
S214011F90BB699B8BFB87BB69D3F83C36BA69B2F841
S214011FA0D0251146BA6992F8FF2502FB01F21A44C0
S214011FB0BB69C3F83C26BB69B3F8CA25BB691B8B52
S214011FC012B21BB29A42C0F26685BB69B3F8CA3533
S214011FD09AB2BB691B8B9BB2D31A9BB29AB2BB69EE
S214011FE0A3F8CA257B6800221A60BB691B68002B10
S214011FF006D0BB691B6803F5AD53023301221A8074
S214012000BB69B3F838369BB203F08B03002B14D0B0
S2140120104FF49672BB691A84BB695B8B1BB2BA69B3
S214012020128C12B202FB03F38C4A82FB031252118A
S214012030DB17D31A9AB2BB69DA83BB69B3F83836B1
S2140120409BB2DBB2002B30D1BB691B8C4FF4FA710B
S2140120501AB20BB29A4228DABB69DB8B1AB2BB6999
S2140120601B8B1BB21344B3F5267F1EDCBB69DB8BCF
S2140120709AB2BB691B8B9BB213449BB29AB2BB69E3
S214012080DA83BB691B8C9AB2BB691B8B1BB26421BA
S21401209001FB03F1BB695B8B1BB291FBF3F39BB2B4
S2140120A013449BB29AB2BB691A84BB69B3F838363B
S2140120B09BB2DBB2002B40F08580BB6993F8FE35FE
S2140120C003F00103002B7DD0BB6993F8FE3503F0C6
S2140120D00203002B76D1BB69B3F8FA351A46BB6901
S2140120E093F8D8359B0042FA03F39BB203F00F0333
S2140120F0A7F84E30BB69B3F8CE3542F22732934289
S21401210004D9BB69B3F84036132B5BD8B7F94E3008
S2140121100E2B57DCBB6993F8FE3543F00203DAB2A7
S214012120BB6983F8FE25BB69B3F8FA3599B2BB697A
S21401213093F8D8359B000F2202FA03F39BB2DB43D8
S2140121409BB20A46134099B2B7F94E305A1CBB6986
S21401215093F8D8359B0002FA03F39BB20A46134361
S2140121609BB29AB2BB69A3F8FA25BB69D3F81436B9
S214012170002B27D1BB69B3F82C36DBB2002B0AD073
S214012180BB695A68BB69B3F8FA35DBB210460F2152
S2140121901A46FCF793FFBB69B3F82C3603F4706359
S2140121A0002B0FD0BB695A68BB69B3F8FA351B0A16
S2140121B09BB2DBB203F00F03DBB2104610211A46C6
S2140121C0FCF77CFFBB69B3F854359AB2BB69DB8B6D
S2140121D09BB2D31A9BB2FB84B7F92630002B04DAE4
S2140121E0FB8C03F299239BB2FB84BB69B3F8CC2525
S2140121F0BB69DB8B12B21BB29A4216DABB69B3F823
S214012200CC25BB691B8B12B21BB29A4206DC7B68DB
S2140122101B6843F001027B681A605DE07B681B68FF
S21401222043F002027B681A6056E0BB69B3F83836A1
S2140122309BB2DBB2022B4FD1FB8CA7F84E300023AA
S214012240A7F84A3022E0B7F94E30BA6910335B007E
S21401225013445B88002B03D028E000BF1F85EB5199
S214012260B7F84E3001339BB2A7F84E30B7F94E306F
S21401227040F29922934202D10023A7F84E30B7F8D4
S2140122804A309BB201339BB2A7F84A30B7F94A10DD
S214012290BB69DB8B1AB213469B001344B44A82FB1C
S2140122A003025211DB17D31A9942CCDBB7F94A1055
S2140122B0BB69DB8B1AB213469B001344AC4A82FB04
S2140122C003025211DB17D31A994205D17B681B68AA
S2140122D043F002027B681A607B681B68002B40F0A3
S2140122E037820023A7F846304BF2E013A7F84230B6
S2140122F044F62063A7F84430FB8CA7F84E30BB6940
S214012300D3F83C26BB691B8B1BB2B2FBF3F2BB694D
S214012310C3F83C260023A7F84A304DE0B7F94E3003
S214012320BA6910335B0013445B881BB243F69822EC
S21401233002FB03F3BA69D2F83C2692B2520892B273
S2140123401344BA69D2F83C2692B293FBF2F3A7F88B
S2140123504830B7F94E30BA6910335B001344B7F80A
S21401236048205A80B7F94220B7F948309A4203DA32
S214012370B7F84830A7F84230B7F94420B7F94830E3
S2140123809A4203DDB7F84830A7F84430B7F84E3024
S21401239001339BB2A7F84E30B7F94E3040F299227E
S2140123A0934202D10023A7F84E30B7F84A309BB2C9
S2140123B001339BB2A7F84A30BB69DB8BB7F94A20D9
S2140123C01BB29A42AADBBB69B3F8D435B7F94420ED
S2140123D01BB29A4207DBBB69B3F8D235B7F9422084
S2140123E01BB29A4205DD7B681B6843F008027B68D6
S2140123F01A60FB8CA7F84E300023A7F84A3043E05A
S214012400B7F84E3001339BB2A7F84830B7F94830D9
S21401241040F29922934202D10023A7F84830B7F937
S2140124204E30BA6910335B0013445B881BB25B0005
S2140124305A1CB7F94830B96910335B000B445B8806
S2140124401BB25B00013303FB02F3002B06DAB7F87D
S21401245046309BB201339BB2A7F84630B7F84E30F0
S21401246001339BB2A7F84E30B7F94E3040F29922AD
S214012470934202D10023A7F84E30B7F84A309BB2F8
S21401248001339BB2A7F84A30B7F94A20BB69DB8B08
S2140124901BB2013B9A42B3DBB7F9462013461B0138
S2140124A09B1A9B001A46BB69DB891BB2053303FBEB
S2140124B002F3304A82FB0312D210DB17D21ABB6931
S2140124C0DB8B1BB292FBF3F3FB822D23B7F91620AD
S2140124D01BB29A4205DBC823B7F916201BB29A42F3
S2140124E006DD7B681B6843F004027B681A60CEE059
S2140124F0B7F9162013469B0013441A01D21A2D234E
S2140125001BB2642101FB03F39A4202DABB695B8BBF
S2140125101AE0BB69DB891BB25A1D13461B019B1AC5
S2140125209B00144A82FB03129210DB17D31A642213
S21401253002FB03F1B7F9162013469B0013441A0158
S214012540D31A91FBF3F39BB2A7F84030B7F91620E4
S21401255013465B019B1A9B001A44C8231BB26421D5
S21401256001FB03F39A4207DDBB699B8B1FE000BFAB
S2140125701F85EB5167666666BB69DB891BB25A1D10
S21401258013461B019B1A9B00B44A82FB031292104E
S214012590DB17D31A642202FB03F1B7F916201346A0
S2140125A05B019B1A9B00134491FBF3F39BB2FB87E1
S2140125B0B7F94240B7F94430184613F01EF90346FE
S2140125C09C4202DDB7F9423005E0B7F944301846BF
S2140125D013F013F90346BB6300237B63FB8CA7F858
S2140125E04E300023A7F84A304AE0B7F94E30BA69B0
S2140125F010335B0013445B881BB2184613F0FDF8DA
S2140126000246BB69B3F8D2351BB29A4215DAB7F95E
S2140126104E30BA6910335B0013445B881AB2B7F9BF
S2140126204E30B96910335B000B445B881BB203FB69
S21401263002F37A6B13447B630CE0BB69B3F8D235C3
S2140126401BB2BA69B2F8D22512B202FB03F37A6B57
S21401265013447B63B7F84E3001339BB2A7F84E3074
S214012660B7F94E3040F29922934202D10023A7F8DF
S2140126704E30B7F84A309BB201339BB2A7F84A30C6
S214012680BB69DB8BB7F94A201BB29A42ADDBBB6B49
S214012690BA6B02FB03F2BB69B3F8D6351BB2B96954
S2140126A0C98B09B2786B90FBF1F101FB03F39A42F7
S2140126B005DD7B681B6843F020027B681A607B6837
S2140126C01B68002B44D0FB8CA7F84E300023A7F8DC
S2140126D04A3036E0B7F94E10B7F94E30BA691033C2
S2140126E05B0013445B881BB2BA69D2F83C2692B2EF
S2140126F002FB03F303F5EA530C33594A82FB030248
S2140127001213DB17D31A98B2BA6901F110035B00F2
S214012710134402465A80B7F84E3001339BB2A7F8ED
S2140127204E30B7F94E3040F29922934202D100233F
S214012730A7F84E30B7F84A309BB201339BB2A7F8E0
S2140127404A30BB69DB8BB7F94A201BB29A42C1DB20
S2140127507B681B68002B40F00581424B3B63B7F951
S2140127603E30BB62FB8FA7F84E3061E00023FB6270
S214012770FB8CA7F84C300023A7F84A303EE0B7F8A8
S2140127804C20B7F84E3013449BB2A7F84830B7F93F
S2140127904830B3F5267F06DDB7F84830A3F2992313
S2140127A09BB2A7F84830B7F94C30BA6910335B00D2
S2140127B013445B881AB2B7F94830B96910335B0025
S2140127C00B445B881BB203FB02F3FA6A1344FB62F9
S2140127D0B7F84C3001339BB2A7F84C30B7F94C3000
S2140127E040F29922934202D10023A7F84C30B7F861
S2140127F04A309BB201339BB2A7F84A30B7F94A2058
S214012800BB69DB8B19B2B7F94E30CB1A9A42B6DBED
S214012810FA6A3B6B9A4204DDFB6A3B63B7F94E30BA
S214012820BB62B7F84E309BB201339BB2A7F84E306D
S214012830B7F94E20B7F940309A4297DDBB69DB8B7A
S2140128401BB2FA6902FB03F23B6B9A420CDD7B6812
S2140128501B6843F010027B681A603EE06766666696
S21401286073B2E745001F0AFAB7F94020BB6A9A42DD
S21401287004D0B7F93E20BB6A9A4206D17B681B6832
S21401288043F080027B681A6027E0BB69DB891BB2D4
S21401289005334FF4167202FB03F3814A82FB0312DF
S2140128A09210DB17D31A5A00BB6A92FBF3F301337B
S2140128B0DA0F13445B10BB82B7F91430784A82FBF7
S2140128C003125210DB17D31A9BB21BB20133DA0F75
S2140128D013445B109AB2BB681A80FB8CA7F84E3083
S2140128E00023A7F84A3036E0B7F94E10B7F94E3054
S2140128F0BA6910335B0013445B881BB2BA69D2F81D
S2140129003C2692B202FB03F303F5EA530C33654A05
S21401291082FB03021213DB17D31A98B2BA6901F1CC
S21401292010035B00134402465A80B7F84E30013359
S2140129309BB2A7F84E30B7F94E3040F29922934237
S21401294002D10023A7F84E30B7F84A309BB20133C4
S2140129509BB2A7F84A30BB69DB8BB7F94A201BB29A
S2140129609A42C1DB7B681B689BB2DBB29AB2BB6939
S214012970A3F838267B681B6843F040027B681A6020
S2140129803B68002B00F08380B7F94430BA69D2F86F
S2140129903C2692B202FB03F303F5EA530C33414A99
S2140129A082FB03121213DB17D31A9AB23B689A837F
S2140129B0B7F94230BA69D2F83C2692B202FB03F369
S2140129C003F5EA530C33374A82FB03121213DB1763
S2140129D0D31A9AB23B68DA83BB69DB8B1BB27A6B7C
S2140129E092FBF3F3002B04D13B684FF6FF721A8477
S2140129F00EE0BB6BBA6B02FB03F2BB69DB8B1BB24F
S214012A00796B91FBF3F392FBF3F39AB23B681A846A
S214012A103B681B89002B13D03B68DB8B1AB23B68E3
S214012A209B8B1BB2D31A42F2107202FB03F33A6875
S214012A30128993FBF2F39AB2BB69A3F8402603E02E
S214012A40BB690022A3F84026BB69B3F840263B6861
S214012A50A3F856200023A7F84E3014E0B7F94E200D
S214012A60B7F94E30B96903F53B735B000B4499889F
S214012A703B681C3223F81210B7F84E309BB2013374
S214012A809BB2A7F84E30B7F94E300E2BE6DDBB6988
S214012A900022C3F83C263B6A18465437BD4690BD13
S214012AA06766666673B2E74580B594B000AFF860B6
S214012AB0B9607A603B6000233B620123BB6400235C
S214012AC07B8700233B870023BB8500237B85FB6830
S214012AD0FB61FB691B68002B02D14FF40053D3E363
S214012AE0FB691B6803F5AD5302331B881BB2012B30
S214012AF040F0C983FB691A68FB691B6803F5AD538F
S214012B0002331B8883F0010399B202F5AD530233F9
S214012B100A461A80FB691B6803F5AD531B889AB2F7
S214012B20FB691B8B9BB2D31A9BB23B85B7F9283046
S214012B30002B04DA3B8D03F299239BB23B850023DD
S214012B40FB8453E0FB691968FB691B6803F5AD5309
S214012B5004331B881BB242F21072934206DDFB69F6
S214012B601B6803F5AD5304331A8809E0FB691B683B
S214012B7003F5AD5304331B889BB201339BB29AB263
S214012B8001F5AD5304331A80FB691A68B7F928308A
S214012B9003F29C535B0013449A885B4B1B889A4252
S214012BA00CD3FB691A68B7F9283003F634035B00C7
S214012BB01344DA88544B1B889A4206D2FB691B6879
S214012BC003F5AD53043300221A803B8D01339BB2CB
S214012BD03B85B7F9283040F29922934201D1002370
S214012BE03B85FB8C9BB201339BB2FB84FB691B8B41
S214012BF0B7F926201BB29A42A4DBFB691B6803F5D2
S214012C00AD531B889AB2FB69DB8B9BB2D31A9BB27E
S214012C10FB85B7F92E30002B04DAFB8D03F29923DE
S214012C209BB2FB85FB691968FB691B6803F5AE530C
S214012C300E331B884EF65F22934212D8FB691B683F
S214012C4003F5AE530E331A88FB69DB891BB22F4896
S214012C5080FB03E08010DB17C31A9BB213449AB2C1
S214012C6005E0FB691B6803F5AE530E331A8801F5C0
S214012C70AE530E331A80FB691B6803F5AD5304335C
S214012C801A88FB69DB8B12B21BB29A4220DAFB6907
S214012C901B6803F5AD5304331A88FB691B8B12B20C
S214012CA01BB29A420DDA7B681B6843F480727B681C
S214012CB01A60FB691B6803F5AE530E3300221A80B7
S214012CC078E27B681B6843F400727B681A6071E2E5
S214012CD00023FB640023BB6400237B6400233B6466
S214012CE047F6FF73FB8747F6FF737B874FF4004376
S214012CF0BB874FF400433B8701233B86FB8D3B8517
S214012D000023FB84B0E000BFAE0000206766666665
S214012D10FB691A68B7F9283003F29C535B00134429
S214012D209B881A46FB6C1344FB64FB691A68B7F967
S214012D30283003F634035B001344DB881A46BB6C69
S214012D401344BB647B6CB3F1005F03DC3B6CB3F1F3
S214012D50005F08DD3B8E01333B867B6C5B107B643A
S214012D603B6C5B103B64FB691B68B7F928206C322F
S214012D7033F812301BB2FA691268B7F928106C31B1
S214012D8032F8112012B202FB03F23B8E42FA03F331
S214012D907A6C13447B64FB691A68B7F9283003F52B
S214012DA041735B0013445B881AB2FB691968B7F973
S214012DB0283003F541735B000B445B881BB203FBB1
S214012DC002F23B8E42FA03F33A6C13443B64FB690E
S214012DD01B68B7F928206C3233F812301AB2B7F9EB
S214012DE03E309342A8BF1346FB87FB691A68B7F9C2
S214012DF0283003F541735B0013445B881AB2B7F9B8
S214012E003A309342A8BF13467B87FB691B68B7F924
S214012E1028206C3233F812301AB2B7F93C3093429C
S214012E20B8BF1346BB87FB691A68B7F9283003F5A4
S214012E3041735B0013445B881AB2B7F9383093428A
S214012E40B8BF13463B873B8D01339BB23B85B7F931
S214012E50283040F29922934201D100233B85FB8C16
S214012E609BB201339BB2FB84FB69DB8BB7F926204F
S214012E701BB29A42FFF64CAFB7F93C20B7F93E3089
S214012E805B429342B8BF13463B857B6C002B12DD39
S214012E90B7F92830B7F9282002FB03F23B8E42FA35
S214012EA003F3FA69D28B12B202FB03F27B6C92FB3C
S214012EB0F3F39BB201E042F20F737B83B7F938203C
S214012EC0B7F93A305B429342B8BF13463B853B6C39
S214012ED0002B12DDB7F92830B7F9282002FB03F2E0
S214012EE03B8E42FA03F3FA69D28B12B202FB03F26B
S214012EF03B6C92FBF3F39BB201E042F20F733B8310
S214012F00B7F91820B7F91A309342B8BF13467B8534
S214012F1042F20F73BB85B7F93C20B7F93E30D31A9E
S214012F20002B26DDB7F93820B7F93A30D31A002B33
S214012F301FDDFB69DB8B1BB2FA6C92FBF3F2B7F970
S214012F403C10B7F93E30CB1A92FBF3F3BB85FB6915
S214012F50DB8B1BB2BA6C92FBF3F2B7F93810B7F9F8
S214012F603A30CB1A92FBF3F2BB8D9342B8BF1346AD
S214012F70BB85FB69DB8B1BB2FA6C92FBF3F2B7F9EC
S214012F803C10B7F93E30CB1A8349098801FB03F39D
S214012F909A4210DCFB69DB8B1BB2BA6C92FBF3F234
S214012FA0B7F93810B7F93A30CB1A7B49098801FBD3
S214012FB003F39A4206DD7B681B6843F400627B6874
S214012FC01A60F7E0FB69DB8B1BB2FA6C92FBF3F23B
S214012FD0B7F93C10B7F93E30CB1A7049098801FBA6
S214012FE003F39A4210DBFB69DB8B1BB2BA6C92FBD4
S214012FF0F3F2B7F93810B7F93A30CB1A67490988AE
S21401300001FB03F39A4206DA7B681B6843F480529D
S2140130107B681A60CEE0624B1B88B7F92A201BB288
S2140130209A4206DD7B681B6843F480627B681A60FF
S214013030C0E0FB69DB8B1BB2FA6C92FBF3F3FB641B
S214013040FB69DB8B1BB2BA6C92FBF3F3BB64FB69C7
S214013050DB8B1BB27A6C92FBF3F37B64FB69DB8B35
S2140130601BB23A6C92FBF3F33B647B6C002B40F390
S2140130709B803B6C002B40F39780BB6CBA6C02FBC9
S21401308003F2FB6C92FBF3F39A03FB6C92FBF3F3F4
S2140130907B617B697A6C02FB03F23B6C92FBF3F378
S2140130A07B614FF40043FB864FF40043BB8600234D
S2140130B07B8600233B8514E0FB8EFA8E02FB03F22F
S2140130C07B699A4201DCFB8E7B86BB8E5B08BB86E6
S2140130D0BA8E7B8E1344FB863B8D9BB201339BB22B
S2140130E03B85B7F928300F2BE6DDFB691968FA8EA8
S2140130F013469B0013449A0013444033002B00DA16
S2140131007F33DB119BB2C3F172039BB29AB201F516
S214013110AD5302331A80FB691A68FB691B6803F515
S214013120AD5302331B881BB2632BA8BF632399B22E
S21401313002F5AD5302330A461A80FB691B6803F594
S214013140AD5302331B881BB24A2B05DC7B681B6818
S21401315043F400527B681A60FB691B6803F5AE53A3
S2140131600E331B881946FB69DB891AB213465B00CE
S21401317013441A0113440B4A82FB03025211DB1754
S214013180D31A994206DA7B681B6843F400527B68BF
S2140131901A600FE00EE000BFAC000020AA0000207D
S2140131A0A80000201F85EB517B681B6843F4005282
S2140131B07B681A60FB691B6803F5AD5302331A88F6
S2140131C0BB681A803B68002B5DD0FB691B6803F562
S2140131D0AD531B889BB2013B9BB23B85B7F92830A8
S2140131E0002B04DA3B8D03F299239BB23B85FB69E6
S2140131F01A68B7F9283003F29C535B0013449A8887
S2140132003B68A3F85820FB691A68B7F9283003F61B
S21401321034035B001344DA883B68A3F85A203B6802
S214013220BA8DA3F85C203B687A8DA3F85E20B7F9C7
S2140132303820B7F93A30D31A42F2107202FB03F281
S214013240BB6C92FBF3F39AB23B68A3F860200023B1
S2140132503B8514E0B7F92830FA691268B7F92810E7
S21401326001F6E82132F811103A6830335B00134456
S2140132700A465A803B8D9BB201339BB23B85B7F918
S21401328028301D2BE6DD3B6A18465037BD4680BD0B
S21401329080B584B000AF786039600023FB607B683E
S2140132A0BB60BB685B6818460021FBF71DFF034641
S2140132B09AB23B681A803B681B881BB2322B04D03B
S2140132C0322B05DB413B062B02D80123FB6002E0D3
S2140132D00023FB6000BFFB6818461037BD4680BD63
S2140132E080B588B000AFF860B9607A600023FB61F2
S2140132F000237B827B681B685B68BB617B681B68FD
S2140133001A68BB691A60BB6803F00E035B100133D1
S2140133107B61BB6803F00103002B26D17B699AB25F
S214013320BB69043312B2F86811461A46FCF7C8F8AE
S21401333007F11203B8691946FFF7AAFF0346002BE7
S21401334008D16FF00303FB61BB695B681846FCF7A5
S21401335005F911E0BB690833B8691946FDF7CAF9E2
S214013360BB690022C3F8142606E0BB690122C3F834
S2140133701426BB6900229A607B68BA691A60FB69E9
S21401338018462037BD4680BD80B485B000AF786052
S21401339039600023FB607B68BB60BB685A683B688A
S2140133A01A60FB6818461437BD465DF8047B704703
S2140133B080B483B000AF0346FB71FB79002B02D0CB
S2140133C0012B02D003E0064B03E0064B01E04FF071
S2140133D0000318460C37BD465DF8047B704700BFF6
S2140133E0FFEBBF40FFEBBF3F80B483B000AF0346A7
S2140133F0FB71FB79032B13D801A252F823F000BF0F
S2140134001134010015340100193401001D34010086
S214013410074B07E0074B05E0074B03E0074B01E0CE
S2140134204FF0000318460C37BD465DF8047B704725
S2140134300000FA3B00007A3C0000FA3C00007A3DAE
S21401344080B483B000AF0346FB71FB79032B17D81A
S21401345001A252F823F000BF693401006F34010065
S214013460753401007B3401004FF062530AE04FF0DF
S214013470645307E04FF0665304E04FF0685301E0F1
S2140134804FF0000318460C37BD465DF8047B7047C5
S21401349080B582B000AF786039607B68DB6B7520E1
S2140134A0396801229847034618460837BD4680BD4D
S2140134B080B584B000AF78608023FB737B681B6C9B
S2140134C007F10F026B201146012298476420FAF794
S2140134D00DFF1037BD4680BD90B599B000AF78603E
S2140134E0002387F84F3000237B630023BB63002350
S2140134F0FB630023BB620023FB6200233B637B6804
S2140135004FF000029A617B684FF00002DA617B6837
S2140135104FF000021A627B684FF00002DA607B68A7
S2140135204FF000021A617B684FF000025A6178681A
S214013530FFF7BEFF6420FAF7D9FE012387F84F3064
S2140135407B681B6C07F14F026B20114601229847DE
S214013550002387F84F307B681B6C07F14F026C2005
S214013560114601229847C820FAF7C0FE002387F8C3
S2140135704F307B681B6C07F14F0238201146012241
S21401358098477B681B6C07F14F02232011460122E6
S21401359098477B681B6C07F14F026B20114601228E
S2140135A098477B681B6C07F14F02242011460122C5
S2140135B098477B681B6C07F14F026A20114601226F
S2140135C098470C2387F84F307B681B6C07F14F0236
S2140135D06A201146012298470F20FAF787FE012339
S2140135E087F84F307B681B6C07F14F021A20114693
S2140135F001229847002387F84F307B681B6C07F140
S2140136004F0219201146012298477B681B6C07F16F
S2140136104F021B201146012298477B681B6C07F15D
S2140136204F021C201146012298478323A7F85C30DD
S2140136304FF48043A7F85A30402387F84F307B6811
S2140136401B6C07F14F026A20114601229847782326
S21401365087F84F307B681B6C07F14F022320114619
S214013660012298472820FAF741FE002387F84F30B9
S2140136707B681B6C07F14F022320114601229847F5
S2140136807B68DB6B07F140027220114602229847E5
S21401369097F840301B029AB297F841309BB2134319
S2140136A09BB2A7F85830B7F85830584AA2FB032304
S2140136B0DB08A7F856300023A7F85E3072E0002337
S2140136C03B8200237B820023BB8200233B810023B5
S2140136D07B810023BB817B68DB6B07F14002742092
S2140136E011460C22984797F840301B029AB297F879
S2140136F041309BB213439BB23B8297F842301B0288
S2140137009AB297F843309BB213439BB27B8297F8E9
S21401371044301B029AB297F845309BB213439BB2D2
S214013720BB8297F846301B029AB297F847309BB295
S21401373013439BB23B8197F848301B029AB297F825
S21401374049309BB213439BB27B8197F84A301B02E8
S2140137509AB297F84B309BB213439BB2BB81BA6ABD
S2140137603B8A1BB21344BB62FA6A7B8A1BB21344C0
S214013770FB623A6BBB8A1BB213443B637A6B3B8991
S2140137801BB213447B63BA6B7B891BB21344BB63C6
S214013790FA6BBB891BB21344FB63B7F85E30013387
S2140137A0A7F85E30B7F85E20B7F856309A4286D34F
S2140137B0BA6AB7F8563092FBF3F3BB62FA6AB7F807
S2140137C0563092FBF3F3FB623A6BB7F8563092FB36
S2140137D0F3F33B637A6BB7F8563092FBF3F37B63F4
S2140137E0BA6BB7F8563092FBF3F3BB63FA6BB7F8D4
S2140137F0563092FBF3F3FB633B6B002B08DD3A6B11
S214013800B7F85A30D31A3B6307E000BFABAAAAAA9F
S2140138103A6BB7F85A3013443B637B6B5B42002B21
S21401382000DA03339B101B12DBB287F840307B6B48
S2140138305B42002B00DA03339B10DBB287F8413082
S214013840BB6B5B42002B00DA03339B101B12DBB20F
S21401385087F84230BB6B5B42002B00DA03339B10C8
S214013860DBB287F84330FB6B5B42002B00DA033395
S2140138709B101B12DBB287F84430FB6B5B42002BBC
S21401388000DA03339B10DBB287F8453097F84030F7
S21401389087F84F307B681B6C07F14F0213201146E7
S2140138A00122984797F8413087F84F307B681B6CA8
S2140138B007F14F02142011460122984797F842302B
S2140138C087F84F307B681B6C07F14F0215201146B5
S2140138D00122984797F8433087F84F307B681B6C76
S2140138E007F14F02162011460122984797F84430F7
S2140138F087F84F307B681B6C07F14F021720114683
S2140139000122984797F8453087F84F307B681B6C43
S21401391007F14F0218201146012298477B6B184683
S2140139200EF092FC0446B7F85C3018460EF088FCA0
S2140139300346204619460EF08FFD03461A467B685D
S214013940DA60BB6B18460EF07FFC0446B7F85C30B5
S21401395018460EF075FC0346204619460EF07CFD0F
S21401396003461A467B681A61FB6B18460EF06CFC20
S2140139700446B7F85C3018460EF062FC0346204653
S21401398019460EF069FD03461A467B685A61002304
S214013990FB6100233B6200237B627B68DB6B07F1E4
S2140139A04002772011460222984797F840301B02C2
S2140139B097F841201343FB617B68DB6B07F14002FC
S2140139C07A2011460222984797F840301B0297F852
S2140139D0412013433B627B68DB6B07F140027D208D
S2140139E011460222984797F840301B0297F841206B
S2140139F013437B6201233B6500233B7600237B76E2
S214013A000023BB760023A7F85E3019E0B7F85E30D6
S214013A109B0007F16002134453F8443C1A463B6D81
S214013A201340002B07D0B7F85E3007F1600213444D
S214013A30012203F8482CB7F85E300133A7F85E3050
S214013A40B7F85E30022BE1D9FA69BB6A002B00DABF
S214013A500733DB10D31AFB613A6AFB6A002B00DAE4
S214013A600733DB10D31A3B627A6A3B6B002B00DA12
S214013A700733DB10D31A7B62FB691B12DBB287F8B4
S214013A804030FB69DBB287F8413097F841203B7E36
S214013A901343DBB287F841303B6A1B12DBB287F86F
S214013AA042303B6ADBB287F8433097F843207B7E8F
S214013AB01343DBB287F843307B6A1B12DBB287F80D
S214013AC044307B6ADBB287F8453097F84520BB7EE9
S214013AD01343DBB287F84530BB6A18460EF0B4FBD9
S214013AE00446B7F85A3018460EF0AAFB034620469D
S214013AF019460EF0B1FC03461A467B689A61FB6ACA
S214013B0018460EF0A1FB0446B7F85A3018460EF0D8
S214013B1097FB0346204619460EF09EFC03461A46BE
S214013B207B68DA613B6B18460EF08EFB0446B7F8ED
S214013B305A3018460EF084FB0346204619460EF00E
S214013B408BFC03461A467B681A626437BD4690BDF5
S214013B5080B584B000AF7860084611461A46034621
S214013B60FB700B46BB7013467B700023FB737B68B0
S214013B701B6C07F10F026B20114601229847642047
S214013B80FAF7B4FB0123FB737B681B6C07F10F028A
S214013B906B20114601229847C820FAF7A7FB03239A
S214013BA0FB737B681B6C07F10F021A20114601227A
S214013BB098471923FB737B681B6C07F10F021920CA
S214013BC01146012298477B68DB6B07F10E021B202A
S214013BD0114601229847BB7B23F00203DBB2BB737D
S214013BE0BB7B23F01803DBB2BB73BB78DB00DAB216
S214013BF0BB7BDBB21343DBB2DBB2BB737B681B6CF4
S214013C0007F10E021B201146012298477B68DB6BE9
S214013C1007F10E021C20114601229847BB7B23F0B8
S214013C201803DBB2BB73FB78DB00DAB2BB7BDBB21B
S214013C301343DBB2DBB2BB737B681B6C07F10E026E
S214013C401C201146012298477B68DB6B07F10E02A8
S214013C501D20114601229847BB7B23F00F03DBB2E0
S214013C60BB73BB7B43F00303DBB2BB737B681B6C8C
S214013C7007F10E021D201146012298475223FB73BD
S214013C807B681B6C07F10F0237201146012298470B
S214013C900123FB737B681B6C07F10F02382011466A
S214013CA0012298476420FAF721FB2023FB737B68E7
S214013CB01B6C07F10F026A201146012298471D234B
S214013CC0FB737B681B6C07F10F022420114601224F
S214013CD098478123FB737B681B6C07F10F026720F3
S214013CE01146012298470123FB737B681B6C07F181
S214013CF00F023420114601229847FB781846FFF739
S214013D009FFB02467B681A60BB781846FFF76CFB80
S214013D1002467B685A607B684FF000021A637B6834
S214013D204FF000025A637B684FF000029A637B688B
S214013D304FF000025A627B684FF000029A627B687D
S214013D404FF00002DA627B781846FFF731FB024635
S214013D507B689A601037BD4680BD00BF000000003A
S214013D602DE9B0439EB000AF78603960002387F834
S214013D706230002387F85C30002387F85D3000232B
S214013D8087F85E30002387F85F30002387F86030BD
S214013D90002387F8613007F1480300221A600433D4
S214013DA000221A60043300221A60043307F13C0330
S214013DB000221A60043300221A60043300221A60BB
S214013DC0043307F1300300221A60043300221A601C
S214013DD0043300221A60043307F1240300221A6018
S214013DE0043300221A60043300221A6004330023CD
S214013DF087F86330002387F862307B681B6C07F115
S214013E0062021920114601229847022387F8623080
S214013E107B681B6C07F162021A2011460122984743
S214013E2097F86330DB00DBB287F862307B681B6C87
S214013E3007F162021B20114601229847022387F8E8
S214013E4062307B681B6C07F162021D20114601225D
S214013E50984797F86330DB00DBB287F862307B68FF
S214013E601B6C07F162021C201146012298470023B1
S214013E707B6760E07B68DB6B07F15C023B201146E9
S214013E8006229847FA6B97F85C301B0299B297F8AE
S214013E905D309BB20B439BB21BB21344FB633A6C7F
S214013EA097F85E301B0299B297F85F309BB20B43CE
S214013EB09BB21BB213443B647A6C97F860301B02CA
S214013EC099B297F861309BB20B439BB21BB2134475
S214013ED07B647B68DB6B07F15C024320114606229C
S214013EE09847BA6C97F85C301B0299B297F85D3028
S214013EF09BB20B439BB21BB21344BB64FA6C97F89C
S214013F005E301B0299B297F85F309BB20B439BB2AF
S214013F101BB21344FB643A6D97F860301B0299B2EA
S214013F2097F861309BB20B439BB21BB213443B65BF
S214013F307B6F01337B677B6FC72B9BDD00233B6762
S214013F402AE03B6F9B0007F17802134453F83C3C90
S214013F50534A82FB03129211DB17D21A3B6F9B0066
S214013F6007F178010B4443F83C2C3B6F9B0007F1AB
S214013F707802134453F8303C494A82FB03129211EB
S214013F80DB17D21A3B6F9B0007F178010B4443F80D
S214013F90302C3B6F01333B673B6F022BD1DDE023B7
S214013FA087F862307B681B6C07F162021C201146A1
S214013FB0012298477B681B6C07F162021B201146A1
S214013FC0012298471920FAF791F90023FB6660E071
S214013FD07B68DB6B07F15C023B20114606229847A3
S214013FE03A6B97F85C301B0299B297F85D309BB23A
S214013FF00B439BB21BB213443B637A6B97F85E305C
S2140140001B0299B297F85F309BB20B439BB21BB26F
S21401401013447B63BA6B97F860301B0299B297F82A
S21401402061309BB20B439BB21BB21344BB637B68EC
S214014030DB6B07F15C0243201146062298477A6A39
S21401404097F85C301B0299B297F85D309BB20B4330
S2140140509BB21BB213447B62BA6A97F85E301B02AE
S21401406099B297F85F309BB20B439BB21BB21344D5
S214014070BB62FA6A97F860301B0299B297F8613012
S2140140809BB20B439BB21BB21344FB62FB6E013324
S214014090FB66FB6EC72B9BDD0023BB662DE000BFD6
S2140140A01F85EB51BB6E9B0007F17802134453F852
S2140140B0483CD54A82FB03129211DB17D21ABB6E1B
S2140140C09B0007F178010B4443F8482CBB6E9B001C
S2140140D007F17802134453F8543CCB4A82FB03128F
S2140140E09211DB17D21ABB6E9B0007F178010B44C5
S2140140F043F8542CBB6E0133BB66BB6E022BD1DD7D
S214014100002387F862307B681B6C07F162021C2073
S2140141101146012298477B681B6C07F162021B203F
S2140141201146012298471920FAF7E0F87B68DB6B05
S21401413007F154020D201146012298477B68DB6B7C
S21401414007F1540201320E201146012298477B687E
S214014150DB6B07F1540202320F2011460122984709
S2140141607B68DB6B07F15402033200201146012203
S21401417098477B68DB6B07F1540204320120114635
S214014180012298477B68DB6B07F154020532022057
S21401419011460122984797F8633040F63C2202FA0E
S2140141A003F318460EF050F8034618460DF00CFCC3
S2140141B004460D4697F8543018460EF041F803466B
S2140141C018460DF001FC02460B46104619464FF004
S2140141D000028E4B0DF098FA02460B4688A1D1E9F3
S2140141E000010FF025FE02460B46204629460DF03B
S2140141F03FFC02460B46104619460DF01BFF0346D0
S214014200FB6097F8633040F63C2202FA03F3184647
S2140142100EF01AF8034618460DF0D6FB04460D4676
S21401422097F8553018460EF00BF8034618460DF071
S214014230CBFB02460B46104619464FF00002734B65
S2140142400DF062FA02460B466DA1D1E900010FF0AE
S214014250EFFD02460B46204629460DF009FC0246B4
S2140142600B46104619460DF0E5FE03463B6197F8EE
S214014270633040F63C2202FA03F318460DF0E4FFE1
S214014280034618460DF0A0FB04460D4697F8563037
S21401429018460DF0D5FF034618460DF095FB02466D
S2140142A00B46104619464FF00002584B0DF02CFAFB
S2140142B002460B4652A1D1E900010FF0B9FD0246B4
S2140142C00B46204629460DF0D3FB02460B46104608
S2140142D019460DF0AFFE03467B6197F8633040F652
S2140142E03C2202FA03F318460DF0AEFF03461846C9
S2140142F00DF06AFB04460D4697F8573018460DF048
S2140143009FFF034618460DF05FFB02460B4610461C
S21401431019464FF000023D4B0DF0F6F902460B46EA
S21401432037A1D1E900010FF083FD02460B46204676
S21401433029460DF09DFB02460B46104619460DF028
S21401434079FE0346BB6197F8633040F63C2202FAD9
S21401435003F318460DF078FF034618460DF034FBBC
S21401436004460D4697F8583018460DF069FF034687
S21401437018460DF029FB02460B46104619464FF02B
S2140143800002224B0DF0C0F902460B461CA1D1E9F2
S21401439000010FF04DFD02460B46204629460DF062
S2140143A067FB02460B46104619460DF043FE0346D0
S2140143B0FB6197F8633040F63C2202FA03F3184695
S2140143C00DF042FF034618460DF0FEFA04460D4670
S2140143D097F8593018460DF033FF034618460DF08E
S2140143E0F3FA02460B46104619464FF00002074BF9
S2140143F00DF08AF902460B460AE000BFAFF30080D3
S214014400295C8FC2F528F03F1F85EB510000F03F75
S21401441059A1D1E900010FF00BFD02460B462046DB
S21401442029460DF025FB02460B46104619460DF0AF
S21401443001FE03463B6200237B6694E07B6E9B0095
S2140144403A68D4187B6E9B0007F17802134453F840
S214014450482C7B6E9B0007F178010B4453F83C3CDB
S214014460D31A18460DF0F0FE034618460DF0ACFAC6
S21401447002460B46104619464FF00002404B0DF01F
S214014480F7FA02460B46904699467B6E9B0007F16B
S2140144907802134453F86C3C18460DF095FA024620
S2140144A00B46404649460DF00DFC02460B461046AB
S2140144B019464FF00002324B0DF026F902460B4624
S2140144C0104619460DF0B6FD034623607B6E033396
S2140144D09B003A68D4187B6E9B0007F17802134460
S2140144E053F8542C7B6E9B0007F178010B4453F86C
S2140144F0303CD31A18460DF0A7FE034618460DF0B9
S21401450063FA02460B46104619464FF000021C4B52
S2140145100DF0AEFA02460B46904699467B6E033383
S2140145209B0007F17802134453F86C3C18460DF0D3
S2140145304BFA02460B46404649460DF0C3FB02467F
S2140145400B46104619464FF000020D4B0DF0DCF8F5
S21401455002460B46104619460DF06CFD03462360D5
S2140145607B6E01337B667B6E022B7FF767AF7837F6
S214014570BD46BDE8B08300BF295C8FC2F528F03F79
S2140145800000594090B58DB000AFF860B9607A6010
S214014590002387F82030002387F82130002387F88E
S2140145A02230002387F82330002387F824300023A5
S2140145B087F82530002387F82630002387F8273030
S2140145C0002387F82830002387F82930002387F84E
S2140145D02A30002387F82B30002387F82C3000235D
S2140145E087F82D3000233B8300237B830023BB8386
S2140145F000233B8200237B820023BB82FB68DB6BAC
S21401460007F120023A2011460122984797F82030F8
S21401461003F00103002B00F0A680FB68DB6B07F1BB
S21401462020023B2011460E22984797F820301B02A5
S2140146309AB297F821309BB213439BB23B8397F80B
S21401464022301B029AB297F823309BB213439BB2D7
S2140146507B8397F824301B029AB297F825309BB2D9
S21401466013439BB2BB833B8B1BB218460DF0ECFD8C
S2140146700246FB681B68104619460DF039FE0346D4
S2140146801A467B681A607B681C1D7B8B1BB218461A
S2140146900DF0DAFD0246FB681B68104619460DF060
S2140146A027FE034623607B6803F10804BB8B1BB21D
S2140146B018460DF0C9FD0246FB681B6810461946F0
S2140146C00DF016FE0346236097F828301B029AB2B7
S2140146D097F829309BB213439BB23B8297F82A3056
S2140146E01B029AB297F82B309BB213439BB27B8284
S2140146F097F82C301B029AB297F82D309BB21343D1
S2140147009BB2BB823B8A1BB218460DF09DFD02464A
S214014710FB685B68104619460DF0EAFD03461A462B
S214014720BB681A60BB681C1D7B8A1BB218460DF05D
S2140147308BFD0246FB685B68104619460DF0D8FDF6
S21401474003462360BB6803F10804BB8A1BB2184604
S2140147500DF07AFD0246FB685B68104619460DF0BF
S214014760C7FD034623603437BD4690BD80B483B091
S21401477000AF7860044A7B68C2F81C310C37BD462E
S2140147805DF8047B704700BF0060004090B585B0BF
S21401479002AF396011461A460346FB710B46BB71E0
S2140147A013467B71FA79BC797B7900933B7E019342
S2140147B0104639683A68234603F0A0FE0C37BD461A
S2140147C090BD00BF80B586B002AF03463960FB716D
S2140147D01346BB71144AFB7913700023FB730AE07E
S2140147E0FB7B0133FA7B39680A4411780E4AD154AF
S2140147F0FB7B0133FB73FA7BBB799A42F0D3BB791F
S21401480001331A4600230093D1200749074BF7F7D7
S21401481069FA0346002B01D0FF2300E000235BB2B8
S21401482018461037BD4680BDD03B0020F03B002027
S21401483080B586B002AF03463960FB711346BB7183
S214014840134AFB791370BB790093D12010490122DA
S214014850104BF7F747FA0346002B01D0FF2311E070
S2140148600023FB7309E0FB7B3A681344FA7B094992
S2140148708A5C1A70FB7B0133FB73FA7BBB799A4225
S214014880F1D300235BB218461037BD4680BD00BF8A
S214014890D03B0020F03B002080B582B000AF03463D
S2140148A0FB71094B1B7883F00103DBB2002B00D0B0
S2140148B006E0064B01221A704FF40060FFF756FF20
S2140148C00837BD4680BD00BFC83B0020CB3B00205B
S2140148D080B582B000AF0023FB71FB1D0948194665
S2140148E0FEF7D6FD0346002B01D0FE2305E0FB793B
S2140148F0712B01D0FF2300E000235BB21846083776
S214014900BD4680BDB000002080B58CB002AF786097
S2140149103D4B00221A703D4B00221A60FFF7D8FF6C
S2140149200346002B01D0FF2368E007F10C0338484B
S2140149301946FFF715FA00237B6214E0FB68184658
S21401494034490DF073FE0346002B07D1FB68184669
S21401495031490DF089FE0346002B01D0FF234DE0BF
S2140149607B6A01337B627B6A052BE7DD2B4B0022DA
S2140149701A702B4B00221A702A4B4FF000021A6055
S214014980284B4FF000025A60264B4FF000029A6007
S214014990254B4FF000021A60234B4FF000025A607D
S2140149A0214B4FF000029A607B68002B01D19D23BA
S2140149B024E0164A7B68136001200B2102220123A2
S2140149C003F004FE0123009301200B2100220123A2
S2140149D0FFF7DCFE0B201549F7F7D4F80C48FEF775
S2140149E07BFD0B48022101220123FFF7B1F8064B9C
S2140149F001221A700B20FFF74FFF00235BB2184607
S214014A002837BD4680BD00BFC83B0020C43B002000
S214014A10B0000020000060C100006041C93B0020DA
S214014A20CA3B00201C3C0020343C00209948010071
S214014A3080B400AF044B00221A7000235BB2184604
S214014A40BD465DF8047B7047C83B002080B588B042
S214014A5000AF6F4B1B7883F00103DBB2002B01D054
S214014A609D23D0E06B4B1B78002B00F0C480002305
S214014A70BB83694869496A4AFFF784FD694B1B682D
S214014A80002B2FD0664B1B6818464FF087410DF060
S214014A902FFC034618460DF0F1FD03469BB2BB8280
S214014AA05F4B5B6818464FF087410DF021FC0346CB
S214014AB018460DF0E3FD03469BB2FB82584B9B68FC
S214014AC018464FF087410DF013FC034618460DF0CB
S214014AD0D5FD03469BB23B83524B1B6807F114027C
S214014AE010469847504B1B78002B2CD00023FB77A1
S214014AF026E0FB7F494A52F82310FB7F4B4A52F8C7
S214014B002330084619460DF0A5FD0346002B14D0A8
S214014B10FB7F464A52F8233018464FF000010DF04D
S214014B20A3FD0346002B08D0FB7F012202FA03F304
S214014B309AB2BB8B13439BB2BB83FB7F0133FB77DC
S214014B40FB7F022BD5D93A4B1B78002B2DD00023A7
S214014B50BB7727E0BB7F324A52F82310BB7F354A2A
S214014B6052F82330084619460DF074FD0346002B13
S214014B7015D0BB7F2F4A52F8233018464FF000015C
S214014B800DF072FD0346002B09D0BB7F03330122D3
S214014B9002FA03F39AB2BB8B13439BB2BB83BB7F70
S214014BA00133BB77BB7F022BD4D9BB8B1BB2002B47
S214014BB01EDD07F10C03184600F0C2F83B1D18462F
S214014BC000F06EF83B1D1D201946032205F004FA7D
S214014BD007F10C031A201946032205F0FDF907F127
S214014BE01C0320201946012205F0F6F90023BB8399
S214014BF0084B00221A70104B1B78002B02D00E4B6C
S214014C0000221A7000235BB218462037BD4680BDCD
S214014C10C83B0020CB3B0020B0000020103C002009
S214014C20283C0020C43B0020C93B00201C3C00203F
S214014C30CA3B0020343C0020CC3B002080B582B02B
S214014C4000AF786039607B6800221A807B68023387
S214014C5000221A807B68043300221A803B680022F7
S214014C601A803B68023300221A803B680433002214
S214014C701A80386800F014F80346002B01D09D23F3
S214014C8008E0786800F05CF80346002B01D09D230D
S214014C9000E000235BB218460837BD4680BD00BF62
S214014CA090B583B000AF78607B6800221A807B687D
S214014CB0023300221A807B68043300221A801D4BBF
S214014CC01B7883F00103DBB2002B01D09D232CE07F
S214014CD0194B1B68184619490DF00AFB034618467E
S214014CE00DF0CCFC03469AB27B681A807B689C1C4C
S214014CF0114B5B68184611490DF0FAFA034618463F
S214014D000DF0BCFC03469BB223807B681C1D0A4B3E
S214014D109B68184609490DF0EBFA034618460DF054
S214014D20ADFC03469BB2238000235BB218460C37CA
S214014D30BD4690BDC83B0020283C002000007A44B8
S214014D4090B583B000AF78607B6800221A807B68DC
S214014D50023300221A807B68043300221A801D4B1E
S214014D601B7883F00103DBB2002B01D09D232CE0DE
S214014D70194B1B68184619490DF0BAFA034618462E
S214014D800DF07CFC03469AB27B681A807B689C1CFB
S214014D90114B5B68184611490DF0AAFA03461846EE
S214014DA00DF06CFC03469BB223807B681C1D0A4BEE
S214014DB09B68184609490DF09BFA034618460DF004
S214014DC05DFC03469BB2238000235BB218460C377A
S214014DD0BD4690BDC83B0020103C002000007A4430
S214014DE090B585B000AF7860194B00221A70002389
S214014DF0FB7323E0FC7BFB7B5B007A6813441B8818
S214014E00144AA2FB03239B099BB218460DF01CFA19
S214014E100246114B43F82420FB7B0F4A52F82330FD
S214014E2018464FF000010DF01FFC0346002B02D080
S214014E30074B01221A70FB7B0133FB73FB7B022BB2
S214014E40D8D900235BB218461437BD4690BD00BFC3
S214014E50C93B0020D34D62101C3C002090B585B0A4
S214014E6000AF7860194B00221A700023FB7323E011
S214014E70FC7BFB7B5B007A6813441B88144AA2FB0D
S214014E8003239B099BB218460DF0DEF90246114B2F
S214014E9043F82420FB7B0F4A52F8233018464FF084
S214014EA000010DF0E1FB0346002B02D0074B012267
S214014EB01A70FB7B0133FB73FB7B022BD8D90023D3
S214014EC05BB218461437BD4690BD00BFCA3B0020F2
S214014ED0D34D6210343C002080B483B000AF03464B
S214014EE03960FB71FB79002B0DD0FB79012B0AD0C1
S214014EF0FB79022B07D0FB79032B04D0FB79042B1B
S214014F0001D0FB79052B0949FA793B68012000FAA3
S214014F1003F318461346DB0013449B000B4410337F
S214014F2058600C37BD465DF8047B70470060004052
S214014F3080B483B000AF03463960FB71FB79002B68
S214014F400DD0FB79012B0AD0FB79022B07D0FB7918
S214014F50032B04D0FB79042B01D0FB79052B0949DF
S214014F60FA793B68012000FA03F318461346DB0082
S214014F7013449B000B44103318600C37BD465DF894
S214014F80047B70470060004090B585B002AF396081
S214014F9011461A460346FB710B46BB7113467B71DD
S214014FA0FA79BC797B7900933B7E01931046396888
S214014FB03A68234603F0A2FA0C37BD4690BD00BFFF
S214014FC080B483B000AF0346FB71084B1B7883F0B7
S214014FD00103DBB2002B00D002E0054B01221A7060
S214014FE00C37BD465DF8047B704700BF403C00208F
S214014FF0783C002080B483B000AF78603960044B01
S21401500001221A700C37BD465DF8047B704700BF5D
S214015010F400002080B500AF1D4B1B78DBB2002BDF
S21401502008D01B4B00221A701A4B93F829301846E9
S214015030F9F720FD184B1B78DBB2002B0ED0164B70
S21401504000221A70134B93F829301846F9F7CCFC56
S21401505003461A460F4B83F82B200FE00D4B93F8AF
S2140150602A30002B0AD00B4B93F829301846F9F753
S214015070BBFC03461A46074B83F82B20054B93F8D7
S214015080293018460549064A064BF9F7C1FC80BD8A
S214015090783C0020483C0020F4000020723C0020B0
S2140150A0743C0020763C002090B585B002AF00230A
S2140150B03B713A1D3C4601230093B4201146012260
S2140150C02346F6F70FFE0346002B01D0FE2305E02C
S2140150D03B78442B01D0FF2300E000235BB2184647
S2140150E00C37BD4690BD00BF80B586B002AF034603
S2140150F0FB71404B1B78002B01D000F0CBF83E4BE8
S21401510000221A703D4B00221A803D4B00221A8065
S2140151103C4B00221A70374B00221A703A4B5A2227
S2140151205A70394B00221A70374B0E225A60364B92
S21401513002229A70FB79002B07D0344B00221A709A
S214015140314B002283F8292006E0304B01221A70E9
S2140151502D4B012283F829202B4B002283F82A208D
S214015160294B002283F82B20274B00229A85264BB9
S2140151700022DA85264B01221A7003200721042219
S214015180002303F023FA02200E210422012303F058
S2140151901DFA02200E210222012303F017FA012331
S2140151A0009302200E2100220123FFF7EDFE0E20C0
S2140151B01849F6F7E7FC1848F6F7EEFF124B93F896
S2140151C0293018461549F9F737FB0F480021002208
S2140151D0FAF776F9F860FB68002B01D0FF2303E0AD
S2140151E0054B01221A7000235BB218461037BD46E4
S2140151F080BD00BF413C0020403C0020423C0020D6
S214015200443C0020463C0020483C0020F50000209D
S214015210F4000020C14F010010420020513C002044
S21401522080B582B002AF154B1B7883F00103DBB269
S214015230002B01D09D231DE0114B1A68002300931B
S214015240104601214FF4FA620E4BF7F77BF80E4B2E
S21401525093F829100D4B1A78002300930A4800236F
S214015260F9F73AFB03200721FFF762FE084B0122FC
S2140152701A7000235BB21846BD4680BD403C002034
S21401528010420020F54F0100483C0020F5000020A8
S214015290413C002080B500AF184B1B7883F001031A
S2140152A0DBB2002B01D09D2324E0154B1B7883F045
S2140152B00103DBB2002B01D0FF231BE0114B0022C0
S2140152C01A700F4B00221A700F4B00221A800F4BD8
S2140152D000221A8003200721FFF7FEFD0C4B93F8EE
S2140152E029301846F9F708FC0A4B1B681846F7F7E9
S2140152F0D1F900235BB2184680BD00BF403C0020B8
S214015300413C0020463C0020423C0020443C00201A
S214015310483C00201042002080B400AF044B00221D
S2140153201A7000235BB21846BD465DF8047B7047D1
S214015330403C002080B582B000AF78607868F9F70D
S214015340C5FF0837BD4680BD80B500AF164B0022AD
S2140153501A70164B00221A80154B00221A80154B24
S2140153601B7883F00103DBB2002B01D09D2318E0EC
S214015370114B1B7883F00103DBB2002B01D0FF2316
S2140153800FE0FFF747FE0D4B93F82A20064B1A70E5
S2140153900A4B9A8D054B1A80084BDA8D044B1A80FE
S2140153A000235BB2184680BD463C0020423C0020EC
S2140153B0443C0020403C0020413C0020483C00206A
S2140153C080B485B000AFF860B9607A60084B1A887F
S2140153D0FB681A80074B1A88BB681A80064B1A7836
S2140153E07B681A701437BD465DF8047B704700BFB2
S2140153F0423C0020443C0020463C002090B589B049
S21401540002AFF860B9607A6084233B750023FB75B0
S21401541047E0FB7D4133DBB25B00DBB27B7507F116
S214015420140207F110040123009382201146022280
S2140154302346F6F757FC0346002B01D0FE23D0E0A7
S214015440FB7D5B00FA6813443A7C92B2120292B278
S2140154501A80FB7D5B00DBB27D3BDBB27B7507F11F
S214015460140207F110040123009382201146022240
S2140154702346F6F737FC0346002B01D0FE23B0E0A7
S214015480FB7D5B00FA681344FA7D5200F9680A4412
S21401549011883A7C92B20A4392B21A80FB7D01339C
S2140154A0FB75FB7D082BB4D90023FB7547E0FB7D1C
S2140154B04A33DBB25B00DBB27B7507F1140207F1FE
S2140154C01004012300938220114602222346F6F798
S2140154D009FC0346002B01D0FE2382E0FB7D5B0026
S2140154E0BA6813443A7C92B2120292B21A80FB7DD9
S2140154F05B00DBB26B3BDBB27B7507F1140207F195
S2140155001004012300938220114602222346F6F757
S214015510E9FB0346002B01D0FE2362E0FB7D5B0026
S214015520BA681344FA7D5200B9680A4411883A7C75
S21401553092B20A4392B21A80FB7D0133FB75FB7D62
S214015540082BB4D90023FB7547E0FB7D5333DBB250
S2140155505B00DBB27B7507F1140207F1100401232F
S21401556000938220114602222346F6F7BBFB034630
S214015570002B01D0FE2334E0FB7D5B007A681344E8
S2140155803A7C92B2120292B21A80FB7D5B00DBB2C9
S214015590593BDBB27B7507F1140207F110040123B6
S2140155A000938220114602222346F6F79BFB034610
S2140155B0002B01D0FE2314E0FB7D5B007A681344C8
S2140155C0FA7D520079680A4411883A7C92B20A43FD
S2140155D092B21A80FB7D0133FB75FB7D082BB4D993
S2140155E000235BB218461C37BD4690BD90B587B008
S2140155F002AF10233B7307F10C023C1D01230093FD
S2140156008220114601222346F6F76CFB0346002B47
S21401561001D0FE235DE050233B733B7923F0220348
S214015620DBB27B7307F10C023C1D01230093822041
S214015630114602222346F6F755FB0346002B01D0FE
S214015640FE2346E0FA233B730F237B7307F10C021C
S2140156503C1D082300938220114602222346F6F7BA
S21401566041FB0346002B01D0FE2332E0FC233B73B3
S214015670C9237B7307F10C023C1D0823009382208B
S214015680114602222346F6F72DFB0346002B01D0D6
S214015690FE231EE03B790D2B01D0F52319E0842370
S2140156A03B73B8237B7307F10C023C1D0123009367
S2140156B08220114602222346F6F714FB0346002BEE
S2140156C001D0FE2305E03B79202B01D0F62300E034
S2140156D000235BB218461437BD4690BD80B592B024
S2140156E000AF4B4B00221A70FFF780FF0346002BDA
S2140156F001D09D2387E000233B8500237B85002383
S214015700BB850023FB8500233B8600237B86002385
S214015710BB860023FB8600233B870023BB82002336
S214015720FB8200233B8300237B830023BB83002370
S214015730FB8300233B8400237B840023BB8400235C
S2140157403B8000237B800023BB800023FB8000235B
S2140157503B8100237B810023BB810023FB81002347
S2140157603B8207F1280107F114023B460846114621
S2140157701A46FFF743FE0346002B01D09D2342E065
S21401578000237B640EE07B6C5B0007F14802134448
S21401579033F8203C1F48796C1A4605F0B1FE7B6C45
S2140157A001337B647B6C082BEDDD00233B640EE04C
S2140157B03B6C5B0007F14802134433F8343C16484F
S2140157C0396C1A4605F09CFE3B6C01333B643B6C1E
S2140157D0082BEDDD0023FB630EE0FB6B5B0007F19E
S2140157E04802134433F8483C0C48F96B1A4605F056
S2140157F087FEFB6B0133FB63FB6B082BEDDD044B74
S21401580001221A7000235BB218464837BD4680BD98
S214015810793C002054630200706302008C6302002E
S21401582080B400AF044B00221A7000235BB2184606
S214015830BD465DF8047B7047793C002090B58DB07D
S21401584002AF78607B6849F24D521A80C04B1B78D4
S21401585083F00103DBB2002B01D09D2373E1E72324
S2140158603B7407F1100207F10C0401230093822018
S214015870114601222346F6F735FA0346002B01D0DE
S214015880FE2360E13B7B1A463B7B43F00403DBB21D
S214015890B04811461A4605F033FE10233B7407F153
S2140158A0100207F10C040223009382201146012204
S2140158B02346F6F717FA0346002B01D0FE2342E1F2
S2140158C03B7BA548194605F01BFE50233B740E236F
S2140158D07B7407F1100207F10C0401230093822068
S2140158E0114602222346F6F7FDF90346002B01D0A6
S2140158F0FE2328E110233B7407F1100207F10C0484
S214015900022300938220114601222346F6F7EAF984
S2140159100346002B01D0FE2315E13B7B8E4819463A
S21401592005F0EEFD11233B7407F1100207F10C049C
S214015930022300938220114601222346F6F7D2F96C
S2140159400346002B01D0FE23FDE03B7B834819462E
S21401595005F0D6FDEE233B7407F1100207F10C04A7
S214015960022300938220114601222346F6F7BAF954
S2140159700346002B04D07A4805F0C2FDFE23E2E080
S2140159803B7B1A467B7B774811461A4605F0B8FDE5
S2140159903B7B1B027A7B1344FB617348F96905F074
S2140159A0AFFD50233B7401237B7407F1100207F10E
S2140159B00C04012300938220114602222346F6F7A7
S2140159C091F90346002B01D0FE23BCE04FF480730F
S2140159D07B624FF455531A46FB699A420CDA6348C8
S2140159E005F08EFD44F2DD337B8442F667637B83EC
S2140159F04FF601733B8395E042F66F031A46FB6947
S214015A009A420CDA5A4805F07BFD4FF455537B84D5
S214015A1043F6F8437B834FF6DD633B8382E041F632
S214015A200A631A46FB699A420CDA524805F068FD89
S214015A3042F66F037B8444F68A337B834FF6996381
S214015A403B836FE041F212631A46FB699A420CDA15
S214015A50494805F055FD41F60A637B8445F61B234C
S214015A607B834FF62C633B835CE041F22B031A46A3
S214015A70FB699A420FDA41F212634048194605F073
S214015A803FFD41F212637B8446F6AD037B834FF6FE
S214015A9088533B8346E040F6E1331A46FB699A4257
S214015AA00CDA374805F02CFD41F22B037B8447F2D4
S214015AB03F737B834FF69B433B8333E040F6CA0339
S214015AC01A46FB699A420CDA2E4805F019FD40F693
S214015AD0E1337B8448F2D0537B834FF649333B83D3
S214015AE020E040F28F631A46FB699A420CDA264898
S214015AF005F006FD40F6CA037B8449F262437B83C8
S214015B004FF678133B830DE0204805F0F9FC40F290
S214015B108F637B844AF2F3237B834FF2F8633B83E4
S214015B2001237B62B7F92230FA69D21A7B6A92FBAB
S214015B30F3F37B611648F96905F0E2FCFB699AB25A
S214015B407B681A8000235BB218462C37BD4690BD91
S214015B50793C0020A8630200C8630200DC630200EF
S214015B60F06302000864020020640200346402004C
S214015B70406402004C64020058640200646402003F
S214015B8074640200806402008C640200986402005F
S214015B90A464020090B589B002AF78607B684FF6C6
S214015BA0FF721A80204B1B7883F00103DBB2002BB7
S214015BB001D09D2333E0E5233B7407F1100207F182
S214015BC00C04022300938220114601222346F6F795
S214015BD089F80346002B01D0FE2320E03B7B1B0205
S214015BE07A7B1A4313465B019B1A9B001344002BD6
S214015BF002DA03F57F43FF331B14063B7B617B69A7
S214015C009BB21A46920013441A4691001A460B4656
S214015C1013449B009BB29AB27B681A8000235BB246
S214015C2018461C37BD4690BD793C002090B587B01C
S214015C3002AF264B00221A70FA233B730F237B73A5
S214015C4007F10C023C1D0823009380201146022216
S214015C502346F6F747F80346002B01D0FE2330E033
S214015C60FC233B73C9237B7307F10C023C1D0823FD
S214015C7000938020114602222346F6F733F80346A6
S214015C80002B01D0FE231CE084233B73B8237B73D7
S214015C9007F10C023C1D01230093802011460222CD
S214015CA02346F6F71FF80346002B01D0FE2308E033
S214015CB03B79202B01D0F62303E0044B01221A7016
S214015CC000235BB218461437BD4690BD7A3C0020CF
S214015CD080B400AF044B00221A7000235BB2184652
S214015CE0BD465DF8047B70477A3C002090B589B0CC
S214015CF002AF78607B6849F24D521A801B4B1B78C5
S214015D0083F00103DBB2002B01D09D2329E0E323BE
S214015D103B7407F1100207F10C0402230093802064
S214015D20114601222346F5F7DDFF0346002B01D07D
S214015D30FE2316E03B7B1B027A7B134344F2A4420C
S214015D4002FB03F3002B02DA03F57F43FF331B1438
S214015D50A3F592530D3B7B617B699AB27B681A80EF
S214015D6000235BB218461C37BD4690BD7A3C002026
S214015D7090B585B002AF18233B713A1D3C4601230E
S214015D800093E020114601222346F5F7ABFF0346B8
S214015D90002B01D0FE2305E03B78142B01D0FF2316
S214015DA000E000235BB218460C37BD4690BD00BF2D
S214015DB080B500AF134B00221A70134B4FF0FF3221
S214015DC01A60124B4FF0FF321A60114B4FF0FF3240
S214015DD01A60104B4FF0FF321A600F480F4900F05F
S214015DE055FB0346002B01D09D2307E00A480B49CB
S214015DF000F016FC034B01221A7000235BB2184612
S214015E0080BD00BF7B3C00207C3C0020803C002005
S214015E10843C0020883C00204042002014420020A0
S214015E2080B400AF044B00221A7000235BB2184600
S214015E30BD465DF8047B70477B3C002080B500AF13
S214015E401E4B4FF0FF321A601D4B4FF0FF321A60A7
S214015E501C4B4FF0FF321A601B4B4FF0FF321A609B
S214015E601A4B1B7883F00103DBB2002B01D09D2374
S214015E7020E01748174900F0D3FB164BDB680F4AA2
S214015E801360144B1B690E4A1360124B5A69134672
S214015E909B0013445B001A460A4B1A600D4B9B6825
S214015EA005330D4A82FB03129210DB17D31A064AFA
S214015EB0136000235BB2184680BD00BF7C3C002007
S214015EC0803C0020843C0020883C00207B3C002055
S214015ED040420020144200206766666680B485B0A2
S214015EE000AFF860B9607A603B600D4B1B689AB2F0
S214015EF0FB681A800B4B1B689AB2BB681A800A4B68
S214015F001B689AB27B681A80084B1B689AB23B687A
S214015F101A8000BF1437BD465DF8047B704700BF8A
S214015F207C3C0020803C0020843C0020883C0020F3
S214015F3080B586B000AF786007F10C030120796860
S214015F401A4600F0E9FC38613B69002B02DB3B7B1B
S214015F507B6102E04FF0FF337B617B69184618379F
S214015F60BD4680BD80B584B000AF78600B46FB703F
S214015F70FB783B7207F10803012079681A4600F0A6
S214015F8081FCF860FB6818461037BD4680BD00BF2F
S214015F9080B586B000AF786007F10C0302207968FF
S214015FA01A4600F0B9FC38613B69002B07DB7B7BA6
S214015FB07B617B691B023A7B13447B6102E04FF0F5
S214015FC0FF337B617B6918461837BD4680BD00BF2D
S214015FD080B584B000AF786039603B68DBB23B7255
S214015FE03B681B12DBB27B7207F10803022079685B
S214015FF01A4600F047FCF860FB6818461037BD46A5
S21401600080BD00BF80B586B000AFF860B9607A6029
S2140160107868B968FA6800F07FFC78617B69184691
S2140160201837BD4680BD00BF80B586B000AFF860AA
S214016030B9607A607868B968FA6800F023FC78611C
S2140160407B6918461837BD4680BD00BF80B582B053
S21401605000AF1820FFF76CFF0346142B02D04FF059
S214016060FF3308E00020FFF793FF78607B68C3F3F7
S2140160700E037B607B6818460837BD4680BD00BFAF
S21401608080B584B000AF786000200121FFF76AFF79
S2140160907B682033184630211022FFF7C5FF7B6846
S2140160A05B68002B08D07B685B68DBB25B00DBB209
S2140160B013201946FFF756FF7B689B68002B0FD00D
S2140160C07B689B685B02264A82FB03121213DB176E
S2140160D0D31AFB60FB68DBB214201946FFF742FFB8
S2140160E07B689B69002B11D07B68DB695A027B6851
S2140160F09B6945F6146191FBF3F392FBF3F3FB60A6
S214016100FB68DBB215201946FFF72CFF154B9B8861
S214016110002B06D0134B9B881BB20F201946FFF7A6
S21401612057FF104BDB88002B06D00E4BDB881BB2CB
S21401613011201946FFF74CFF01200321FFF712FF3C
S2140161407B681B68DBB243F01003DBB2DBB20020D6
S2140161501946FFF707FF00BF1037BD4680BD00BFD9
S21401616089C05D748C3C002080B584B000AF786037
S214016170FFF76CFFF860FB68002B01DAFB680BE0A9
S2140161800D20FFF705FFB8607868FFF779FF0D204F
S214016190B968FFF71DFF002318461037BD4680BDBE
S2140161A080B584B000AF7860FFF750FFF860FB68F9
S2140161B0002B01DAFB680AE07868FFF761FF064BFF
S2140161C05B881BB202201946FFF702FF0023184620
S2140161D01037BD4680BD00BF8C3C002080B485B022
S2140161E000AF03460A46FB801346BB80B7F906306C
S2140161F0BA8802FB03F3DB12FB60FB680133DA0F9C
S21401620013445B10FB60FB6818461437BD465DF807
S214016210047B704780B588B000AF786007F108034B
S214016220184600210F22FFF7EDFEB861BB69002B6F
S21401623001DABB6997E0FB7AFB61FB691B02BA7A5C
S2140162401344FB617B68FA695A60FA6913469B003E
S21401625013445B0003F58073002B01DA03F2FF138E
S2140162605B121A467B689A607B7BFB61FB691B02AB
S2140162703A7B1344FB617B68FA699A61FB7BFB619D
S214016280FB691B02BA7B1344FB61FB69C3F30D0375
S214016290FB61FB69B3F5005F03DBFB69A3F5804394
S2140162A0FB61FB699BB21BB2184640F66811FFF70B
S2140162B095FF02467B681A617B7CFB61FB691B02CA
S2140162C03A7C1344FB61FB69C3F30B03FB61FB6977
S2140162D0B3F5006F03DBFB69A3F58053FB61FB6934
S2140162E09BB21BB2184642F23331FFF777FFF861D3
S2140162F07B68FA69DA60BB7CFB61FB697F2B03DD97
S214016300FB69A3F58073FB61FA6913469B0013448E
S2140163105B001A467B685A61BB7DFB61FB691B0209
S2140163207A7D1344FB61FB69C3F30D03FB61FB69D3
S214016330B3F5005F03DBFB69A3F58043FB61FB69F3
S2140163409BB21BB2184642F23331FFF747FFF861A2
S214016350FB690233002B00DA03339B10FB617B6879
S214016360FA69DA61002318462037BD4680BD00BFB2
S21401637080B582B000AF7860786820211022FFF7E0
S21401638041FE034618460837BD4680BD80B582B03B
S21401639000AF7860786820211022FFF745FE03469B
S2140163A018460837BD4680BD80B487B000AF786018
S2140163B0396000237B6100233B611FE03B697A68FB
S2140163C013441B781A467B6953407B610023FB60AC
S2140163D00EE07B695B007B617B6903F48073002BB5
S2140163E003D07B6983F007037B61FB680133FB60A5
S2140163F0FB68072BEDDD3B6901333B613A693B687E
S2140164009A42DBDB7B69DBB218461C37BD465DF87A
S214016410047B704780B582B000AF07480F21FFF7B5
S214016420C3FF78607B68DAB2034BDA737B68184681
S2140164300837BD4680BD00BF8C3C002080B584B0C7
S21401644000AF78600023FB6007E00F4AFB68134447
S21401645000221A70FB680133FB60FB680F2BF4DD2A
S214016460094B45F2A9321A807B68DB689AB2064B63
S2140164709A807B681B699AB2034BDA80FFF7CAFFE2
S2140164801037BD4680BD00BF8C3C002080B594B05F
S21401649000AF7860396007F10803402218460021F2
S2140164A00FF0FBF97B6800221A607B680A229A616A
S2140164B07B689B694EF6602202FB03F303F5C1532A
S2140164C01233464A82FB03121213DB17D21A7B6879
S2140164D0DA607B6831221A610023BB6434E0BB6C4E
S2140164E09B0007F15002134453F8483C7F2B07DD0D
S2140164F0BB6C9B0007F1500213447F2243F8482CE3
S214016500BB6C9B0007F15002134453F8483C13F14F
S2140165107F0F08DABB6C9B0007F1500213446FF043
S2140165207E0243F8482CBB6C9B0007F150021344D3
S21401653053F8483CD9B27A68BB6C134420330A46F8
S2140165401A70BB6C0133BB64BB6C0F2BC7DD7B6859
S214016550F0225A617B680C22DA617B680A225A6053
S2140165607B684FF461629A603B6801221A621C489C
S214016570FFF7FEFE1A4B1B881BB245F2A932934267
S21401658006D117481021FFF70FFF0346002B07D04F
S2140165907868FFF753FF7868FFF7E6FDF86410E0C8
S2140165A00120FFF7C5FC034603F01803002B04D0B7
S2140165B07868FFF7D9FDF86403E07868FFF7F0FD27
S2140165C0F864074B49225A72FFF724FF0448FFF785
S2140165D0DDFEFB6C18465037BD4680BDD93DA35441
S2140165E08C3C002080B582B000AF0C4B00221A8094
S2140165F00A4B00225A720948FFF7C8FE78607B688A
S214016600002B01D07B6805E001201021FFF7AAFCD2
S21401661078607B6818460837BD4680BD8C3C0020F4
S21401662080B584B000AF78603960FFF70FFDF86081
S214016630FB68002B01DAFB6817E13B68FA681A6011
S2140166408C48FFF795FE8B4B1B881BB245F2A9328F
S214016650934206D187481021FFF7A6FE0346002B7A
S21401666005D07868FFF7EAFE824B49225A723B68EA
S2140166701B6803F40063002B07D03B6800221A62F4
S214016680FFF7B0FF4FF0FF33EFE03B681B6803F006
S2140166901003002B0DD1774B5B7A562B03D178680C
S2140166A0FFF77EFD02E07868FFF75EFD714B492239
S2140166B05A723868FFF7AEFDF860FB68002B02D00F
S2140166C04FF0FF33D1E06B4B5B7A492B09D13B6826
S2140166D09B69042B05DD674B52225A723B680122E7
S2140166E01A62644B5B7A522B18D07B685B693A68F6
S2140166F0926802FB03F3604A82FB03129211DB17D6
S214016700D21A3B685A623B6800221A613B68FA2239
S2140167105A613B684FF0FF329A6289E03B68DB685A
S21401672040F6B732934203DC3B6800229A6014E0DD
S2140167303B68DB68B3F5486F0FDA3B689B683A68DD
S214016740D268A2F6B83202FB03F34C4A82FB03126C
S2140167509211DB17D21A3B689A607B685B693A68CC
S214016760926802FB03F3444A82FB03129211DB1781
S214016770D21A3B685A623B681B6803F00103002B80
S2140167803FD13B681B6803F00103002B12D13B6825
S2140167901B694B2B0EDD3B689B6840F2DE32934251
S2140167A008DD3B6840F2DE329A6002204FF4464133
S2140167B0FFF70EFC3B681B69002B1DDA3B68996AE4
S2140167C03B685A6A3B681B6992FBF3F213461B014E
S2140167D09B1A0B449B002A4A82FB03125210DB17BA
S2140167E0D21A3B689A623B689B6A002B10DA3B68B8
S2140167F04FF0FF329A620BE03B684FF0FF329A622D
S21401680006E03B6800221A613B684FF0FF329A624D
S2140168103B689B68B3F57A7F03DD3B684FF47A7279
S2140168209A603B689B68002B02DA3B6800229A60FC
S2140168303B685B689AB20F4B5A803B689B6805338E
S2140168400F4A82FB03129210DB17D31ADAB2094BF6
S2140168501A72FFF7DFFD0748FFF798FD054B5B7AD5
S214016860522B01D1012300E0002318461037BD4604
S21401687080BD00BF8C3C0020D34D62101F85EB51BC
S2140168806766666680B588B002AFF860B9607A6000
S21401689000237B6100233B61BB68DAB21B4B1A7095
S2140168A000233B610AE03B6901333A6979680A448F
S2140168B01178164AD1543B6901333B613A69FB684A
S2140168C09A42F0DB124B4FF0FF321A60104B1B68F6
S2140168D001330F4A1360FB6801331A460123009304
S2140168E0E0200A490B4BF5F7FDF903467B61084B9F
S2140168F01B68032B02DD4FF0FF337B617B69002BA6
S214016900E4D17B6918461837BD4680BD7042002029
S214016910B04200209042002080B588B002AFF860F7
S214016920B9607A6000237B6100233B61BB68DAB201
S214016930224B1A7000233B6107E03B697A681344D7
S21401694000221A703B6901333B613A69FB689A423F
S214016950F3DB1B4B4FF0FF321A60194B1B680133F8
S214016960174A1360FB680093E02014490122154B77
S214016970F5F7B8F903467B61114B1B68032B02DD63
S2140169804FF0FF337B617B69002BE6D100233B612F
S2140169900AE03B697A6813440A493A690A4412785C
S2140169A01A703B6901333B613A69FB689A42F0DB36
S2140169B07B6918461837BD4680BD00BF704200206F
S2140169C0B04200209042002080B582B000AF3B1D4F
S2140169D04FF4004019460422F5F73CFA7B68184646
S2140169E00837BD4680BD00BF80B582B000AFFFF757
S2140169F0EBFF78607B68B3F5304F03D0B3F5FC2F1F
S214016A0002D003E0002302E0012300E0FF23184642
S214016A100837BD4680BD00BF80B483B000AF0346D3
S214016A20FB71FB79012B05D0FF2B05D0002B05D17F
S214016A30012304E0002302E0012300E0FF231846BF
S214016A400C37BD465DF8047B704700BF80B400AFCD
S214016A50034B1B781846BD465DF8047B704700BFA4
S214016A60F600002080B483B000AF0346FB71FB79CB
S214016A70012B06D0FF2B07D0002B08D14FF4104373
S214016A8007E04FF4F82304E04FF0FF3301E04FF046
S214016A90FF3318460C37BD465DF8047B704700BFD0
S214016AA080B483B000AF0346FB71FB79012B06D09F
S214016AB0FF2B07D0002B08D14FF4204307E04FF4FB
S214016AC0FA2304E04FF0FF3301E04FF0FF3318469E
S214016AD00C37BD465DF8047B704700BF80B483B0B9
S214016AE000AF0346FB71FB79012B06D0FF2B07D0C5
S214016AF0002B08D14FF4304307E04FF4FC2304E0A9
S214016B004FF0FF3301E04FF0FF3318460C37BD4618
S214016B105DF8047B704700BF80B584B000AFFFF717
S214016B2063FF03461A46284B1A70274B1B781846F4
S214016B30FFF772FF03461A46244B1A70234B1B7845
S214016B401846FFF7CBFF0246214B1A60214B002265
S214016B501A60214B00221A600023FB600023FB729F
S214016B6071237B60F7F7B4FB02460B4613463B6086
S214016B700023FB6012E0164B1A68FB681B031344E4
S214016B801846F5F72BFA0346FB7297F90B30002BE4
S214016B9001DAFF2313E0FB680133FB60FA687B68C8
S214016BA09A42E8DBF7F794FB3B681A464FEAE27332
S214016BB0821A61EB0303094804F0A2FC00235BB2CE
S214016BC018461037BD4680BDF6000020F7000020AD
S214016BD0F8000020A03C00209C3C0020B06402008D
S214016BE080B582B000AF1B4B1B68002B01D1002380
S214016BF02AE00023FB7197F90730002B01DAFB79B5
S214016C0022E0154B1A68134B1B689BB210461349BA
S214016C101A46F5F73FF90346FB7197F90730002B43
S214016C2011DB0D4B1B6803F580530B4A13600C4BAD
S214016C301A68084B1B681344094A1360054B002267
S214016C401A60FB7900E0FB795BB218460837BD464F
S214016C5080BD00BF9C3C0020F8000020B44200200C
S214016C60A03C002080B586B000AF78603960002374
S214016C707B61214B1B68B3F1FF3F01D1FF2335E058
S214016C802FE03A687B69D21A1C4B1B68C3F5805308
S214016C90934228BF13463B61184B1B68184A991844
S214016CA07A687B691344084619463A690EF0EAFD8C
S214016CB07A693B6913447B61104B1A683B6913443C
S214016CC00E4A13600D4B1B68B3F5805F09D3FFF7BF
S214016CD087FF0346FB7397F90F30002B01DAFB7B26
S214016CE004E07A693B689A42CBD303235BB2184629
S214016CF01837BD4680BD00BFF80000209C3C002030
S214016D00B442002080B584B000AF0346FB80174B29
S214016D101B781846FFF7E2FEF860FB68B3F1FF3F09
S214016D2001D1FF231DE04FF6FF737B81104B1B68DB
S214016D309BB207F10A021046F9681A46F5F75EF9A2
S214016D407B890C48194604F0DBFBFB880A48194688
S214016D5004F0D6FB7B89FA889A4201D0FE2300E034
S214016D6000235BB218461037BD4680BDF7000020F1
S214016D70A03C0020C8640200F464020080B584B020
S214016D8000AF1B4B1B781846FFF76CFEF860FB68DC
S214016D90B3F1FF3F01D1FF2325E0F868F5F71EF9AF
S214016DA00346FB7297F90B30002B01DAFB7A1AE0E7
S214016DB0F86810490422F5F76DF80346FB7297F957
S214016DC00B30002B01DAFB7A0DE03B1DF868194603
S214016DD00422F5F73FF87A68064B1B689A4201D001
S214016DE0FE2300E000235BB218461037BD4680BD87
S214016DF0F7000020A03C002080B584B000AF034619
S214016E00FB801C4B1B781846FFF74AFEF860FB68B0
S214016E10B3F1FF3F01D1FF2326E0F868F5F7DEF86E
S214016E200346FB7297F90B30002B01DAFB7A1BE065
S214016E30BB1DF86819460222F5F72CF80346FB72CB
S214016E4097F90B30002B01DAFB7A0DE007F1080306
S214016E50F86819460222F4F7FDFF3A89FB889A4240
S214016E6001D0FE2300E000235BB218461037BD4672
S214016E7080BD00BFF700002080B584B000AF4FF49E
S214016E800040F5F7ABF80346FB73194B1B78184621
S214016E90FFF724FE0346BB604FF0FF337B6097F994
S214016EA00F30002B01DAFB7B1DE007F108034FF4DE
S214016EB0004019460422F4F7EDFF0346FB7397F9E9
S214016EC00F30002B01DAFB7B0DE03B1D4FF4004039
S214016ED019460422F4F7BEFF7A68BB689A4201D0CD
S214016EE0FE2300E000235BB218461037BD4680BD86
S214016EF0F700002080B584B000AF0346FB80FFF7A3
S214016F006FFE0346FB7397F90F30002B01DAFB7B0C
S214016F1048E0FFF733FF0346FB7397F90F30002B6A
S214016F2001DAFB7B3EE0FB881846FFF7EBFE0346E3
S214016F30FB7397F90F301E48194604F0E1FA97F9EA
S214016F400F30002B01DAFB7B2CE0FB881846FFF79D
S214016F5053FF0346FB7397F90F301648194604F0A2
S214016F60CFFA97F90F30002B01DAFB7B1AE0FFF717
S214016F7083FF0346FB7397F90F300F48194604F059
S214016F80BFFA97F90F30002B01DAFB7B0AE00B4BB7
S214016F901B680B48194604F0B3FA084B4FF0FF3252
S214016FA01A6001235BB218461037BD4680BD00BF8C
S214016FB0206502004465020068650200F8000020B2
S214016FC09465020080B487B000AFF860B9607A605B
S214016FD0FB6803F10473DA00BB6813449B007B6112
S214016FE07B697A681A601C37BD465DF8047B70477A
S214016FF080B485B000AF786039607B6803F10473B4
S214017000DA003B6813449B00FB60FB681B6818466C
S2140170101437BD465DF8047B704700BF80B485B069
S21401702000AF78607B68002B04D07B68B3F5004F17
S21401703000D800BF7B68B3FA83F3DBB2C3F11F034A
S214017040FB60FB6818461437BD465DF8047B704745
S21401705080B400AF044BDB6C1B0EDBB21846BD469A
S2140170605DF8047B704700BFB081E00F80B400AFCD
S214017070054BDB6C03F47F031B0CDBB21846BD46E5
S2140170805DF8047B704700BFB081E00F80B582B029
S21401709000AFFFF7EBFF03464A2B04D0792B02D053
S2140170A0482B21D022E0144B1B699BB203F03F030F
S2140170B09BB21B02FB80104B9B6903F0F0039AB254
S2140170C0FB881343FB800C4BDB6903F0F0031B09C1
S2140170D09AB2FB881343FB80FB88B3F5017F01D38B
S2140170E0064B04E0064B02E0054B00E00023184681
S2140170F00837BD4680BD00BFD0FF0FE000366E01E9
S2140171000048E80180B584B000AF78600123FB60D9
S214017110FFF7BCFF02467B689A4204D30023FB605C
S2140171200023BB600BE0FFF7B1FF03465A007B6804
S2140171309A4202D30123BB6001E00223BB600848E8
S2140171401E21FA68FFF73EFF0549054B5B6823F4ED
S2140171508072BB681B0213434B601037BD4680BD6F
S21401716000800C4080B582B000AF05481E21FFF7B5
S2140171703FFF78607B6818460837BD4680BD00BF74
S21401718000800C4080B582B000AF214B5B6903F4F0
S214017190E063B3F5007F1CD0B3F5007F05D8002B64
S2140171A025D0B3F5807F1FD02AE0B3F5C06F24D079
S2140171B0B3F5E06F1ED0B3F5407F21D1FFF748FF4E
S2140171C00346122B02D9134B7B601CE0124B7B60EB
S2140171D019E0FFF73DFF0346122B02D90F4B7B60E8
S2140171E011E00F4B7B600EE00E4B7B600BE00E4B0D
S2140171F07B6008E00D4B7B6005E00D4B7B6002E099
S21401720000237B6000BF7B6818460837BD4680BDFB
S21401721000800C40804F120040420F0040B56400D1
S214017220C0CF6A00C0D8A700809FD500406F40013C
S214017230003FAB0180B582B000AF0D4800F04EFBB9
S2140172400346FB70FB78072B05D0092B07D1F3F714
S214017250F7FF786006E0FFF795FF786002E000230D
S2140172607B6000BF7B6818460837BD4680BD00BFFF
S21401727006000E0080B485B000AF78603960204B00
S2140172805B6803F00703FB60FB68012B01D9042B45
S21401729002D10023FB7202E00123FB7200BF7B6870
S2140172A0184A934207D9FB7A002B01D0052300E048
S2140172B00423FB6016E07B68124A93420BD87B6876
S2140172C0114A934207D9FB7A002B01D0032300E031
S2140172D00123FB6006E0FB7A002B01D0022300E0CD
S2140172E00023FB600649064B5B6823F00702FB6838
S2140172F013434B601437BD465DF8047B704700BFEF
S21401730000000C400048E8010024F40080B582B07B
S21401731000AF0D4BDB6B002B14BF01230023FB7169
S214017320094B41F67132DA63F3F780FF03461846DC
S2140173300021FFF79FFFFB79002B02D0024B0022B2
S214017340DA630837BD4680BD00000C4080B584B0C6
S21401735000AF786039600C4BDB6B002B14BF012348
S2140173600023FB73084B41F67132DA63786839689B
S214017370FFF780FFFB7B002B02D0034B0022DA6372
S2140173801037BD4680BD00BF00000C4090B585B0EB
S21401739000AF78600023BB607B68344A934203D019
S2140173A0334A934200D000E000BF786800F096FAB6
S2140173B00346FB607B682D4A934203D02C4A9342D6
S2140173C006D00CE02B4B9B6A03F00303FB6006E040
S2140173D0284B9B6A03F00C039B08FB6000BFFB680D
S2140173E0032B3AD801A252F823F000BF2374010000
S2140173F0FD730100057401000D740100F3F7D0FF61
S214017400B8602DE0F3F7E0FFB86029E0F3F7F4FE8B
S2140174100446FFF7A7FE0346013324FA03F3BB60D5
S2140174201EE00023BB607B68104A934203D07B6852
S2140174300F4A934210D10F4B9A6A7B680B498B42D5
S21401744001D1102300E0142322FA03F3002B03D00A
S214017450F3F7B0FFB86003E002E00023BB6000BFB3
S214017460BB6818461437BD4690BD00BF02001E001B
S2140174700300200000800C4080B483B000AF786029
S214017480094B5B6D03F00103002B00D006E000BF43
S214017490054B1A6D7B681340002BF9D10C37BD469E
S2140174A05DF8047B704700BF00800C4080B400AFDD
S2140174B0BD465DF8047B704780B400AFBD465DF8FD
S2140174C0047B704780B584B000AF786039607B6814
S2140174D01B0903F00F03FB60FB68013B082B00F25E
S2140174E0D48001A252F823F00D7501008B760100BD
S2140174F08B760100437501008B7601008B760100C7
S2140175006D750100BB750100377601003B68002BE5
S21401751003D03B68082B00D800BFFFF7F7FE5D4994
S2140175205C4B1B6823F4E0323B68013B9B0313432F
S2140175300B60F3F761FEB860B8680021FFF706FF3D
S214017540A4E03B68002B04D03B68B3F5007F00D86D
S21401755000BF3868FFF762FD38604E494D4B9B68A7
S21401756023F00F023B6813438B608FE03B68002BD0
S21401757004D03B68B3F5007F00D800BFFFF7C6FE16
S214017580F3F75EFE02463B68B2FBF3F31846FFF7DD
S214017590B9FD3868FFF742FD38603E493D4B5B68F0
S2140175A023F00F023B6813434B60F3F725FEB860E8
S2140175B0B8680021FFF7CAFE68E07B68364A934246
S2140175C017D0364A934225D0354A934200D031E04F
S2140175D00420FFF751FF3868FFF720FD38602D497A
S2140175E02C4B9B6E23F0F0023B681B0113438B660A
S2140175F020E00420FFF740FF3868FFF70FFD3860F2
S2140176002449244B9B6E23F470623B681B02134390
S2140176108B660FE00420FFF72FFF3868FFF7FEFCAC
S21401762038601C491B4B9B6E23F003023B681343D7
S2140176308B6600BF2AE07B681A4A934203D01A4A37
S214017640934210D020E04020FFF716FF3868FFF77E
S214017650E5FC38600F490F4B1B6F23F003023B68B4
S21401766013430B6710E04020FFF706FF3868FFF76B
S214017670D5FC38600749074B1B6F23F030023B6887
S2140176801B0113430B6700BF00E000BF1037BD4668
S21401769080BD00BF00800C408026160080062E00AC
S2140176A08016120090071A0090171C0080B586B04D
S2140176B000AF78600B46FB7000233B617B681B0ABA
S2140176C003F00F03013B092B45D801A252F823F022
S2140176D00D77010013770100F97601005777010055
S2140176E057770100197701002377010057770100CA
S2140176F0577701002D770100194B7B61194800F07F
S2140177003DF803461846FFF7FDFC12E0164B7B6179
S2140177100FE0164B7B610CE0154B7B6101233B614F
S21401772007E0144B7B6110233B6102E0124B7B6147
S21401773000BF7B681B0B03F01F03FB603B69002B3C
S21401774002D03869FFF798FEFB787869F9681A461F
S214017750FFF738FC00E000BF1837BD4680BD00BF0C
S21401776040800C400043020008800C4044800C40DE
S21401777058800C4060800C4078800C4080B584B006
S21401778000AF78607B6803F47813B3F5901F45D09B
S214017790B3F5901F12D8B3F5802F2AD0B3F5802FFA
S2140177A005D8002B21D0B3F5003F2ED087E0B3F5E6
S2140177B0602F7CD0B3F5801F7DD080E0B3F5E01F4D
S2140177C067D0B3F5E01F06D8B3F5B01F34D0B3F5D4
S2140177D0D01F51D073E0B3F5001F48D0B3F5381F62
S2140177E038D0B3F5F01F14D069E0F3F729FDF8603F
S2140177F068E0F3F725FDF860354B9B6803F00F034F
S2140178001A46FB68D340FB605CE0F3F7F5FCF860D2
S21401781058E03048FFF7BAFDF86053E02D48FFF70F
S214017820B5FDF8602A4B9B6E03F0F0031B091A4660
S214017830FB68D340FB6045E02648FFF7A7FDF860EC
S214017840234B9B6E03F470631B0A1A46FB68D340F6
S214017850FB6037E01F48FFF799FDF8601C4B9B6EF5
S21401786003F003031A46FB68D340FB602AE01A487C
S214017870FFF78CFDF86025E01748FFF787FDF860F5
S214017880134B1B6F03F003031A46FB68D340FB60E0
S21401789018E01148FFF77AFDF8600D4B1B6F03F0F7
S2140178A030031B091A46FB68D340FB600AE0FFF76A
S2140178B0C1FCF86006E0FFF765FCF86002E0002313
S2140178C0FB6000BFFB6818461037BD4680BD00BF91
S2140178D000800C4002001E000300200080B485B02A
S2140178E000AF78600123FB737B6803F00F03BB6076
S2140178F0BB68013B052B77D801A252F823F000BFE5
S214017900197901004F7901008B790100E9790100AD
S214017910E9790100C7790100384BDB6A03F470533B
S214017920B3F5805F09D0B3F5005F03D0B3F5006F00
S21401793006D008E00223FB7308E00323FB7305E08F
S2140179400423FB7302E00523FB7300BF4FE02B4BC0
S2140179509B6A03F00303022B06D0032B07D0012BEF
S21401796008D10323FB730FE00223FB730CE006230D
S214017970FB7309E0214B9B6A03F48033002B02D092
S2140179800A23FB7300E000BF31E01C4B9B6A03F047
S2140179900C03082B06D00C2B07D0042B08D103238D
S2140179A0FB730FE00223FB730CE00623FB7309E075
S2140179B0124B9B6A03F48013002B02D00A23FB733D
S2140179C000E000BF13E00D4B1B6803F08053002B53
S2140179D003D0B3F1805F03D009E00723FB7302E015
S2140179E00923FB7300BF02E00023FB7300BFFB7B90
S2140179F018461437BD465DF8047B704700800C407E
S214017A0080B588B000AF78600B46FB700323FB613E
S214017A100323FB7600233B617B6803F00F03FB60C7
S214017A20FB68013B052B00F2F48001A252F823F01B
S214017A30497A0100277B0100277B0100137C0100A6
S214017A40137C0100E97B0100FB78023B082B00F266
S214017A50E28001A252F823F07D7A0100877A0100C4
S214017A60917A0100D37A0100177C0100177C01008E
S214017A70177C0100177C0100177C01000423FB61C1
S214017A800023FB7631E00323FB610123FB762CE028
S214017A900223FB610223FB76FFF7F8FA0346013364
S214017AA01846FFF72FFBF3F74BFC02465D4B9A4255
S214017AB006D95D4A5C4B1B6843F06003136014E013
S214017AC0594A594B1B6823F0600343F020031360A7
S214017AD00BE00123FB610323FB76FFF7D7FA03468E
S214017AE001331846FFF70EFB00BFFB7E1846012147
S214017AF0012200F09FF8FFF709FCFFF7D7FC4A4A7E
S214017B00FB6953624948FFF739FE03461846FFF7FB
S214017B10F9FAF3F771FBB860B8680021FFF716FCB5
S214017B20FFF7CAFC7AE0FB78013B092B75D801A266
S214017B3052F823F05D7B0100637B0100737B01003B
S214017B401B7C01001B7C0100837B01001B7C010068
S214017B501B7C01001B7C01009F7B010000237B61D5
S214017B6022E000200121012200F064F802237B615B
S214017B701AE001200121012200F05CF801237B615B
S214017B8012E0F3F739FBB860B868FFF7BBFA28488C
S214017B9004210122FFF716FA03237B6104E0002388
S214017BA07B6101233B6100BFFB68022B0DD11E499F
S214017BB01D4B9B6A23F4803323F003037A691A432F
S214017BC03B691B0413438B6228E01749164B9B6ADB
S214017BD023F4801323F00C037A6992001A433B695D
S214017BE01B0513438B6219E0FB78072B02D0092B88
S214017BF007D013E00C4A0C4B1B6823F0805313602C
S214017C0006E0094A084B1B6843F08053136000BF27
S214017C1004E000BF02E000BF00E000BF2037BD4621
S214017C2080BD00BF0048E80100800C400043020010
S214017C3040800C4080B586B000AF0346FB710B4612
S214017C40BB7113467B71FB79042B48D801A252F80D
S214017C5023F000BFA17C0100937C0100777C01002A
S214017C60697C0100857C010001233B610223FB60E6
S214017C7001237B611DE004233B610823FB60032392
S214017C807B6116E010233B612023FB6005237B61AB
S214017C900FE040233B618023FB6007237B6108E004
S214017CA04FF480733B614FF40073FB6009237B61E3
S214017CB000BFBB79002B0ED00B4A3B6913627B7960
S214017CC0002B0DD000BF09487969FFF791F90346EB
S214017CD0002BF8D004E0044AFB68136200E000BF02
S214017CE01837BD4680BD00BF00800C402C800C407C
S214017CF080B483B000AFEFF310833B603B687B60DA
S214017D0072B67B6818460C37BD465DF8047B704733
S214017D1080B483B000AF78607B68002B00D162B678
S214017D200C37BD465DF8047B704700BF80B483B056
S214017D3000AF0346FB7197F90730002B0BDB0849B0
S214017D4097F907305B09FA7902F01F02012000FA61
S214017D5002F241F823200C37BD465DF8047B7047DC
S214017D6000E100E080B483B000AF0346FB7197F9F1
S214017D700730002B10DB0B4997F907305B09FA79BE
S214017D8002F01F02012000FA02F2203341F82320FC
S214017D90BFF34F8FBFF36F8F0C37BD465DF8047B83
S214017DA0704700BF00E100E080B483B000AF034637
S214017DB0FB7197F90730002B0CDB094997F907305F
S214017DC05B09FA7902F01F02012000FA02F2603321
S214017DD041F823200C37BD465DF8047B704700BF91
S214017DE000E100E080B487B000AFF860B9607A6067
S214017DF0FB6803F10473DA00BB6813449B007B61E4
S214017E007B697A681A601C37BD465DF8047B70474B
S214017E1080B489B000AF7860084611461A4603461A
S214017E20FB700B46BB7013467B707B681A013C4B9C
S214017E309B681344BB61BB78002B02D0BB69FB6116
S214017E4005E07B681A01364BDB681344FB61BB69AE
S214017E50DB687B617B69002B02D0BA787B691A727A
S214017E60FB6A002B14D0FB699B6803F040639B0EF2
S214017E703B613B69032B03D1FB69FA6A1A6007E091
S214017E803B693A6B9A40FB6A13441A46FB691A60CF
S214017E90BB6A002B12D0FB699B689B0F3B613B6959
S214017EA0032B03D1FB69BA6A5A6007E03B693A6B58
S214017EB09A40BB6A13441A46FB695A607B680122E2
S214017EC002FA03F3FB607B78002B03D0144AFB68AD
S214017ED0936102E0124AFB68D361BB78002B03D0A2
S214017EE00F4AFB68536302E00D4AFB681363FB69A4
S214017EF09B6823F47F5323F03703BB603B6B1B0166
S214017F00BA681343BB60FB78BA681343BB60FB696E
S214017F10BA689A602437BD465DF8047B704700BF97
S214017F2000200C4080B58AB000AF334B03F5805378
S214017F301B68BB61304B03F580530C331B68BA6971
S214017F401340BB612C4B9B6B7B61BA697B69134009
S214017F503B620023FB6149E000237B623BE03B6A16
S214017F6003F00103002B30D0234B9B683B610122B9
S214017F707B6A02FA03F3FB601F4B03F58053083359
S214017F80FA681A607B6A1B013A691344DB68BB60B6
S214017F90BB68002B19D0BB681B7A7B60BB681B7A59
S214017FA083F00103DAB2BB681A72BB681B68002B48
S214017FB00BD0BB681B68786A7A68002A14BF012256
S214017FC00022D1B2BA68526898473B6A5B083B62A6
S214017FD07B6A01337B623B6A002BC0D17B69DA4343
S214017FE0BB6913403B62FB690133FB61FB69012BF3
S214017FF0B2DD2837BD4680BD00200C4090B589B063
S21401800004AFF8607B600B46FB721346BB72FA7ACC
S214018010BC7A7B6800933B6A01937B6A0293F8689B
S21401802001212346FFF7F4FE044AFB68012101FA09
S21401803003F393621437BD4690BD00BF00200C4089
S21401804090B589B004AFF8607A603B600B46FB726E
S214018050FC7A7B6A0093BB6A0193FB6A0293F86819
S214018060032100222346FFF7D3FEFC7A7B680093A8
S2140180703B6801933B6A0293F86803210122234679
S214018080FFF7C6FE044AFB68012101FA03F3936277
S2140180901437BD4690BD00BF00200C4080B584B0AB
S2140180A000AF786039601F4B9B68FB607B681B01E3
S2140180B0FA6813443A689268DA603B681B78002BCA
S2140180C006D0184A7B68012101FA03F3936305E0A1
S2140180D0144A7B68012101FA03F3D36311493B6813
S2140180E05A687B6803F5886341F823203B685B7810
S2140180F0002B0FD00B4A7B68012101FA03F31946C6
S21401810002F5805308331960074879680122FFF7A2
S21401811069FE04E0044879680022FFF763FE103721
S214018120BD4680BD00200C400C300C4080B487B0AA
S21401813000AFF8600B467A60FB72FB7A002B03D027
S214018140154B9B687B6102E0134BDB687B61FB6828
S2140181501B017A6913447B617B681B789A077B68ED
S2140181609B781B071A437B685B789B061A437B68E0
S2140181709B781B0613431A467B681B799B041343A3
S2140181807A68D27892031A437B699A601C37BD4697
S2140181905DF8047B704700BF00200C4080B483B0BC
S2140181A000AF7860084B9A6A7B6822FA03F303F003
S2140181B00103002B14BF01230023DBB218460C3742
S2140181C0BD465DF8047B704700200C4080B582B048
S2140181D000AF78600B46FB70FB78002B05D0074894
S2140181E079680122FFF7FEFD04E00548796801225F
S2140181F0FFF7F8FD0837BD4680BD00BF24200C40C0
S21401820020200C4080B582B000AF78601048012174
S214018210FFF74CFA00F09CF80020FFF7C5FD0020A0
S214018220FFF784FD0B4B03F580530C334FF00042F0
S2140182301A60084A7B685B689360064A7B681B780D
S2140182405B0143F0010353600837BD4680BD00BFA4
S2140182500003020000200C4080B48BB000AFF86031
S2140182607B600B46FB721346BB7297F83830002BC7
S21401827003D0012387F8273002E0032387F827304D
S214018280FB7A002B06D0FB681A01304B9B6813441F
S2140182903B6205E0FB681A012C4BDB6813443B622A
S2140182A03B6B002B14D03B6A9B6803F040639B0E2C
S2140182B0FB61FB69032B03D13B6A3A6B1A6007E04B
S2140182C0FB697A6B9A403B6B13441A463B6A1A6009
S2140182D07B68002B12D03B6A9B689B0FFB61FB6996
S2140182E0032B03D13B6A7A685A6007E0FB697A6B15
S2140182F09A407B6813441A463B6A5A60FB6801221F
S21401830002FA03F3BB61BB7A002B03D00F4ABB69A9
S214018310936102E00D4ABB69D3613B6A9B6823F413
S2140183207F5323F037037B617B6B1B017A69134311
S2140183307B6197F827307A6913437B613B6A7A69D8
S2140183409A602C37BD465DF8047B704700200C40D0
S21401835080B582B000AF0020FFF704FD1C4B002261
S2140183605A601B4B40F6FF72DA61194B40F6FF72FA
S2140183705A62174B40F6FF72DA62154B40F6FF72EF
S2140183805A63134B40F6FF72DA63114B0122DA642B
S2140183900F4B03F580530C3300221A600C4B03F588
S2140183A0805308330B4A1A6000237B6009E0084AB1
S2140183B07B6803F58863002142F823107B6801334C
S2140183C07B607B680B2BF2DD0837BD4680BD00BFA6
S2140183D000200C40FF0F008080B487B000AFF8602B
S2140183E0B9607A60FB6803F10473DA00BB68134472
S2140183F09B007B617B697A681A601C37BD465DF815
S214018400047B704780B485B000AFF860B9607A60CD
S214018410FB681A68BB68DB431A407B681A43FB6833
S2140184201A601437BD465DF8047B704780B483B08C
S21401843000AF7860044A7B68C2F81C310C37BD4631
S2140184405DF8047B704700BF0060004080B483B0D5
S21401845000AF03463960FB71FB79002B0DD0FB7929
S214018460012B0AD0FB79022B07D0FB79032B04D012
S214018470FB79042B01D0FB79052B0949FA793B6876
S214018480012000FA03F318461346DB0013449B0051
S2140184900B44103358600C37BD465DF8047B7047BB
S2140184A00060004080B483B000AF03463960FB71C2
S2140184B0FB79002B0DD0FB79012B0AD0FB79022B1F
S2140184C007D0FB79032B04D0FB79042B01D0FB7971
S2140184D0052B0949FA793B68012000FA03F318468F
S2140184E01346DB0013449B000B44103318600C3713
S2140184F0BD465DF8047B70470060004080B586B0DD
S21401850000AFB9607A601A460346FB731346BB7325
S21401851000237B61FB7B002B0DD0FB7B012B0AD05C
S214018520FB7B022B07D0FB7B032B04D0FB7B042BAE
S21401853001D0FB7B052B7B68072B0ED87B689B0045
S2140185401A46072303FA02F1FB7B7A6892009340EE
S21401855019481A46FFF756FF10E07B68083B7B6117
S2140185607B699B001A46072303FA02F1FB7B7A69B3
S2140185709200934011481A46FFF744FFBB7B104810
S21401858079681A46FFF728FF97F820300D48796872
S2140185901A46FFF721FF7B68012202FA03F3184609
S2140185A0FFF744FF97F82430074879681A46FFF723
S2140185B013FF1837BD4680BD0061004004610040CE
S2140185C0086100400C6100401061004090B585B024
S2140185D000AFB9607B600346FB731346BB73FB7B3E
S2140185E0002B0DD0FB7B012B0AD0FB7B022B07D087
S2140185F0FB7B032B04D0FB7B042B01D0FB7B052BE1
S214018600BB7B002B0DD07B68002B05D0FB7B18466F
S214018610B968FFF747FF04E0FB7B1846B968FFF728
S21401862015FFBB68072B1CD82A4CFA7B2948F97B17
S2140186300B46DB000B449B0003445968BB689B0058
S21401864018460F238340DB430B40B97BB868800094
S214018650814019431346DB0013449B0023445960B1
S21401866024E01C4CFA7B1B48F97B0B46DB000B44D1
S2140186709B00034408331968BB6803F18043083B39
S2140186809B0018460F238340DB431940B87BBB6829
S21401869003F18043083B9B0000FA03F3194313469A
S2140186A0DB0013449B00234408331960BB7B002B7B
S2140186B00DD17B68002B05D0FB7B1846B968FFF708
S2140186C0F1FE04E0FB7B1846B968FFF7BFFE1437DE
S2140186D0BD4690BD0060004080B483B000AF7860B6
S2140186E039607B683A681A630C37BD465DF8047BCF
S2140186F0704700BF80B487B000AFF860B9607A6099
S214018700FB6803F10473DA00BB6813449B007B61CA
S2140187107B697A681A601C37BD465DF8047B704732
S21401872080B485B000AFF860B9607A60FB681A68FB
S214018730BB68DB431A407B681A43FB681A60143730
S214018740BD465DF8047B704780B483B000AF7860A7
S21401875001E07B68DB697B68DB6803F48073002BD0
S214018760F7D10C37BD465DF8047B704780B588B0FD
S21401877000AFF860B9607A60FB707B68002B00D1AF
S21401878079E0FB7803F00303FB70FB681B6823F4B6
S2140187904072FB681A60FA68FB781B0210464FF4B9
S2140187A040711A46FFF7BCFFBB68002B10D1FB686F
S2140187B0324A934204D13248FEF7E0FFB86007E040
S2140187C0FB68304A934203D12F48FEF7D7FFB860C3
S2140187D04FF0FF33BB61FB681B6803F00203002BFD
S2140187E011D0FB78012B07D0022B08D0002B00D02C
S2140187F008E0264BBB6105E0254BBB6102E0254B3B
S214018800BB6100BF10E0FB78012B07D0022B08D01C
S214018810002B00D008E0204BBB6105E01F4BBB617D
S21401882002E01F4BBB6100BFFB781E4AD35C7B6135
S2140188307B697A6802FB03F33B613B69002B00D13D
S21401884019E07B689B00BA68D21A3B6913445A1E2A
S2140188503B69B2FBF3F3013BFB61FB681B6803F06A
S2140188600203002B04D0FB69002B01D10123FB611D
S214018870FA69FB681A612037BD4680BD00A000403A
S21401888000B2040000A4004000C2040040164000EC
S214018890C0D8A7008050740180841E00405489000F
S2140188A0002D31019C65020080B582B000AF786072
S2140188B00B46FB707B68094A934203D07B68084AE3
S2140188C0934200D100BF7A68FB78104600211A4611
S2140188D0FFF710FF0837BD4680BD00BF00A000406F
S2140188E000A4004080B582B000AF786039607B6834
S2140188F0164A934203D07B68154A934200D100BFC3
S2140189007B6800225A6378681249FFF7E5FE7A68A9
S2140189103B685B78002B01D0002300E00123104662
S21401892001211A46FFF7E6FE3B6859683B689A68DC
S2140189303B681B7B7868FFF719FF3B681B787868F4
S2140189401946FFF7B1FF0837BD4680BD00A00040BD
S21401895000A40040FFFF010080B588B000AF78603A
S2140189607B68A04A934203D07B689F4A934200D11A
S21401897000BF7B689B4A934202D19C4BBB6108E0D7
S2140189807B68994A934202D1994BBB6101E0FC2373
S21401899009E2BB699B687B617B689B6A3B613B69BB
S2140189A003F4C063002B14D03B6903F40073002B5F
S2140189B003D0BB69FD225A7007E03B6903F480636C
S2140189C0002B02D0BB69FE225A70BB6909221A70BD
S2140189D0D5E1BB691B78082B00F2C98101A252F8C8
S2140189E023F000BF098A01005B8A0100E58A0100C5
S2140189F03B8B01008D8B0100F58B01007D8C010006
S214018A00BF8C0100518D01007B695B8803F0100368
S214018A10002B09D07B691B881B0A9BB203F0060357
S214018A2043F0F003FB610EE07B691B8803F0FE0355
S214018A30FB617B695B8803F00203002B03D0FB69B3
S214018A4043F00103FB61BB6901221A707B68FA6976
S214018A505A627B6801225A6091E13B6903F0800308
S214018A60002B0DD078688021FFF736FEBB69FF2208
S214018A705A70BB6908221A707B6802225A6030E07D
S214018A803B6903F04003002B2BD078684021FFF7A9
S214018A9023FE7B695B8803F01003002B08D0BB69BB
S214018AA002221A707B691B88DAB27B685A6218E068
S214018AB07B695B8803F00203002B0ED0BB6907229B
S214018AC01A70BB691B797A69DB0013441B89012B79
S214018AD007D17B6808225A6051E1BB6905221A70EA
S214018AE04CE14CE13B6903F08003002B0DD0786824
S214018AF08021FFF7F1FDBB69FF225A70BB6908228E
S214018B001A707B6802225A6016E03B6903F0400344
S214018B10002B11D078684021FFF7DEFD7B695B886A
S214018B2003F00203002B03D0BB6903221A7025E170
S214018B30BB6905221A7021E121E17B695B8803F09C
S214018B401003002B09D07B691B881B0A9BB203F01C
S214018B50060343F0F003FB6104E07B691B8803F026
S214018B60FE03FB617B695B8803F00403002B03D0E3
S214018B70FB6943F00103FB61BB6904221A707B6841
S214018B8001225A607B68FA695A62F8E03B6903F091
S214018B908003002B0DD078688021FFF79DFDBB690F
S214018BA0FF225A70BB6908221A707B6802225A603B
S214018BB016E03B6903F04003002B11D07868402192
S214018BC0FFF78AFD7B695B8803F00403002B03D063
S214018BD0BB6907221A7003E0BB6905221A70CDE053
S214018BE0CDE000BF00A0004000A40040A43C00204F
S214018BF0B03C0020BB695A88BB691B797969DB00E8
S214018C000B441B899A4224D3BB6900225A80BB6954
S214018C101B790133DAB2BB691A717B695B8803F091
S214018C200403002B03D0BB6903221A70A6E07B69FC
S214018C305B8803F00103002B03D1BB691B79012B71
S214018C4006D9BB6908221A707B6802225A6096E030
S214018C5094E0BB691B797A69DB0013445A68BB69E7
S214018C605B88591C88B2B969488013441B781A4638
S214018C707B685A62BB6906221A7080E03B6903F082
S214018C808003002B0DD078688021FFF725FDBB6996
S214018C90FF225A70BB6908221A707B6802225A604A
S214018CA00CE03B6903F04003002B07D078684021B5
S214018CB0FFF712FDBB6905221A705FE05FE03B69B2
S214018CC003F02003002B42D0BB691B797A69DB00D5
S214018CD013441B89FB607B68DB69FB72BB695B889D
S214018CE01A46FB689A420ED2BB691B797A69DB0089
S214018CF013445A68BB695B88591C88B2B9694880B5
S214018D001344FA7A1A70BB695B881A46FB689A4262
S214018D100CD3FB68012B02D17B6808225A60BB6921
S214018D2008221A707B6802225A6010E07B680422CF
S214018D305A60FB68012B0AD9BB695B881A46FB6837
S214018D40013B9A4203D17B6808225A6017E016E07D
S214018D503B6903F48073002B08D078684FF4807168
S214018D60FFF7BAFCBB6909221A7008E007E0BB6985
S214018D70FB225A70BB6909221A7000E00CE6BB6937
S214018D801B78092B0BD17B6800225A63BB695B7881
S214018D905BB2012B05D1BB6900225A7001E00123A9
S214018DA001E0BB695B785BB218462037BD4680BDE3
S214018DB080B584B000AF786039607B682F4A9342F3
S214018DC003D07B682E4A934200D100BF7B682B4AB2
S214018DD0934202D12B4BFB6008E07B68284A934202
S214018DE002D1294BFB6001E0FC2341E07B689B68D4
S214018DF003F00103002B02D07B6820225A603B68F7
S214018E005B8803F00203002B03D03B681B89002B11
S214018E1009D03B685B8803F00403002B05D03B6850
S214018E201B8A002B01D1FC2322E0FB6800221A706A
S214018E30FB6801225A70FB6800225A80FB680022F8
S214018E401A71FB683A689A607B68C0225A60786833
S214018E50FFF77AFC78680D49FFF73EFC7B685B6B91
S214018E6043F4FC627B685A637868FFF775FD034636
S214018E705BB218461037BD4680BD00BF00A000405B
S214018E8000A40040A43C0020B03C0020FFFF0100ED
S214018E9080B485B000AF786039600023FB603B6822
S214018EA01B7883F00103DBB2002B08D07B689B683C
S214018EB003F00103002B02D07B6802225A603B6854
S214018EC05B78002B03D0FB6843F48053FB603B6860
S214018ED09B78002B03D0FB6843F48063FB603B6800
S214018EE0DB78002B03D0FB6843F40063FB603B6830
S214018EF01B79002B03D13B68DB68002B07D0FB688E
S214018F0043F40073FB603B68DA687B681A613B6870
S214018F105B79002B03D0FB6843F48073FB603B68EE
S214018F209B79002B03D0FB6843F04003FB603B6852
S214018F30DB79002B03D0FB6843F08003FB603B68C2
S214018F401B7A9B001A46FB681343FB603B685B7AFF
S214018F501B011A46FB681343FB603B689B7A1A4663
S214018F60FB681343FB607B68FA681A603B681B78F2
S214018F70002B08D07B689B6803F00103002B02D10D
S214018F807B6801225A601437BD465DF8047B704742
S214018F9080B483B000AF786039607B681B6C03F0E7
S214018FA00103002B00D006E000BF7B685A6C3B68CB
S214018FB01340002BF9D10C37BD465DF8047B704792
S214018FC080B582B000AF78600B46FB7000BF7B684F
S214018FD09B6803F01003002BF9D078684021FFF757
S214018FE0D7FFFA787B689A620837BD4680BD00BF16
S214018FF080B582B000AF284B41F67132DA63264A5B
S214019000254B9B6823F0010393604FF48010FEF715
S214019010B5FB78607B68214A93421CD97A6813466F
S2140190209B0013445B0013441D4AA2FB0323DB0889
S2140190307B607B681B4AA2FB03239B0C01333B60CE
S2140190401549154B1B6D23F4803323F03F033A6813
S21401905013430B651DE07A681346DB009B1ADB00A1
S2140190609B1A0F4AA2FB0323DB087B607B680D4A31
S214019070A2FB03239B0C01333B600749064B1B6D88
S21401908023F4803323F03F033A68134343F48033D9
S2140190900B650837BD4680BD00000C40804F1200AE
S2140190A0CDCCCCCC83DE1B4380B400AF064A064B46
S2140190B09B6823F001039360034B0022DA63BD46ED
S2140190C05DF8047B704700BF00000C4080B487B099
S2140190D000AFF860B9607A60FB6803F10473DA00E8
S2140190E0BB6813449B007B617B697A681A601C37F6
S2140190F0BD465DF8047B704780B400AF034B002289
S2140191009A60BD465DF8047B704700BF00600C4066
S21401911080B400AF034B4AF6E8529A60BD465DF84C
S214019120047B704700600C4080B582B000AF0F4BE7
S21401913001229A600E4B9B6803F001037B607B68FB
S214019140002B01D0FFF7E4FF0A4800210122FFF7B8
S214019150BDFF084800210022FFF7B8FF7B68002BFF
S21401916001D0FFF7C9FF0837BD4680BD00A00C40FF
S21401917000600C4024600C4080B485B000AF174BF3
S2140191805B687B600023FB600023BB601CE0144A25
S214019190BB68DB0013445B683B60114ABB6852F84E
S2140191A033207B681340002B0BD07A683B68134052
S2140191B0002B06D10A4ABB6852F83330FA681343CB
S2140191C0FB60BB680133BB60BB680F2BDFD9FB6854
S2140191D018461437BD465DF8047B704700A00C4066
S2140191E0A065020080B487B000AFF860B9607A600D
S2140191F0FB6803F10473DA00BB6813449B007B61D0
S2140192007B697A681A601C37BD465DF8047B704737
S21401921080B485B000AF78607B68002B02D0012B4C
S21401922004D007E0084B9B68FB6006E0064BDB6852
S214019230FB6002E00023FB6000BFFB6818461437A2
S214019240BD465DF8047B70470000084080B485B0D9
S21401925000AF786039607B68002B02D0012B03D009
S21401926008E0074BFB6002E0064BFB6000BFFB68B3
S2140192703A681A601437BD465DF8047B704700BF34
S214019280080008400C00084080B582B000AF0346D5
S214019290FB71FB79034800211A46FFF7A3FF083745
S2140192A0BD4680BD0000084080B485B000AF786040
S2140192B07B681B78002B02D00123FB6001E00023B2
S2140192C0FB607B685B78002B03D0FB6843F00203EE
S2140192D0FB607B689B78002B03D0FB6843F004039C
S2140192E0FB60044AFB6813601437BD465DF8047BD7
S2140192F0704700BF0000084080B500AF0020FFF7B0
S214019300C3FF0120FFF7C0FF80BD00BF80B485B05A
S21401931000AF78601A4B5B69DBB203F00F03DBB278
S2140193209B00FB73164B1B6903F0C0039B09DAB263
S214019330FB7B1343FB737B68FA7B9A70104B1B69AC
S214019340DBB203F03F03DAB27B685A700C4B9B69C1
S21401935003F0F0031B09DBB21B01FB73084BDB694F
S21401936003F0F0031B09DAB2FB7B1343FB737B6844
S214019370FA7B1A701437BD465DF8047B704700BF50
S214019380D0FF0FE080B483B000AF78600B46FB706F
S214019390FB7843F010027B689A650C37BD465DF892
S2140193A0047B704780B586B000AFF860B9607A601C
S2140193B0FB70BB68002B03D12448FEF7DFF9B860C9
S2140193C0FB78202B0CD0202B02DC002B05D03AE0BA
S2140193D0402B08D0602B09D035E010237B6108E0D4
S2140193E008237B6105E006237B6102E004237B61A1
S2140193F000BFBB689A007B69796801FB03F35B08D1
S21401940013443B617B697A6802FB03F33A69B2FB5A
S214019410F3F33B613B69043B3B613B699B013B6169
S2140194203A690B4B13403B61FB681B6823F06002F3
S214019430FB681A60FB681A68FB781A43FB681A60B7
S214019440FB683A695A611837BD4680BD4081040001
S214019450C0FF1F0080B485B000AF78600B46FB707C
S2140194607B680F4A934207D07B680E4A934203D02B
S2140194707B680D4A934200D100BFFB78DB43FB605B
S214019480FB6803F00503FB60FB685A007B68DA6043
S214019490FA787B68DA601437BD465DF8047B70475E
S2140194A000C0004000C4004000C8004080B582B043
S2140194B000AF786039607B68244A934207D07B68A6
S2140194C0234A934203D07B68224A934200D100BFCD
S2140194D0786800F041F83B689B7C002B05D07B68E0
S2140194E01B6843F080427B681A603B68DB7C002B7C
S2140194F005D03B681B7D78681946FFF743FF3B683C
S2140195005B7B1A463B681B8A13433A68D2891A4327
S2140195107B685A603B6859683B689A683B681B7B66
S2140195207868FFF73FFF3B685B7D002B05D07B68C3
S2140195301B6843F480327B681A603B681B781A46C6
S2140195407B68DA600837BD4680BD00BF00C00040BA
S21401955000C4004000C8004080B483B000AF78600B
S2140195607B68204A934207D07B681F4A934203D008
S2140195707B681E4A934200D100BF7B6840F6AA6210
S214019580DA607B6800221A607B6841F205025A6045
S2140195907B6800229A607B6800225A617B68002201
S2140195A0DA647B6841F6F9729A647B6800225A6530
S2140195B07B680C4A934202D17B6800221A657B685D
S2140195C000229A657B68084A934203D07B68074A63
S2140195D0934202D17B680022DA650C37BD465DF8FE
S2140195E0047B704700C0004000C4004000C8004033
S2140195F080B483B000AF78600B46FB7000BF7B6819
S2140196001B6903F04003002BF9D0FA787B685A6394
S2140196100C37BD465DF8047B704700BF80B487B049
S21401962000AFF860B9607A60FB6803F10473DA0092
S214019630BB6813449B007B617B697A681A601C37A0
S214019640BD465DF8047B704780B584B000AF786096
S2140196500B46FB707B681B6803F01003002B00D0E1
S21401966024E00023FB6002E0FB680133FB607B68BB
S2140196709B6803F00103002B04D0FB6847F22F52CE
S2140196809342F1DD7B681B6803F00103002B14BFD6
S21401969001230023FB72FA7AFB789A4206D07A6895
S2140196A0FB78104600211A46FFF7B8FF1037BD4673
S2140196B080BD00BF80B483B000AF78607B681B6854
S2140196C003F00103002B00D110E07B689B6803F0D8
S2140196D00203002B00D009E000BF7B689B6803F003
S2140196E00103002BF9D17B6801225A600C37BD4675
S2140196F05DF8047B704700BF80B485B000AF78602A
S21401970039603B681B78002B01D0012200E0002263
S2140197103B685B78002B01D0022300E000231A434C
S2140197203B689B78002B01D0042300E000231A43FA
S2140197303B68DB78002B01D0082300E000231A43A6
S2140197403B681B79002B01D0202300E000231A433D
S2140197503B685B79002B01D0402300E000231A43CD
S2140197603B689B79002B01D0102300E000231A43AD
S2140197703B68DB791B031A433B681B7A1B021343C6
S214019780BB600023FB6002E0FB680133FB607B6883
S2140197909B6803F00103002B04D0FB6847F22F52AD
S2140197A09342F1DD7B68BA681A601437BD465DF8EE
S2140197B0047B704790B583B000AF78600B46FB70B2
S2140197C0294BDB78002B06D0274B1A78264B5B7883
S2140197D09A4200D144E0244B1B781946224A0B4694
S2140197E01B010B441344FA781A711F4B1B781A4657
S2140197F013461B0113441C4A13445A1DFB780133BC
S214019800104679681A460CF03DF8184B1868164B46
S2140198101B781A4613461B011344134A13445C1D56
S214019820114B1B781946104A0B461B010B44134477
S2140198301B7921461A460E4BF4F774FC0A4B1B782B
S2140198400133DAB2084B1A70074B1A78064B9B782D
S2140198509A4205D3044B00221A70034B0122DA7098
S2140198600C37BD4690BD00BF00010020FC00002063
S214019870619D010080B582B000AF78600B467B80A9
S214019880104811490CF07AF80E4B04221A717B68C5
S2140198901A780C4B5A71B7F9023003F47F431B1246
S2140198A0DAB2084B9A717B88DAB2064BDA71054B4D
S2140198B00A221A7203480921FFF77CFF0837BD46C2
S2140198C080BD00BFD43E00202066020080B586B071
S2140198D000AF0346FB80FB8803338E4AD35C432BE1
S2140198E003D0552B00F0EE8014E2FB880533894A3D
S2140198F0D35C1F2B6ED01F2B06DC1C2B21D01E2BFE
S21401990055D01B2B0AD004E2F12B00F0CA80FF2BA6
S21401991000F09680F02B00F09E80FAE1FB8806337B
S2140199207C4AD35C1B0299B2FB880733794AD35C25
S2140199309BB20A4613439BB29BB2184601F090F8BD
S214019940BFE0FB880633734AD35C1B0299B2FB88DF
S2140199500733704AD35C9BB20A4613439BB29BB251
S2140199603B81FB8808336B4AD35C1B0299B2FB88A8
S2140199700933684AD35C9BB20A4613439BB29BB237
S2140199807B81FB880A33634AD35C1B0299B2FB884E
S2140199900B33604AD35C9BB20A4613439BB29BB21D
S2140199A0BB8107F108031846FBF71AFA89E0FB8822
S2140199B00633584AD35C1B0299B2FB880733554AD3
S2140199C0D35C9BB20A4613439BB29BB2184601F086
S2140199D05DF876E0FB8806334E4AD35C1B0299B2EB
S2140199E0FB8807334B4AD35C9BB20A4613439BB2B0
S2140199F09BB23B81FB880833464AD35C1B0299B273
S214019A00FB880933434AD35C9BB20A4613439BB295
S214019A109BB27B81FB880A333E4AD35C1B0299B218
S214019A20FB880B333B4AD35C9BB20A4613439BB27B
S214019A309BB2BB8107F108031846FBF70FFA40E01B
S214019A40354B1B6800221A70344B1B6800221A70B3
S214019A50F4F710FD35E0FB8807332E4AD35C002B64
S214019A6007D12E4B1B6800221A702D4801F080FD8D
S214019A7027E02A4B1B6801221A702A4B1B681B78A9
S214019A80002B0AD0284801F073FD264B1B680022E4
S214019A901A70F4F7A9FC00F0E5FE244801F068FD11
S214019AA00FE0FB8807331B4AD35C002B04D11A4B0B
S214019AB01B6800221A7003E0174B1B6801221A70FC
S214019AC000BF26E1FB880533124AD35C532B00F016
S214019AD0F580552B71D0462B00D019E10023BB82AF
S214019AE00BE0BB8AFA88911DBA8A0A440949895C47
S214019AF00F4AD154BB8A0133BB82FB880433054A23
S214019B00D35C9BB2BA8A9A42EBD300233B820023F2
S214019B107B8220E0D43C0020C83C0020C43C0020CE
S214019B2028660200CC3C00203C660200506602001B
S214019B30B45200203B8A1A46920013445B009AB244
S214019B407B8A7649CB5C9BB213449BB2303B3B820B
S214019B507B8A01337B827A8AFB8804337049CB5C2B
S214019B60013B9A42E6DB3B8A1846FDF7C3F90346FA
S214019B70FB7597F917309BB21BB26A481946FFF777
S214019B8079FE97F917306848194601F0D5FC674801
S214019B9001F0D2FCF4F754FC654801F0CDFCF4F773
S214019BA023FC644801F0C8FCF4F74AFC624801F063
S214019BB0A7FC624801F0A4FCFBE7614801F02CFD1C
S214019BC0604B1A68564B1B795F4811461A4601F0DE
S214019BD0B3FC0023BB8206E0BB8A504A0021D15465
S214019BE0BB8A0133BB82BA8AFB8804334C49CB5CFF
S214019BF0013B9A42F0DB0023BB820BE0BB8AFA886A
S214019C00911DBA8A0A444649895C444AD154BB8AA2
S214019C100133BB82BA8AFB8804334149CB5C013BE2
S214019C209A42EBDB474B1B68B3F5F07F07D2BB8A42
S214019C303A481946FDF716F80346FB7510E0414B06
S214019C401B6801333F4A1360BB8A34481946FDF747
S214019C5009F80346FB753B4B1B68013B394A136009
S214019C60FB8804332E4AD35C9BB20633FB81002368
S214019C70BB8206E0BB8A2A4A0021D154BB8A013343
S214019C80BB82BA8AFB899A42F4D397F91730002B24
S214019C9008DA97F917309BB21BB22C481946FFF722
S214019CA0E9FD35E0274B1B685A1C26490A609BB222
S214019CB01BB226481946FFF7DDFD29E0F4F7C0FB85
S214019CC0234801F01DFC00F0A9FDF4F7A3FB214B8E
S214019CD01B6801221A701B4B00221A60F2F7AEF8BD
S214019CE0FCF71AFF0346FB7597F91730002B03D1D3
S214019CF0FCF7ACFE0346FB75174801F01DFC97F90F
S214019D0017309BB21BB215481946FFF7B3FD00BFCB
S214019D1000BF00BF1837BD4680BD00BFB45200204B
S214019D20D43C002064660200686602007C6602007D
S214019D30846602008C66020094660200B066020029
S214019D40C4660200BC3C0020C8660200EC66020045
S214019D50F0660200CC3C0020006702001867020093
S214019D6080B485B000AFF860B9607A603B60BB68CC
S214019D70002B1FD1124BDB7883F00103DBB2002BE3
S214019D8006D00F4B5A780E4B1B789A4200D111E041
S214019D900B4B5B780133DAB2094B5A70084B5A7891
S214019DA0074B9B789A4205D3054B00225A70044B09
S214019DB00022DA701437BD465DF8047B704700BF99
S214019DC00001002080B586B000AFF860B9607A6007
S214019DD03B60F4F735FBBB68002B41D1264B1B8853
S214019DE05A1C91B2244A11801A467B681978234B73
S214019DF099547B681B780A2B32D1204B1B799AB277
S214019E001D4B1B889A422BD21C481D490BF0C6FDE0
S214019E1078617B69194A9B1ADBB2FB74164B1B8867
S214019E201946FB7CDBB25BB20433144AD35C0533C0
S214019E30994215DB134B1B6818460121F3F7F4FF13
S214019E40FB7CDBB25BB29BB21846FFF73FFD0A4BC9
S214019E5000221A800B4B1B6818460021F3F7E4FF1B
S214019E60084B1B68184608490122084BF4F7C4F84A
S214019E701837BD4680BD00BFD23E0020D43C00202E
S214019E801C670200FC000020D03C0020C59D01009C
S214019E9080B582B000AF0346FB71FB79002B09D079
S214019EA00320062104220023FEF790FB4FF4FA70EC
S214019EB0F4F71CFA0320062104220123FEF786FB91
S214019EC04FF4FA70F4F712FA00235BB2184608371B
S214019ED0BD4680BD80B58EB000AFF860B9607A60CF
S214019EE0334B00221A70334AFB681360324ABB6850
S214019EF01360324A7B681360304B1B6800221A706D
S214019F002F4BBB614FF41653FB61002387F82030BB
S214019F104FF480537B840023BB84002387F82630CC
S214019F20002387F82730022387F82830042387F890
S214019F3029300D2387F82A30042387F82B300C2389
S214019F4087F82C301F4B3B631F4B7B631F4B1A68F4
S214019F5007F1180310461946F3F756FE1B4B1B680C
S214019F6018461B4901221B4BF4F746F8104B0122F9
S214019F701A704FF4FA70F4F7B9F90023FB8207F16F
S214019F801603F0201946012200F026F807F1160301
S214019F90F1201946012200F01FF84FF4FA70F4F789
S214019FA0A5F900235BB218463837BD4680BD00BF11
S214019FB0C03C0020C43C0020C83C0020CC3C002013
S214019FC000C000408C01002034020020FC0000206C
S214019FD0D03C0020C59D010080B584B000AF03468B
S214019FE03960FB711346BB71294B1B7883F0010363
S214019FF0DBB2002B01D09D2344E0264826490BF016
S21401A000BDFCBB790133DBB25B00DAB2214B1A71BE
S21401A010204AFB7953710623FB730023BB731EE0B2
S21401A020FB7B5A1CFA731946BB7B5B003A681344E8
S21401A0301B881BB203F47F431B12DAB2154B5A542A
S21401A040FB7B5A1CFA731946BB7B5B003A681344C8
S21401A0501B88DAB20F4B5A54BB7B0133BB73BA7BF6
S21401A060BB799A42DCD30B4B1B790433094A0A218C
S21401A070D154084B1B790533DBB206481946FFF766
S21401A08099FB00235BB218461037BD4680BD00BF62
S21401A090C03C0020E03E00202067020080B485B06E
S21401A0A000AF786039607B6803F10473DA003B68BF
S21401A0B013449B00FB60FB681B6818461437BD46BB
S21401A0C05DF8047B704700BF80B582B000AF0346E1
S21401A0D03960FB71FB79002B0DD0FB79012B0AD07F
S21401A0E0FB79022B07D0FB79032B04D0FB79042BD9
S21401A0F001D0FB79052BFA791346DB0013449B004C
S21401A1001C3303F1804303F5C04318463968FFF753
S21401A110C5FF034618460837BD4680BD80B483B0E8
S21401A12000AF03463960FB71FB79002B0DD0FB793C
S21401A130012B0AD0FB79022B07D0FB79032B04D025
S21401A140FB79042B01D0FB79052B0949FA793B6889
S21401A150012000FA03F318461346DB0013449B0064
S21401A1600B44103358600C37BD465DF8047B7047CE
S21401A1700060004080B483B000AF03463960FB71D5
S21401A180FB79002B0DD0FB79012B0AD0FB79022B32
S21401A19007D0FB79032B04D0FB79042B01D0FB7984
S21401A1A0052B0949FA793B68012000FA03F31846A2
S21401A1B01346DB0013449B000B44103318600C3726
S21401A1C0BD465DF8047B70470060004090B585B0E1
S21401A1D002AF396011461A460346FB710B46BB7146
S21401A1E013467B71FA79BC797B7900933B7E0193A8
S21401A1F0104639683A682346FEF780F90C37BD46A3
S21401A20090BD00BF80B582B000AF0346FB7100F081
S21401A210CDF80346002B04D0054B1B6801221A70AB
S21401A22003E0034B1B6800221A700837BD4680BD49
S21401A230003F002080B582B000AF0346FB7100F0FE
S21401A240C3F80346002B04D0054B1B6801221A7085
S21401A25003E0034B1B6800221A700837BD4680BD19
S21401A260043F002080B584B002AF78603960204A90
S21401A2703B6813601F4A7B6813601F480121FDF786
S21401A28015FAF1F76FFC0020092102220123FEF7DF
S21401A2909DF9012300930020092101220123FFF7E4
S21401A2A095FF09201549F1F76DFC02200A210222CB
S21401A2B00023FEF78BF902200C2104220123FEF76E
S21401A2C085F902200B2104220123FEF77FF90420E1
S21401A2D0092102220123FEF779F90A20FFF792FFEE
S21401A2E0074B00221A7000BF0837BD4680BD00BF6D
S21401A2F0003F0020043F002000D2040035A20100E8
S21401A300083F002080B582B000AF0346FB711E4AAD
S21401A310FB7913701C4B1B78032B30D801A252F823
S21401A32023F000BF6BA3010035A3010047A3010082
S21401A33059A3010002200C21FFF7F0FE02200B2199
S21401A340FFF718FF1AE002200C21FFF713FF022087
S21401A3500B21FFF7E3FE11E002200C21FFF7DEFEE2
S21401A36002200B21FFF7DAFE08E002200C21FFF79E
S21401A37001FF02200B21FFF7FDFE00BF00BF00BF5B
S21401A3800837BD4680BD00BF083F002080B500AF3E
S21401A39000200F21FFF7EEFE80BD00BF80B500AFA5
S21401A3A000200F21FFF7BAFE80BD00BF80B500AFC9
S21401A3B002200A21FFF788FE0346012B01D1012363
S21401A3C000E00023184680BD80B500AF04200921B7
S21401A3D0FFF77AFE0346002B06D000200921FFF77F
S21401A3E073FE0346002B01D1012300E0002318462B
S21401A3F080BD00BF80B483B000AF0346FB7197F900
S21401A4000730002B0BDB084997F907305B09FA790F
S21401A41002F01F02012000FA02F241F823200C3755
S21401A420BD465DF8047B704700E100E080B483B070
S21401A43000AF0346FB7197F90730002B0CDB094987
S21401A44097F907305B09FA7902F01F02012000FA3A
S21401A45002F2603341F823200C37BD465DF8047BD9
S21401A460704700BF00E100E080B400AF044BDB6C36
S21401A4701B0EDBB21846BD465DF8047B704700BF75
S21401A480B081E00F80B582B000AF0E4B01221A6496
S21401A490FFF7EAFF0346FB713B1D1846FEF736FF42
S21401A4A0FB790F2B0AD93B79022B07D9064A064BB3
S21401A4B01B6823F0500343F0100313600837BD46B2
S21401A4C080BD00BF00000C40C0800C4080B582B04B
S21401A4D000AF0023FB7100F02FF80346DBB25BB23E
S21401A4E0B3F1FF3F0CBF01230023DBB2002B01D0E9
S21401A4F0FF23FB710F4B1B7843F02003DAB20D4BA1
S21401A5001A706420F3F7F2FE00F0D6F80346DBB2C9
S21401A5105BB2B3F1FF3F0CBF01230023DBB2002B7C
S21401A52001D0FF23FB71FB795BB218460837BD46A5
S21401A53080BD00BF1F3F002080B582B000AF002362
S21401A540FB71534801F014F8524801F011F8FBF77B
S21401A5504DF80346DBB25BB2002B14BF0123002388
S21401A560DBB2002B0CD0FF23FB714B4B1B7843F067
S21401A5700103DAB2484B1A70484801F069F802E064
S21401A580474801F065F8474800F0F2FFFBF74EFB3D
S21401A5900346DBB25BB2002B14BF01230023DBB200
S21401A5A0002B0CD0FF23FB713B4B1B7843F00203BF
S21401A5B0DAB2394B1A70394801F04AF802E03848E5
S21401A5C001F046F8384800F0D3FFFAF76DFD034670
S21401A5D0DBB25BB2002B14BF01230023DBB2002BDE
S21401A5E00CD0FF23FB712C4B1B7843F00403DAB22B
S21401A5F0294B1A70294801F02BF802E0284801F08F
S21401A60027F82A4800F0B4FFFBF7B2FB0346DBB29B
S21401A6105BB2002B14BF01230023DBB2002B0CD04E
S21401A620FF23FB711C4B1B7843F00803DAB21A4B6D
S21401A6301A701A4801F00CF802E0194801F008F8FF
S21401A6401B4800F095FFFAF743F90346DBB25BB20D
S21401A650002B14BF01230023DBB2002B0CD0FF23F9
S21401A660FB710D4B1B7843F01003DAB20A4B1A70DC
S21401A6700A4800F0EDFF02E0094800F0E9FF0D4846
S21401A68000F0E6FFFB795BB218460837BD4680BD91
S21401A690286702003C6702001F3F0020486702004F
S21401A6A05067020054670200606702006C67020090
S21401A6B0786702008067020080B584B000AF00238F
S21401A6C0BB8100237B8100233B810023FB80002389
S21401A6D0FB73364800F04CFFFBF76AFB0346DBB220
S21401A6E05BB2002B14BF01230023DBB2002B01D089
S21401A6F0FF23FB734FF4FA70F3F7F8FDFBF79EFBAD
S21401A7000346DBB25BB2002B0CBF01230023DBB296
S21401A710002B23D007F10C0007F10A0107F108020C
S21401A720BB1DFBF7DBFBBB891BB240F653329342E2
S21401A73005DDBB891BB241F2CC02934201DDFF234A
S21401A740FB737B891BB213F1320F04DB7B891BB2CF
S21401A750B3F5967F04DDFF23FB7301E0FF23FB7354
S21401A760BB891AB27B891BB2114811461A4600F002
S21401A770FFFE97F90F30B3F1FF3F0AD10D4B1B785F
S21401A78043F00803DAB20B4B1A700B4800F00CFFCB
S21401A79002E00A4800F0ECFE094800F021FFFB7BCE
S21401A7A05BB218461037BD4680BD00BF1868020070
S21401A7B02C6802001F3F0020546802006C680200EB
S21401A7C08067020080B400AF084B1B881BB21D2BAC
S21401A7D006DD064B1B881BB2C82B01DC012300E0FB
S21401A7E000231846BD465DF8047B7047423F0020B3
S21401A7F080B400AF084B1B881BB2312B06DD064B1D
S21401A8001B881BB2DC2B01DC012300E00023184669
S21401A810BD465DF8047B7047443F002080B500AF1D
S21401A820FBF7FEFAFAF7FCFFFBF752FAFAF700F924
S21401A830084B00221A70FAF72DFD074B00221A600A
S21401A840064B00221A80064B00221A80FAF764FD96
S21401A85080BD00BF163F0020543F0020423F00202D
S21401A860443F002080B500AFF3F7EAFDFAF736FF64
S21401A8700346DBB25BB2002B0CBF01230023DBB225
S21401A880002B0DD05D4B01221A705D4B1B7843F0F7
S21401A8900103DAB25A4B1A705A4800F069FE02E018
S21401A8A0594800F081FEF3F7CBFDFBF7BFF90346ED
S21401A8B0DBB25BB2002B0CBF01230023DBB2002B03
S21401A8C00DD0524B01221A704D4B1B7843F00203F8
S21401A8D0DAB24B4B1A704E4800F04AFE02E04D4881
S21401A8E000F062FEF3F7ACFD4B4B1B781846FAF707
S21401A8F0FBFB0346DBB25BB2002B0CBF012300233C
S21401A900DBB2002B0DD0454B01221A703C4B1B7855
S21401A91043F00403DAB23A4B1A70414800F028FEBD
S21401A92002E0404800F040FEF3F78AFD3E48F9F7A2
S21401A930EBFF0346DBB25BB2002B0CBF0123002307
S21401A940DBB2002B0DD0394B01221A702C4B1B7831
S21401A95043F01003DAB22A4B1A70354800F008FEAD
S21401A96002E0344800F020FEF3F76AFDFBF720FA18
S21401A9700346DBB25BB2002B0CBF01230023DBB224
S21401A980002B13D02C4B01221A701D4B1B7843F061
S21401A9900803DAB21A4B1A7028482949294A2A4B61
S21401A9A0FBF79CFA294800F0E3FD02E0284800F096
S21401A9B0FBFDF3F745FD274B1B781B029AB2104BA4
S21401A9C01B789BB213439AB2234B1A80E22022498A
S21401A9D00122FFF701FB114B1B78002B07D0FAF77A
S21401A9E01FFC0346DBB2002B01D1012300E000234C
S21401A9F0002B02D0194B01221A7080BD183F00208F
S21401AA00203F0020846802009C680200193F002055
S21401AA10B4680200CC680200DC020020173F002068
S21401AA20E4680200FC680200355301001B3F002069
S21401AA3014690200286902001C3F0020383F0020EC
S21401AA403A3F00203C3F00203E3F00203C69020088
S21401AA50546902001F3F0020223F0020163F0020BD
S21401AA6080B582B000AF0346FB80FB88054A1360C1
S21401AA70044B1B680448194600F07AFD0837BD46AA
S21401AA8080BD00BF6C3F00206C69020080B582B0BB
S21401AA9000AF0346FB80FB88054A1360044B1B6826
S21401AAA00448194600F064FD0837BD4680BD00BF66
S21401AAB0643F00208469020080B500AF8B4B1B7891
S21401AAC0002B00D000E28A4B1B78002B22D0894B4A
S21401AAD01B881BB2FA2B12DC864B1B889BB29BB2DF
S21401AAE0013B9BB29AB2834B1A80824B1B881BB2E6
S21401AAF0002B0EDC7F4B4FF4FA721A8009E07D4B77
S21401AB001B889BB29BB2013B9BB29AB2794B1A80CF
S21401AB10DAE1D9E1F3F794FC774B1B78002B3FD0B1
S21401AB20F9F794FF754B1B68002B0CDC744B1B6804
S21401AB30724A13607348FAF7B3F81D20714903226D
S21401AB40FFF74AFA04E06D4B1B68013B6B4A136042
S21401AB506D4B1B68002B0CDC6C4B1B686A4A136040
S21401AB606B48FAF7EDF81A2069490322FFF734FA21
S21401AB7004E0654B1B68013B634A1360654B1B6829
S21401AB80002B08DC634B4FF47A721A6060485D490B
S21401AB90FAF754F804E05F4B1B68013B5D4A13600B
S21401ABA05D4B1B78002B00F0D480FAF7CDFB5B4B96
S21401ABB01B68002B00F3C880584B4FF47A721A605A
S21401ABC057485849584AFAF7FBFB584B1A78564BE0
S21401ABD01B789A420CD0544B1B7810201946012240
S21401ABE0FFF7FAF9504B1B785148194600F0C0FCA4
S21401ABF04D4B1A784D4B1A704B4B1B78002B5DD082
S21401AC004C4B1B68322B12D14B4B00221A704A4B0D
S21401AC101B781846FAF768FAFAF702FB474B0A223E
S21401AC201A60444B1B68013B424A136019E0414BD2
S21401AC301B68002B10DC404B01221A703D4B3C2256
S21401AC401A603E4B0A221A603B4B1B781846FAF7ED
S21401AC504BFAFAF7E5FA04E0364B1B68013B354A36
S21401AC601360FFF7AFFD0346002B15D0334B1B686F
S21401AC70002B0CD105202A490122FFF7ADF9284BFC
S21401AC801B881BB22E48194600F072FC04E02B4BC1
S21401AC901B68013B294A1360FFF7AAFD0346002BF8
S21401ACA057D006201F490122FFF796F91D4B1B8836
S21401ACB01BB22448194600F05BFC4AE01F4B1B6898
S21401ACC0B3F1FF3F45D01C4B01221A70194B3C22B1
S21401ACD01A60194B1B781846FAF706FAFAF7A0FA23
S21401ACE0164B4FF0FF321A6033E000BFDD02002042
S21401ACF0123F0020403F00201B3F0020603F002005
S21401AD00643F00202C3F0020683F00206C3F00205D
S21401AD10243F00205C3F0020163F0020483F0020D3
S21401AD20423F0020443F00201D3F00201E3F0020E0
S21401AD309C690200543F0020DC020020583F00209E
S21401AD40B4690200C8690200604B1B68013B5F4A98
S21401AD5013605F4B1B78002B2BD05E4B1B68002BC0
S21401AD6022DC5C4B43F698221A605B48FAF766FDD4
S21401AD705A48FAF70FFF082057490122FFF72CF926
S21401AD80092056490122FFF727F9534B1B881BB2AE
S21401AD905348194600F0B4FB504B1B881BB2514870
S21401ADA0194600F0ADFB04E04A4B1B68013B494ADB
S21401ADB013604D4B1B78002B1CD04C4B1B68002B93
S21401ADC013DC4A4B43F698221A604948FAF78EFF7D
S21401ADD0072047490122FFF7FFF8454B1B881BB2A6
S21401ADE04448194600F0C4FB04E0404B1B68013B95
S21401ADF03E4A1360404B1B78002B3ED03F4B1B68EE
S21401AE00002B35DC3D4B47F230521A60FBF716F843
S21401AE103B483C493C4A3D4BFBF760F801203B4927
S21401AE200122FFF7D9F8022035490122FFF7D4F8AD
S21401AE30032034490122FFF7CFF8042032490122CA
S21401AE40FFF7CAF8314B1B881BB23148194600F090
S21401AE508FFB2B4B1B881BB22E48194600F088FB34
S21401AE60284B1B881BB22C48194600F081FB04E0D6
S21401AE70224B1B68013B214A1360284B1B881BB2DF
S21401AE80322B18DC0220FFF73DFA244B1B889BB2BD
S21401AE909BB2013B9BB29AB2204B1A801F4B1B8878
S21401AEA01BB2002B10DC1D4B41F288321A800020A9
S21401AEB0FFF728FA08E0194B1B889BB29BB2013BAF
S21401AEC09BB29AB2154B1A8080BD00BF483F002046
S21401AED0183F0020703F0020343F0020363F0020FE
S21401AEE0DC690200F4690200193F00204C3F002093
S21401AEF0323F0020086A02001C3F0020503F00201D
S21401AF00383F00203A3F00203C3F00203E3F0020D3
S21401AF10246A0200386A0200506A0200403F00209C
S21401AF2080B582B000AFA44B41F288321A80A34BA1
S21401AF304FF47A721A60A24B47F230521A60A14B54
S21401AF4043F698221A60A04B43F698221A609F4B4C
S21401AF503C221A609E4B4FF4FA721A609D4B4FF4D6
S21401AF60FA721A609B4B1B689B4A13609B4B4FF40B
S21401AF70FA721A60994B1B68994A1360994B002222
S21401AF801A70994B00221A70984B00221A80984B1F
S21401AF9000221A80964B00225A80954B00229A80F6
S21401AFA0944B00221A80934B00225A80914B002228
S21401AFB09A80914B00221A80904B00221A80904B67
S21401AFC000221A808F4B00221A808F4B00221A8093
S21401AFD08E4B00221A808E4B00221A808D4B002247
S21401AFE01A808D4B00221A808C4B01221A708C4BD2
S21401AFF000221A708B4B00221A708B4B00221A709B
S21401B0008A4B00221A708A4B00221A70894B002242
S21401B0101A70894B00221A70884B00221A70884BCE
S21401B02001221A70874B00221A70874B00221A7071
S21401B030864B00221A70864B00221A70FFF722FAFE
S21401B040FEF79AF80246834B1A60FEF76DF8824ABD
S21401B050814B1B6823F0030313607F4A7E4B1B68FA
S21401B06023F00C0313607D48F0F776F902200121E6
S21401B0700122FCF7DFFD7A480121FCF717FB79482E
S21401B080F3F702F9F1F70EF977487849FFF7EAF88E
S21401B0900320FFF737F9F0F7D1FE04223B464FF4C1
S21401B0A000401946F0F7D6FE3B68B3F5304F11D194
S21401B0B04C4B1B7843F04003DAB24A4B1A704A4BAA
S21401B0C01B7843F04003DAB2474B1A700220FFF7B1
S21401B0D019F914E03B68B3F5FC2F10D1414B1B78EE
S21401B0E063F07F03DAB23F4B1A703F4B1B7863F075
S21401B0F07F03DAB23C4B1A700120FFF703F9F0F731
S21401B100A3FEF0F7A5FD0A20FFF790F90A20FFF746
S21401B11071F9504B1B6803F01003002B03D000207D
S21401B120FEF7B6FE02E00120FEF7B2FE00F0D4FA0A
S21401B13046484549434AFEF7CDFE4D4800210122C7
S21401B14000F0DEF90023FB71FFF7C0F90346BB717F
S21401B150244B1B781B029AB2234B1B789BB21343DA
S21401B1609AB2224B1A80E22020490122FEF734FFD0
S21401B17097F90630B3F1FF3F1AD10023FB7112E0B5
S21401B1800120FFF7BFF84FF4FA70F3F7AFF800208D
S21401B190FFF7B8F84FF4FA70F3F7A8F8FB79DBB2CB
S21401B1A00133DBB2FB7197F90730022BE8DD78E05B
S21401B1B00023FB7171E000BF403F0020483F0020A4
S21401B1C0503F00204C3F0020703F0020543F00209D
S21401B1D05C3F0020643F0020603F00206C3F002061
S21401B1E0683F00201F3F0020203F0020223F002014
S21401B1F02C3F0020243F0020323F0020343F002017
S21401B200363F0020423F0020443F0020383F0020C8
S21401B2103A3F00203C3F00203E3F0020DD02002058
S21401B220173F0020183F0020193F00201A3F00203A
S21401B2301B3F00201C3F00201D3F00201E3F00201A
S21401B240DC020020123F0020103F0020113F0020AA
S21401B250133F00200C3F002000800C40006CDC02F5
S21401B26040810400B9AA0100153F0020143F0020C8
S21401B270686A02000220FFF745F84FF4FA70F3F708
S21401B28035F80020FFF73EF84FF4FA70F3F72EF882
S21401B290FB79DBB20133DBB2FB7197F90730022B86
S21401B2A0E8DD0320FFF72EF8F3F774F8F3F79CF8C0
S21401B2B0F3F7C6F86420F3F719F8634B1B6803F03D
S21401B2C01003002B02D0614800F052F9FFF7CAFACA
S21401B2D00020FFF717F85E4B00221A70F3F7B0F85C
S21401B2E05C4B1B78002B1AD00020FFF70BF84FF4AD
S21401B2F0FA70F2F7FBFF3B68B3F5304F03D102203B
S21401B300FFF700F806E03B68B3F5FC2F02D10320F7
S21401B310FEF7F8FF4FF4FA70F2F7E8FF93E0F3F761
S21401B3208FF8FFF751F80346002B03D04A4B012252
S21401B3301A7002E0484B00221A70474B1B78002B0C
S21401B3401CD0464B1B78002B35D0444B00221A707C
S21401B350F9F7A0FF424B00221A60424B00221A80E6
S21401B360414B00221A8005203E490122FEF734FE99
S21401B37006203D490122FEF72FFE1CE0374B1B78C5
S21401B38083F00103DBB2002B15D0384B1B7883F01A
S21401B3900103DBB2002B0ED06420F2F7A7FF2E4B81
S21401B3A01B7883F00103DBB2002B04D0F9F738FFDA
S21401B3B02A4B01221A70274B1B78002B1BD0274BD8
S21401B3C01B78002B17D0254B00221A70F9F762FF65
S21401B3D0234B00221A60234B00221A80224B0022A4
S21401B3E01A8005201F490122FEF7F6FD06201E4998
S21401B3F00122FEF7F1FD1D4B1B7883F00103DBB242
S21401B400002B12D01A4B1B881BB241F26F7293426B
S21401B4100BDD164B01221A70FEF7C0FF4FF4FA70CF
S21401B420F2F764FFFEF7B2FF0DE0104B1B78002B1E
S21401B43009D00F4B1B881BB241F29312934202DCD8
S21401B4400A4B00221A704BE70C3F0020986A020054
S21401B450DD020020123F0020153F0020163F00208D
S21401B460543F0020423F0020443F0020133F00206D
S21401B470343F002080B5A2B000AF03463960FB71AF
S21401B480FB79032B2AD801A252F823F09DB40100C0
S21401B490ADB40100BDB40100CDB4010007F108034D
S21401B4A0184613493A680AF045FA18E007F1080306
S21401B4B0184610493A680AF03DFA10E007F1080309
S21401B4C018460D493A680AF035FA08E007F108030C
S21401B4D018460A493A680AF02DFA00E000BF07F15B
S21401B4E00803184600F072F98837BD4680BD00BFD4
S21401B4F0B86A0200C46A0200D06A0200DC6A02006E
S21401B5000FB480B5A2B000AF07F194037B6007F1DA
S21401B51008031846D7F890107A680AF06FFA07F110
S21401B520080301201946FFF7A5FF8837BD46BDE889
S21401B530804004B0704700BF0FB480B5A2B000AF22
S21401B54007F194037B6007F108031846D7F89010BB
S21401B5507A680AF053FA07F1080301201946FFF743
S21401B56089FF8837BD46BDE8804004B0704700BFFC
S21401B5700FB480B5A2B000AF07F194037B6007F16A
S21401B58008031846D7F890107A680AF037FA07F1D8
S21401B590080301201946FFF76DFF8837BD46BDE851
S21401B5A0804004B0704700BF0FB480B5A2B000AFB2
S21401B5B007F194037B6007F108031846D7F890104B
S21401B5C07A680AF01BFA07F1080302201946FFF70A
S21401B5D051FF8837BD46BDE8804004B0704700BFC4
S21401B5E00FB480B5A2B000AF07F194037B6007F1FA
S21401B5F008031846D7F890107A680AF0FFF907F1A1
S21401B600080303201946FFF735FF8837BD46BDE816
S21401B610804004B0704700BF0FB480B5A2B000AF41
S21401B62007F194037B6007F108031846D7F89010DA
S21401B6307A680AF0E3F907F1080303201946FFF7D1
S21401B64019FF8837BD46BDE8804004B0704700BF8B
S21401B6500FB480B5A2B000AF07F194037B6007F189
S21401B66008031846D7F890107A680AF0C7F907F168
S21401B670080303201946FFF7FDFE8837BD46BDE8DF
S21401B680804004B0704700BF80B483B000AF7860DC
S21401B6904FF06043D3F8803E03F00103002B13D034
S21401B6A04FF06043D3F8003E03F00103002B0BD0AC
S21401B6B000E000BF4FF060431B68002BF9D04FF04D
S21401B6C060437A68D2B21A707B6818460C37BD465A
S21401B6D05DF8047B704700BF80B400AF334A334B3C
S21401B6E05B6C43F400535364314A314BD3F8203139
S21401B6F043F00403C2F820312D4A2D4BD3F82031F4
S21401B70023F44073C2F82031294A294BD3F8B830C4
S21401B71023F47063C2F8B830254A254BD3F8B83005
S21401B72043F48063C2F8B830204B10221A6200BF7F
S21401B7301E4BDB6A03F02003002BF9D01D4A1D4B7C
S21401B740DB6843F08073D3604FF060431A4AC3F856
S21401B750B02F4FF060430022C3F8002E4FF0604335
S21401B7600022C3F8802E154B0222C3F8F020134B9B
S21401B7700F221A614FF060430022C3F8402E104B8F
S21401B780104A1A604FF060430F4AC3F8802E0B4BE5
S21401B7904FF48072C3F804234FF060430122C3F8CC
S21401B7A0002EBD465DF8047B704700BF00800C404C
S21401B7B000600040F0ED00E055CEACC5000004E0AE
S21401B7C0001000E0FF0300400D00010080B584B0CA
S21401B7D000AF786078680AF0D9F80346BB81002389
S21401B7E0FB8109E0FB897A6813441B781846FFF74A
S21401B7F04BFFFB890133FB81FA89BB899A42F1D35E
S21401B8001037BD4680BD00BF2DE9F04F0E4683B010
S21401B8100446B0F84A0090461D4606F015FD31462E
S21401B82006F022FF80B1002384F84830A4F8503097
S21401B830304606F049FF0023A4F852000020C8F85D
S21401B840003003B0BDE8F08F94F84830002B00F0CC
S21401B8501981B4F854703FB2002FA56D40F383816F
S21401B8602368D4F824B0D4F804A0D4F828906360F0
S21401B8702660C4F828B02868C4F808A0C4F82C903C
S21401B880019306F0E1FC0146304606F031FD002149
S21401B89006F026FC0646686806F0D6FC019B1946AB
S21401B8A006F026FD0146304606F01AFC06462869D3
S21401B8B006F0CAFC594606F01BFD002106F010FCF6
S21401B8C08346A86806F0C0FC514606F011FD014605
S21401B8D0304606F005FC0646686906F0B5FC4946A2
S21401B8E006F006FD0146584606F0FAFB01463046CC
S21401B8F006F0F4FB9D4906F0AFFD4FF0874106F0D8
S21401B900F7FC4FF06E5106F0F3FC012F064660621D
S21401B91040F3AE80E368D4F830B0D4F810A0D4F881
S21401B92034902361E060C4F834B0A869C4F814A068
S21401B930C4F83890019306F087FC0146304606F0BD
S21401B940D7FC002106F0CCFB0646E86906F07CFC35
S21401B950019B194606F0CCFC0146304606F0C0FBBA
S21401B9600646A86A06F070FC594606F0C1FC00219E
S21401B97006F0B6FB8346286A06F066FC514606F0DA
S21401B980B7FC0146304606F0ABFB0646E86A06F011
S21401B9905BFC494606F0ACFC0146584606F0A0FBA7
S21401B9A00146304606F09AFB704906F055FD4FF009
S21401B9B0874106F09DFC4FF06E5106F099FC022F70
S21401B9C00646206354DDD4F83CA0D4F81C90276CBE
S21401B9D0D4F818B0C4F840A0A061C4F82090286B31
S21401B9E06764C4F81CB006F02FFC0146304606F02A
S21401B9F07FFC002106F074FB0646686B06F024FC0B
S21401BA00594606F075FC0146304606F069FB0646C7
S21401BA10286C06F019FC514606F06AFC002106F077
S21401BA205FFB8246A86B06F00FFC494606F060FCF9
S21401BA300146304606F054FB0646686C06F004FCE8
S21401BA40394606F055FC0146504606F049FB0146CC
S21401BA50304606F043FB454906F0FEFC4FF08741B1
S21401BA6006F046FC4FF06E5106F042FC0646E063D7
S21401BA70E06D314606F03CFCC8F80000002003B03B
S21401BA80BDE8F08FB4F85090B4F8520009F10109FE
S21401BA901FFA89F9A4F8509006F0D6FB07463946F6
S21401BAA0304606F0E1FD00283BD13146384606F027
S21401BAB015FB06F0E3FDE36C80B2002D3BD11A883E
S21401BAC094F8601002EB820253000B4100B29842D8
S21401BAD0ACBF00230123002B3FF4AAAEB4F8547088
S21401BAE001233AB2002A84F8483016DD0023012AE1
S21401BAF0236063626360A362A360E3620DDD022AD2
S21401BB00E3602363236163636361A36305DDA3616C
S21401BB10E363E36123642362636426606660A66070
S21401BB2099E63946304606F0D9FA06F0A7FDE36CE9
S21401BB3080B2002DC3D01B8894F8602003EB8303EA
S21401BB405B00134100B29842BFF672AEB4F96230A0
S21401BB500749DA1781FB0303C2EBA3039945D4BF58
S21401BB6000230123B7E7002682E700BF00FF7F47D7
S21401BB706766666630B50D46ADF5097D0446014635
S21401BB80AA0008A809F07EFE01232A46009302A80F
S21401BB900023064904F058FF02A808A9224604F02B
S21401BBA08BFE00200DF5097D30BD00BF743F0020DF
S21401BBB02DE9F04FADF5477D0290B0F86E00BDF966
S21401BBC054436328089104920D93DDF848A3079423
S21401BBD09DF8648303D8029C0130A4F86E00D49CBF
S21401BBE024680994029C24680F94079C002C00F09A
S21401BBF07E81204606F028FBD09C216806F078FB63
S21401BC009F490A9006F06AFA1090029C266C30460C
S21401BC1005F0DAFE04460D460A98314606F05EFA4D
S21401BC2005F0D2FE8EA3D3E9002305F021FF0246DC
S21401BC300B462046294605F069FD06F0FBF9029CF5
S21401BC400746A66C2064304605F0BEFE04460D4647
S21401BC500998314606F042FA05F0B6FE82A3D3E90A
S21401BC60002305F005FF02460B462046294605F04F
S21401BC704DFD06F0DFF9029C0646D4F84490A06418
S21401BC80484605F0A1FE04460D460998494606F0C9
S21401BC9025FA05F099FE76A3D3E9002305F0E8FE20
S21401BCA002460B462046294605F030FD06F0C2F94D
S21401BCB0029C0C90606439460A9806F00FFA00213F
S21401BCC0054606F0D1FC002800F0498628466D4955
S21401BCD006F0ACFC002840F00F814FF080440A9833
S21401BCE0674906F0C1FC18B1B8F1020F00F0C28630
S21401BCF03046634906F0B8FC002800F0E985604943
S21401BD00304606F0EBF90021054606F08FFC0028C8
S21401BD1040F0988628465C4906F0A6FC002800F00C
S21401BD2098864FF082450F99584806F0D7F929466C
S21401BD3006F0DEFA564906F08FFB0021054606F0AE
S21401BD4075FC002840F005862846524906F08CFC12
S21401BD5000B1504D2046002106F086FC002800F078
S21401BD60E8852046294606F07FFC00B12546284690
S21401BD70484906F05BFC002840F0EE85454C0A98E1
S21401BD803F4906F071FC18B1B8F1020F00F0688661
S21401BD9021460F9806F0A4F9029C06902060079CA5
S21401BDA0002C00F03E85204606F04EFAD09C216815
S21401BDB006F09EFA0146384606F090F90021044640
S21401BDC006F052FC002800F0408620462D4906F079
S21401BDD02DFC029C002800F09B80E06B05F0F4FD32
S21401BDE025A3D3E9002305F091FC06F023F9029977
S21401BDF004468D6B294606F037FC002840F09B80F0
S21401BE00029AD4634FF07E541194DDF810B05C466C
S21401BE10012C00F3FE840BF1FF339BB20BF10302FE
S21401BE2012930592049C002C40F39A80671ED09CC6
S21401BE30BFB22368029C22AAD4F83C90D4F8208092
S21401BE400D9CCDF82CB03C4401940D9CCDF838A047
S21401BE50651E039200249A46934633E0AFF30080B2
S21401BE609A9999999999D93F333333333333D33FD9
S21401BE709A9999999999C93F7B14AE47E17A843F7B
S21401BE800000164300002041000020430000E2426B
S21401BE900000F0410000A0403046494606F028FA6E
S21401BEA0414606F01DF9014606F022FA089B0146B6
S21401BEB0185906F0D1FA019A4BF80400954204F19C
S21401BEC0040449D015F8010F06F0BEF9514606F0F4
S21401BED00FFA0146069806F001F90021074600F11F
S21401BEE0004606F0A3FB0028D6D13846D5E7184C05
S21401BEF01094184C0A9488E6284605F065FD10A3B0
S21401BF00D3E9002305F0B4FD06F094F80446E6E60E
S21401BF10E06B05F059FD0CA3D3E9002305F0F4FB13
S21401BF2006F088F8029904460D6B294606F07EFB5A
S21401BF3000283FF465AF2C4662E700BFAFF30080F0
S21401BF409A9999999999C93F7B14AE47E17A943F9A
S21401BF500000B4C200007042DDF82CB0DDF838A055
S21401BF60059A002A55DB049C0022661E134622AC65
S21401BF70B6B201921CAA0B92904601360394CDF8F4
S21401BF8038B01F46CDF84CA022464FF0000328F8E3
S21401BF901730049B1468002B40F3F0830DF1840ADC
S21401BFA04FF0000B5AF8045F214628461FFA8BF91A
S21401BFB00BF1010B06F058FB10B128F817902C4630
S21401BFC0B345EFD138F91730019CAF49039A04F114
S21401BFD001091FFA89F942F82310059B0FFA89F720
S21401BFE09F42CDF80490D0DD0022DDF838B0DDF8B0
S21401BFF04CA00D9C0B9D18460DF17C08134635F997
S21401C00013100132615C92B228F8131013B2834206
S21401C010F5DDBBF1000F14DDD09900270C683D4615
S21401C0200DF17C0816AE38F9150006F00DF921461B
S21401C03006F05EF90137BFB246F825003DB2AB45C2
S21401C040F1DCBAF1000F0DDD0021D19C0A460B464A
S21401C05062AD013292B2E05C13B2534525F811008D
S21401C0601946F6DB059A002A48DB079C002791460D
S21401C07062AB3A4604F1010C4FF6FF750DF17C08F0
S21401C080934540F3C581BAF1000F38F812E030DD70
S21401C0900FFA8EF6F643760001360020B6B2024657
S21401C0A033F8124001303444A4B221B20029BCBF97
S21401C0B0614209B2082980B2D8BF23F8125002B2F1
S21401C0C09245EDDC00201FFA8EFE024633F8124040
S21401C0D00130CEEB0404A4B221B20029BCBF6142F8
S21401C0E009B2082980B2D8BF23F8125002B292458D
S21401C0F0ECDC0137BFB23AB24A45C1DDBAF1000FF6
S21401C10040F3CA840024DDF84C83002726462346E4
S21401C11062AD35F913303846002B06DD58F823108A
S21401C12005F0DEFF01360746B6B20134A4B223B2EB
S21401C1309A45EEDC30B206F087F80146384606F03E
S21401C1408BF90799044621B1504906F08DFA00B9DA
S21401C1504E4CBBF1000F16DD1CAA14AB0026089F3F
S21401C16035460B9201939046994638F9153021468B
S21401C17057F8230006F070F90136B6B249F82500E3
S21401C18035B2AB45F1DC079C002C00F03A830998E8
S21401C19005F01AFC3E4B002205F06AFC044607989F
S21401C1A00D4606F051F8D09A116806F0A1F8394903
S21401C1B005F094FF05F008FC31A3D3E9002305F050
S21401C1C057FC02460B462046294605F09FFA029C7C
S21401C1D00D46A6680446304605F0F6FB02460B46B9
S21401C1E02046294605F090FA05F024FF044620462D
S21401C1F04FF03F4106F01AFA28B120464FF07C5125
S21401C20006F076F8044602994D692146284606F05E
S21401C2106FF8314605F064FF029AD16990602846AE
S21401C22006F066F80146204606F062F8029B0446D0
S21401C230B3F84C501DB1013DADB2A3F84C500A986D
S21401C240154906F0F3F9002840F09A820C98124935
S21401C25006F0ECF9002840F09382284605F0F0FF3E
S21401C26000210646109806F0E1F9002840F0948275
S21401C27010980A4906F0F8F912E000BFAFF3008003
S21401C2809A9999999999E93F000080BF0000E0408A
S21401C2900000E03F000070420000C8420000484233
S21401C2A0002800F077834FF07E558F490C9805F0F3
S21401C2B015FF0021074606F0B9F9002840F068830B
S21401C2C03846894906F0D0F9002800F06983874F7F
S21401C2D02846394606F0AAF900B92F4631463846AF
S21401C2E006F006F8824906F0B7F84FF07E5105F0E1
S21401C2F0F7FE05F069FB7AA3D3E9002305F0B8FB46
S21401C30005F098FED89A054612F4C022089203D08A
S21401C310014605F0E5FE0546029B00215E6D3046AE
S21401C32006F0A2F9002800F02C833046714905F08A
S21401C330DFFF06463046704906F078F9002800F01F
S21401C3405E826C49304606F087F80146284605F0BD
S21401C350C7FE00210546204606F086F9002800F0B3
S21401C3603D822046294606F07FF9002800F03682F5
S21401C3702C462146069805F0B3FED79CBBF1000F6C
S21401C3800390206040F3C885029A029B029CD26B00
S21401C390A4691B6A0027049214AA069405934FF019
S21401C3A000093D4616AE019219ACCDF828A020E052
S21401C3B04046049905F09CFF059905F091FE019B06
S21401C3C0804653F82510069805F092FF414606F080
S21401C3D043F8414606F040F80346014644F8253046
S21401C3E0484605F07DFE0137BFB23DB2AB458146FA
S21401C3F02CDD039956F8250005F070FE00218246D3
S21401C40000F1004806F012F90028D1D15046D0E7D5
S21401C410079C002C17DDCBEB020202FB0CC201329B
S21401C42002EBD2724FEA620E0EF1FF3E1FFA8EFE4B
S21401C430BAF1000F3FF746AE0137BFB23AB24A45EE
S21401C4407FF71EAE5AE64FF0000EF1E74FF07E5131
S21401C450DDF828A006F008F968B100273D4654F833
S21401C4602500494605F0F8FF0137BFB244F825001C
S21401C4703DB2AB45F3DC00273D4654F8250005F0F8
S21401C480A3FA07F0DBFB05F0D5FD0137BFB244F890
S21401C49025003DB2AB45F0DC11984FF07E5106F019
S21401C4A0E3F898B1BBF1000F37DD0026119F354642
S21401C4B019AC54F82500394605F0CEFF0136B6B260
S21401C4C044F8250035B2AB45F3DC16AE35680B49AA
S21401C4D0284606F0ABF8002840F08D84074616E0A3
S21401C4E0CDCCCCCCCCCCDC3F00001643922409400A
S21401C4F00000F041000048430000A04200005C42FA
S21401C50056F8230006F092F8002840F074840137AC
S21401C510BFB23BB29B45AA49F2DC029C00232365CD
S21401C520BBF1000F40F3E88419AC0026A54D334655
S21401C53054F823702946384606F096F80136B6B206
S21401C54033B200B13D469B45F2DC029C2946A06A07
S21401C55006F08AF8002836D0079C002C65D02046C5
S21401C56005F072FED09C216805F0C2FED79C0146FC
S21401C5700546206805F0B2FD0021044606F056F88F
S21401C580002840F0BC8420468F4906F04FF8D0B111
S21401C5900299486A8D4905F0ABFE214606462046BB
S21401C5A005F0A6FE894905F09BFD0146304605F0DB
